:020000040800F2
:1000000050A200202D02000807150008FD0F00086F
:1000100005150008B90A0008B92B00080000000007
:100020000000000000000000000000000D24000897
:10003000BB0A000800000000A91A000801270008F8
:10004000470200084702000847020008470200086C
:10005000470200084702000847020008470200085C
:10006000470200084702000847020008470200084C
:10007000470200084702000847020008470200083C
:10008000470200084702000847020008470200082C
:10009000470200084702000847020008470200081C
:1000A000470200084702000847020008470200080C
:1000B000552700084702000881270008470200086A
:1000C00047020008470200084702000847020008EC
:1000D0004702000845290008A9290008470200082E
:1000E00047020008470200084702000847020008CC
:1000F00047020008470200084702000847020008BC
:1001000047020008470200084702000847020008AB
:10011000470200084702000847020008470200089B
:10012000470200084702000847020008470200088B
:1001300000F002F800F06BF80AA090E8000C82448E
:100140008344AAF10107DA4501D100F060F8AFF26B
:10015000090EBAE80F0013F0010F18BFFB1A43F0A5
:1001600001031847A05D0000C05D00000A444FF085
:10017000000C10F8013B13F0070408BF10F8014B06
:100180001D1108BF10F8015B641E05D010F8016B4B
:10019000641E01F8016BF9D113F0080F1EBF10F8AF
:1001A000014BAD1C0C1B09D16D1E58BF01F801CBD2
:1001B000FAD505E014F8016B01F8016B6D1EF9D555
:1001C0009142D6D37047000000230024002500266A
:1001D000103A28BF78C1FBD8520728BF30C148BFAA
:1001E0000B607047642900F0B580752900F0B2807B
:1001F000782900F01681632900F0AB82732900F0A2
:10020000B082002070471FB51FBD10B510BD00F0B3
:10021000C7FA1146FFF7F7FF02F05EFF00F0E5FABC
:1002200003B4FFF7F2FF03BC02F0CEFC094880479D
:1002300009480047FEE7FEE7FEE7FEE7FEE7FEE7C8
:10024000FEE7FEE7FEE7FEE704480549054A064BE0
:10025000704700000527000831010008509C00206D
:1002600050A20020509E0020509E002070470000A9
:100270000FB4044910B503AA029800F077FA10BC35
:100280005DF814FB300000200FB41CB5084B06AA23
:100290007B4469460090059800F039FA0446002036
:1002A000694600F047FA20461CBC5DF814FB0000CC
:1002B000A104000070B5044685690068C10601D537
:1002C000302600E02026C00707D070BDD4E9012108
:1002D00030469047206A401C20626D1EF6D570BDE6
:1002E00070B5044685690078C00707D170BDD4E9B0
:1002F000012120209047206A401C20626D1EF6D507
:1003000070BD70B50C460546012A05D028788006D8
:1003100000D5EA69002302E0012305E05B1C93425B
:1003200002D2E05C0028F9D1A869E618C01AA861D9
:10033000286A184428622846FFF7BCFF04E0D5E984
:10034000012114F8010B9047B442F8D32846FFF777
:10035000C7FF70BD2DE9F0410646002410687529DD
:10036000314616A510D0AFF30080002802DA4042D3
:1003700013A507E031688A0701D512A502E04907F5
:1003800004D511A5012401E0AFF3008000210A2269
:1003900006F1240709E0B0FBF2FCB0FBF2F302FB2C
:1003A0001C00303078541846491C0028F3D12346ED
:1003B0002A463046BDE8F04100F04BB9000000008D
:1003C0002D0000002B00000020000000F0B40D46BE
:1003D0000188090502D5214C7C4402E01F4C7C4475
:1003E0000E34002100F1240608E002F00F07120984
:1003F000E75D42EA03721B097754491C52EA03077E
:10040000F3D102780023120704D5702D06D009B16C
:10041000022311342246F0BC00F01BB90123103432
:10042000F8E770B504460D4621461068AFF300802A
:10043000024629462046BDE870400023C6E7D21D8B
:1004400022F00703D3E90023C0E70368126843F0F2
:10045000200303600823C3610023B7E73859000075
:100460002DE9F05F894604464FF0000ADFF874B1C9
:10047000FB44C0F820A02046E1688847002874D0DB
:10048000252806D0D4E901219047206A401C20622B
:10049000F1E700265F462046E168884720280546A8
:1004A00007DB312D05D2781910F8200C08B106436E
:1004B000F1E7B00701D526F00406C4F81CA0002718
:1004C000C4F818A02A2D09D0284602F076FB38B3CC
:1004D00004EB8708303DC8F8185019E059F8041BA0
:1004E000204604EB87029161E1688847012F0546A9
:1004F00018D1E069002820DA26F020061DE0D8F89F
:10050000180000EB800005EB40003038C8F81800F8
:100510002046E1688847054602F04FFB0028EED1EF
:10052000012F0AD02E2D08D12046E16888477F1C74
:100530000546022F46F02006C4DBA069002803DA36
:10054000404246F00106A061F00701D026F01006F7
:100550006C2D0BD0682D09D04C2D39D06A2D35D09B
:10056000742D35D07A2D33D016E038E0E1682F466F
:1005700020468847B842054609D16C2F26D04FF453
:100580008060E168064320468847054604E06C2FFA
:100590001AD04FF4807006430DB3A5F1410019281D
:1005A00002D8203546F400664A4629462046266091
:1005B0004E46FFF717FE80B101280BD0F61D26F03E
:1005C000070000F1080956E74020E4E78020D8E75B
:1005D0000020D6E706F104094DE7284652E7206AD5
:1005E000BDE8F09FC858000030B505460B462A46C6
:1005F00013F8014B12F8010B08B1A042F8D01CB15E
:10060000002802D06D1CF1E7284630BD10B5431C10
:1006100002E010F8011B71B18107FAD14FF00132ED
:1006200002C88C1A8C4314EAC211F9D0C01A0A0607
:1006300003D0C01E10BDC01A10BD0A0401D0801E18
:1006400010BD0902FCD0401E10BD704770477047B6
:1006500070472DE9F0470D4699469246044600F151
:1006600024080168880604D5E06921F010012160A2
:1006700000E00120A84201DD471B00E00027A1693E
:100680007A1902EB0900081AA0612078C00602D48A
:100690002046FFF70FFE002608E0D4E901211AF8F2
:1006A00006009047206A401C761C20624E45F4DB11
:1006B0002078C0060AD52046FFF7FCFD06E0D4E905
:1006C000012130209047206A401C2062381EA7F18B
:1006D0000107F4DC07E0D4E9012118F80500904790
:1006E000206A401C2062281EA5F10105F3DC20468B
:1006F000FFF7F6FD2078000602D50220BDE8F0875E
:100700000120FBE701694A1C02610878704700B5C7
:100710008FB0CDE901310021059105497944CDE93A
:10072000031011466846FFF79BFE0FB000BD0000A6
:10073000E5FFFFFF0A6802F8010B0A60704710B579
:10074000436913B1AFF3008001E0FFF7DAFD012048
:1007500010BD127800F124010A7000224A700122B3
:10076000EDE711684FF0FF32E9E70000074B70B585
:100770000D467B44FFF7CBFF0446284600F008F8FF
:1007800010B14FF0FF3070BD204670BD0F29000042
:10079000007B00F08000704700487047F09B00200D
:1007A0007546FFF7F9FFAE4605006946534620F04F
:1007B0000700854618B020B5FFF746FDBDE820408C
:1007C0004FF000064FF000074FF000084FF0000B0D
:1007D00021F00701AC46ACE8C009ACE8C009ACE8C0
:1007E000C009ACE8C0098D46704710B50446AFF3A8
:1007F00000802046BDE81040FFF712BD2DE9F0470C
:100800000024DFF874815D4E25464FF47A79052D7A
:1008100055D2DFE805F003152D486300641CE4B2EF
:1008200057A0FFF725FD00F0F8FEF0B9012000F019
:10083000D6FED0B956A0FFF71BFD0024012510E01D
:10084000641CE4B255A0FFF713FD00F0E6FE60B9AA
:10085000022000F0C4FE40B94DA0FFF709FD0024BE
:100860000225484602F0FEF9D1E701F05BFE26E0E2
:100870004EA0FFF7FDFC00F063FF05000ED04FA077
:10088000FFF7F6FC284601F04DFE002425464846B9
:1008900002F0E8F9484602F0E5F9BFE74EA0FFF79D
:1008A000E7FC032508E051A0FFF7E2FC00F0D4FFCD
:1008B00078B1002501F036FE484602F0D3F94846EB
:1008C00002F0D0F9052CA2D14DA0BDE8F047FFF70A
:1008D000CFBC4FA0FFF7CCFC0425EDE751A0FFF7FC
:1008E000C7FC3088010429D5C5B25AA0FFF7C0FC67
:1008F00000206FF02F01434607E01A5C00EB8000F8
:1009000001EB40001044401CC0B2A842F5D3401E89
:10091000DFF854C1C7B20020ACF1040107E01A5C53
:10092000ACF800200A885206FCD5401CC0B2A84290
:10093000F5D34EA0FFF79CFC00203080002FD0D0D4
:100940003946022001F00AF808B100258DE749A0D8
:10095000FFF78EFC4C4801F02BF84C484A490088C0
:100960000988411A4AA0FFF783FC40F2DC5002F0EC
:1009700079F94CA0A9E70000440600202C000020D3
:10098000C7EBB0B4CAD6D6B8A3A10D0A00000000C8
:10099000D6B8CEC6D5FDC8B70D0A0000D4D9B0B4BC
:1009A000D2BBB4CECAD6D6B80D0A0000B6D4B1C8F0
:1009B000C1BDB4CED6B8CEC60D0A0000B6D4B1C8FB
:1009C000CAA7B0DCA3ACC7EBD6D8B0B4CAD6D6B8E9
:1009D000A3A10D0A00000000C1BDB4CED6B8CEC69A
:1009E000B6D4B1C8D2BBD1F90D0A0000B2FAC9FA27
:1009F000D2BBB8F6D6B8CEC6C4A3BFE90D0A000074
:100A0000CFD6D4DACDCBB3F6C1CBA3A10D0A00006B
:100A1000C9FAB3C9D6B8CEC6C4A3B0E5B3C9B9A69E
:100A20000D0A0000C7EBCAE4C8EBB8C3D6B8CEC6FF
:100A3000C4A3BFE9B4E6B7C5B5C4CEBBD6C3A3A8AB
:100A4000B1D8D0EBD0A1D3DA333030A3A9A3BA0DFB
:100A50000A0000000D0AC4FAB7A2CBCDB5C4CEBBC4
:100A6000D6C3CEAA3A0D0A00043801400D0A0D0A79
:100A700000000000CCEDBCD3D6B8CEC6B3C9B9A631
:100A8000A3A10D0A0000000000000020F8020020D1
:100A9000CAA3D3E0D6B8CEC6C8DDC1BF3A25640D1F
:100AA0000A000000C7EBBCCCD0F8C4E3B5C4B1ED7C
:100AB000D1DDA3A100000000FEE770472DE9F04161
:100AC0002AA0FFF7D5FB2DA0FFF7D2FB374D384EFC
:100AD0003088010425D5C4B236A0FFF7C9FB002039
:100AE0006FF02F0107E02A5C00EB800001EB400073
:100AF0001044401CC0B2A042F5D3401EC7B2324BD6
:100B000000201A1F06E0295C198011884906FCD5CF
:100B1000401CC0B2A042F6D32CA0FFF7A9FB0020D6
:100B20003080002FD4D00121384600F029FDC0B11B
:100B300001F0F8FC40F2DC5002F094F8254800F097
:100B400037FF2548234900880988411A23A0FFF769
:100B50008FFB322002F086F8BDE8F04124A0FFF7B9
:100B600087BB28A0FFF784FBE4E70000C9BEB3FD04
:100B7000D6B8CEC6A3BA0D0A00000000C7EBCAE47F
:100B8000C8EBD2AAC9BEB3FDD6B8CEC6B5C4CEBBDB
:100B9000D6C33A28B7B6CEA7A3BA303D3C204944C5
:100BA000203C3D323939290D0A000000440600205E
:100BB0002C0000200D0AC4FAB7A2CBCDB5C4CEBB21
:100BC000D6C3CEAA3A0D0A00043801400D0A0D0A18
:100BD0000000000000000020F8020020CAA3CFC2DD
:100BE000D6B8CEC6CAFDC1BFA3BA25640D0A00009F
:100BF000C7EBBCCCD0F8C4E3B5C4B1EDD1DDA3A143
:100C000000000000C9BEB3FDD6B8CEC6B3C9B9A6B0
:100C10000D0A000021283CD2DFE800F0111315175F
:100C2000191B1D1F212325273B3B3B3B27293B3B12
:100C30003B2B3B3B2D2F3133353B3B37390016A047
:100C4000704716A0704719A070471DA0704721A0DB
:100C5000704728A070472FA0704735A0704742A06A
:100C6000704744A0704747A070474AA070474DA006
:100C7000704750A0704758A070475BA070475DA0B8
:100C8000704760A0704764A0704768A070476AA072
:100C900070476CA0704700004F4B0000CAFDBEDDDE
:100CA000B0FCBDD3CAD5B4EDCEF30000B4ABB8D020
:100CB000C6F7C9CFC3BBD3D0CAD6D6B80000000090
:100CC000C2BCC8EBD6B8CEC6CDBCCFF1CAA7B0DC8B
:100CD00000000000D6B8CEC6CDBCCFF1CCABB8C9B1
:100CE000A1A2CCABB5ADB6F8C9FAB2BBB3C9CCD8EA
:100CF000D5F70000D6B8CEC6CDBCCFF1CCABCAAAD2
:100D0000A1A2CCABBAFDB6F8C9FAB2BBB3C9CCD874
:100D1000D5F70000D6B8CEC6CDBCCFF1CCABC2D291
:100D2000B6F8C9FAB2BBB3C9CCD8D5F700000000F9
:100D3000D6B8CEC6CDBCCFF1D5FDB3A3A3ACB5AB71
:100D4000CCD8D5F7B5E3CCABC9D9A3A8BBF2C3E6E1
:100D5000BBFDCCABD0A1A3A9B6F8C9FAB2BBB3C94D
:100D6000CCD8D5F700000000D6B8CEC6B2BBC6A519
:100D7000C5E40000C3BBCBD1CBF7B5BDD6B8CEC65A
:100D80000D0A0000CCD8D5F7BACFB2A2CAA7B0DC02
:100D900000000000C9BEB3FDC4A3B0E5CAA7B0DC23
:100DA00000000000C7E5BFD5D6B8CEC6BFE2CAA7CF
:100DB000B0DC0000BBBAB3E5C7F8C4DAC3BBD3D01C
:100DC000D3D0D0A7D4ADCABCCDBCB6F8C9FAB2BB9B
:100DD000B3C9CDBCCFF10000B6C1D0B420464C4160
:100DE000534820B3F6B4ED00CEB4B6A8D2E5B4EDC6
:100DF000CEF30000CEDED0A7BCC4B4E6C6F7BAC5B9
:100E000000000000BCC4B4E6C6F7C9E8B6A8C4DA5E
:100E1000C8DDB4EDCEF30000BCC7CAC2B1BED2B3C8
:100E2000C2EBD6B8B6A8B4EDCEF30000D6B8CEC6A5
:100E3000BFE2C2FA00000000B5D8D6B7B4EDCEF3D9
:100E400000000000C4A3BFE9B7B5BBD8C8B7C8CF7E
:100E5000C2EBD3D0CEF30000F0B5CA78002502F083
:100E60000F03D20601D58A7813430A784FF00F0E8C
:100E700012F0FF0F4FF001021CD004680F8802FA35
:100E800005F63740B74211D14FEA850C0EFA0CF740
:100E900024EA070703FA0CF43C43CF78282F02D04A
:100EA000482F02D002E0466100E006616D1C082D6B
:100EB000E4D304600C88FF2C1ED944685FF0000660
:100EC00006F1080702FA07F50F882F40AF420FD14D
:100ED0004FEA860C0EFA0CF7BC4303FA0CF73C43BE
:100EE000CF78282F00D14561CF78482F00D10561F8
:100EF000761C082EE4D34460F0BD0000F0B5144C1D
:100F0000002801DAE36900E06368420D120185B24E
:100F1000C0F301579540C0F30346032F05D0C2022A
:100F20000AD50322B240934307E023F0706263685E
:100F300023F07063636002E0AB4343F0706201B181
:100F40002A43002801DAE261F0BD6260F0BD0000D2
:100F5000000001400246002092680A4200D00120B1
:100F6000704701617047000030B40C4601465007DD
:100F700000D0012000EBD2005043C5B208784B7876
:100F8000812809D3402B07D3FF2B05D0FF2803D09E
:100F90007F2B0DD2403B0CE00020014604E000BF57
:100FA000401C04F8011BC0B2A842F9D330BC704702
:100FB000413B8138D9B2C0B2C0EB401303EB801083
:100FC00001EB400068430C490C2A0BD0102A0ED0CC
:100FD000182AEBD1D1F8191048220144204630BC20
:100FE00001F0B0B8D1F8091018220144F6E7D1F8A1
:100FF000111020220144F1E7CC9B0020FEE7000005
:101000007CB50546EF208DF8000001208DF8010029
:101010001448154C0168080E8DF80200080C8DF874
:101020000300080A8DF8040007208DF805108DF8DC
:10103000060000268DF8076026800CE0012001F0F4
:1010400011FE2088000406D5268069460748FFF770
:10105000CBFA002804D16D1E2D042D0CEED10020FA
:101060007CBD00002400002022000020240300207A
:1010700038B50121142000F031FD01211148FFF79E
:101080003DFF4FF40050ADF800000F4D48248DF89F
:10109000034069462846FFF7DFFE0220ADF8000056
:1010A0008DF8034069462846FFF7D6FE0120ADF8CB
:1010B000000028208DF8030069460448FFF7CCFEA5
:1010C00038BD00000002300000100140000801405F
:1010D0002DE9F0410126264CDFF89880264D770354
:1010E00008B1267001E0207878B102212846FFF788
:1010F00031FF88B139462846FFF72CFF60B1012146
:101100004046FFF727FF012806D002212846FFF7B7
:1011100021FF01281DD028E00A2001F0A3FD0020B6
:10112000207002212846FFF715FF58B1394628469E
:10113000FFF710FF48B101214046FFF70BFF0128E0
:1011400005D012E00120BDE8F0810220FBE703207A
:10115000F9E739462846FFF7FDFE012805D10121B0
:101160004046FFF7F7FE00B926700020EBE70000CD
:101170001800002000080140001001402DE9F74F41
:1011800007468F4881B0DFF83CA2818802983E0A6A
:1011900000F0FF094FEA1028F8B200908848A1F546
:1011A00013434FF4807B42894FF40074413B18D0C5
:1011B0000546A1F5A640103813D0A1F5AA40103875
:1011C00033D02846A1F5C85683790088C01B401E3D
:1011D000633E5ED0A1F5D046043E7CD0012B7BD08F
:1011E000CEE0104600F05CF9774DC5F810B06C61A8
:1011F0005746CAF8006080266E612E612C61C5F8E2
:1012000010B06C610098CAF800006E612E612C610C
:101210006B48808900F044F9C5F810B06C61C7F8DC
:1012200000806E612E612C612DE0104600F038F9CF
:10123000654DC5F810B06C615746CAF8006080264D
:101240006E612E612C615E484089401C80B200F0C6
:1012500027F9C5F810B06C61009838606E612E6196
:101260002C615748808900F01BF9C5F810B06C61FB
:10127000C7F800806E612E612C6151488089401C46
:1012800080B200F00DF9C5F810B06C61C7F800909D
:1012900071E003B987B2104600F002F94A4DC5F873
:1012A00010B06C61380ACAF8000080266E612E61A9
:1012B0002C61C5F810B06C61F9B2CAF800106E610B
:1012C0002E612C61C5F810B06C61CAF800006E6127
:1012D0002E612C6101E022E051E0C5F810B06C6194
:1012E000CAF800106E612E612C613548808900F0CB
:1012F000D7F8C5F810B06C615146CAF800806E612D
:101300002E612C61C5F810B06C61CAF800906E6156
:101310002E612C61C5F810B06C61404622E0012BB3
:1013200000D187B2104600F0BBF8274DC5F810B0C9
:101330006C61390ACAF8001080266E612E612C613A
:10134000C5F810B06C61F9B2CAF800106E612E6178
:101350002C611B48808900F0A3F8C5F810B06C61BF
:101360004046514608606E612E612C61C5F810B090
:101370006C61C1F800906E612E612C6108E087B24B
:101380003946104600F09EF8A889029900F09AF8B4
:101390000D48C0F814B0446109490989CAF8001021
:1013A0008021416101610461C0F810B04461039A79
:1013B000CAF80020416101610461BDE8FF8F0000AF
:1013C000040300200C0C0140001001402DE9FF4FE8
:1013D0001D460C468A46580700D0012000EBD50078
:1013E00069084843203A00F0FF09D0B20026DFF830
:1013F0009CB0029045E00C2D12D0102D15D0182D68
:1014000041D10298224900EBC00000BF01EB8000EF
:101410004FF00008875D38060CD51E4802880DE0A5
:1014200002981D4900EB4000F0E71C49029801EBCF
:101430000010EDE70D9828B916484288214600981B
:10144000FFF79CFE7806070E641CBBF80200A4B2EE
:10145000A04218D9A4EB0A00A84209D1009854462A
:10146000401C80B20090BBF8001081420BD906E00E
:1014700008F1010000F0FF08B8F1080FCBD3761C8B
:10148000F6B24E45B7D3BDE8FF8F0000040300203D
:10149000B84F00081A00002054450008C849000849
:1014A00006494FF480724A614A154A61044B18603C
:1014B0008020486108610A61704700000010014007
:1014C0000C0C014010B50C46FFF7EAFF06484FF43C
:1014D0008071016141154161044A146080224261BA
:1014E0000261016110BD0000001001400C0C0140C0
:1014F00003490A885206FCD50149091D0880704736
:1015000000440040FEE7704770B50F23C4780178AF
:101510000122F4B1144C2468457804F4E064C4F565
:10152000E064240AC4F10406E3408478B5401C401A
:101530002C4301F1E021230181F80034007800F010
:101540001F018A404009800000F1E020C0F800211E
:1015500070BD01F01F0082404809800000F1E020CA
:10156000C0F8802170BD00000CED00E00249084386
:1015700002490860704700000000FA050CED00E029
:1015800070B50C46054600F065FF00F041FF0120F4
:10159000FFF7AEFF072000F066FF0C20FFF7A8FF63
:1015A000280AFFF7A5FFE8B2FFF7A2FF200AFFF71E
:1015B0009FFFE0B2FFF79CFFE8B200EB152000EBC5
:1015C0001420E1B20844143000F03AFF4FF4FA60FE
:1015D000FFF716FD08B1407A70BDFF2070BD10B551
:1015E000044600F037FF00F013FF0120FFF780FFF3
:1015F000042000F038FF0220FFF77AFF2046FFF7B3
:1016000077FFE01D00F01CFF4FF4FA60FFF7F8FCD5
:1016100008B1407A10BDFF2010BD10B500F01AFFD0
:1016200000F0F6FE0120FFF763FF032000F01BFF30
:101630000120FFF75DFF052000F002FF4FF4FA6084
:10164000FFF7DEFC08B1407A10BDFF2010BD00009E
:1016500070B5044600F0FEFE00F0DAFE0120FFF750
:1016600047FF0020FFF744FF0020FFF741FFC8209D
:1016700001F0F8FA0F4A108800040BD50E4900203B
:101680000B78EF2B05D14B78012B02D18B79072BEF
:1016900002D01080012070BD4B798D7803EB05637B
:1016A000CD7809792D0405EB0121194421601080C2
:1016B000002070BD22000020240300202DE9F0410D
:1016C0001E4614460D46074600F0C4FE00F0A0FE7C
:1016D0000120FFF70DFF082000F0C5FE1B20FFF7DB
:1016E00007FF3846FFF704FF280AFFF701FFE8B2BB
:1016F000FFF7FEFE200AFFF7FBFEE0B2FFF7F8FE61
:1017000007EB1520E9B2084400EB1420E1B20844CD
:10171000243000F095FE4FF4FA60FFF771FC58B1E9
:10172000C27A837A417A02EB03223280427B007BC9
:1017300002EB0020708000E0FF210846BDE8F08148
:1017400010B500F087FE00F063FE0120FFF7D0FE29
:10175000032000F088FE0320FFF7CAFE072000F0F8
:101760006FFE4FF4FA60FFF74BFC08B1407A10BDF2
:10177000FF2010BD70B5044600F06CFE00F048FE7E
:101780000120FFF7B5FE032000F06DFE0F20FFF7EC
:10179000AFFE132000F054FE4FF47A70FFF730FCD8
:1017A000C8B1C17B827B457A01EB022189B22180DD
:1017B000427CA270427D837C067D02EB0362C37C87
:1017C0001B0403EB06231A446260C27D2272407E32
:1017D00060725DB100E0FF252846FFF71BFA014665
:1017E0000BA000BFFEF744FD284670BD0AA0FEF71F
:1017F0003FFDA1780EA0FEF73BFD11A06168FEF74A
:1018000037FD617A4FF41650414310A0EAE700001B
:101810000D0A2573000000000D0AC4A3BFE9D7EE2E
:10182000B4F3D6B8CEC6C8DDC1BF3D256400000004
:101830000D0AB6D4B1C8B5C8BCB63D2564000000D9
:101840000D0AB5D8D6B73D25780000000D0AB2A81C
:10185000CCD8C2CA3D25640010B500F0FBFD00F0F5
:10186000D7FD0120FFF744FE032000F0FCFD05201A
:10187000FFF73EFE092000F0E3FD4FF4FA60FFF7AA
:10188000BFFB08B1407A10BDFF2010BD70B5044603
:1018900000F0E0FD00F0BCFD0120FFF729FE07206D
:1018A00000F0E1FD1520FFF723FE200EFFF720FEDC
:1018B000C4F307400546FFF71BFEC4F307200646A6
:1018C000FFF716FEE0B2FFF713FE05EB146030449D
:1018D000E1B208441D3000F0B3FD0D4E4FF4FA6044
:1018E0003460FFF78DFB18B1457A34605DB101E0DB
:1018F000FF2534602846FFF78DF9014605A0FEF765
:10190000B7FC284670BD05A0FEF7B2FCF9E7000061
:10191000240000200D0A2573000000000D0AC9E80C
:10192000D6C3B5D8D6B7B3C9B9A6A3A100000000E5
:1019300008B50121042000F0D1F84020ADF80000E6
:1019400028208DF8030003208DF802006946024824
:10195000FFF782FA08BD00000008014070B50C4690
:10196000054600F077FD00F053FD0120FFF7C0FDB4
:10197000062000F078FD0620FFF7BAFD2846FFF7A5
:10198000B7FD200AFFF7B4FDE0B2FFF7B1FD05EBAC
:101990001420E1B208440D3000F052FD4FF4FA601B
:1019A000FFF72EFB08B1407A70BDFF2070BD00002C
:1019B00070B5054600F04EFD00F02AFD0120FFF74E
:1019C00097FD032000F04FFD1D20FFF791FD212022
:1019D00000F036FD4FF4FA60FFF712FB38B1C17A20
:1019E000827A447A01EB022129805CB100E0FF2475
:1019F0002046FFF70FF9014605A000BFFEF738FCAF
:101A0000204670BDC17A807A01EB002102A0F5E783
:101A10000D0A2573000000000D0AD3D0D0A7D6B858
:101A2000CEC6B8F6CAFD3D25640D0A0070B50C4659
:101A3000054600F00FFD00F0EBFC0120FFF758FD1C
:101A4000052000F010FD0E20FFF752FD2846FFF79D
:101A50004FFD2046FFF74CFD2819143000F0F0FC34
:101A60004FF4FA60FFF7CCFA10B1447A54B100E0B9
:101A7000FF242046FFF7CEF8014604A0FEF7F8FB4E
:101A8000204670BD03A0FEF7F3FBF9E70D0A2573AE
:101A9000000000000D0AC9E8D6C3B2CECAFDB3C922
:101AA000B9A6A3A10000000070470000044A002965
:101AB000D16901D0014300E08143D161704700004A
:101AC00000100240044A0029116901D0014300E0DE
:101AD000814311617047000000100240044A002950
:101AE000916901D0014300E081439161704700009A
:101AF00000100240044A0029D16801D0014300E0EF
:101B00008143D160704700000010024030B51F498A
:101B10004A6812F00C031E4A03D0042B01D0082B94
:101B200021D002604A680F231A4C03EA1212A35C08
:101B30000268DA4042604B68072505EA1323E35C3C
:101B400022FA03F383604B6805EAD323E35CDA40AF
:101B5000C2604968032303EA9131231F595CB2FB39
:101B6000F1F1016130BD4A684B6802F470124FF028
:101B7000020413F4803F04EB924202D04B689B03B3
:101B800001D5054B00E0024B5A43CAE70010024062
:101B900000127A003800002000093D0003490120AE
:101BA000C1F88C01FF2000F033BA00000000214290
:101BB00070B505464FF6FF7401E0641EA4B2FF2025
:101BC00000F028F9A84202D0002CF6D102E00CB1B6
:101BD000002070BDFF2070BD2DE9F84300F0F8F83B
:101BE000382000F03DFA0024FF2000F011FA641CB8
:101BF000A4B20A2CF8D3142400219522084600F040
:101C000049F90546012802D0641EA4B2F4D2474E19
:101C10000027012D37707AD187224FF4D571082023
:101C200000F038F94FF6FE7801281ED0012200217D
:101C3000372000F02FF901220021292000F02AF995
:101C400001284FD80220307044460122002137205D
:101C500000F020F901220021292000F01BF90500E5
:101C60004DD0641EA4B2F0D249E000246F46FF209C
:101C700000F0D0F83855641CA4B2042CF7D39DF8BA
:101C80000200012843D19DF80300AA283FD1444611
:101C90004FF0804801220021372000F0FBF801229C
:101CA0004146292000F0F6F8050002D0641EA4B2D7
:101CB000F0D2B4B1012200213A2000F0EBF880B953
:101CC0000024FF2000F0A6F83855641CA4B2042CB0
:101CD000F7D39DF80000400601D5062000E004205F
:101CE000307014E00120307044460122002110467B
:101CF00000F0D0F8050002D0641EA4B2F5D22CB1D9
:101D000001225102102000F0C5F800B13770FFF732
:101D100045FF002000F0A4F9307810B10020BDE8A4
:101D2000F8830DB12846FAE7AA20F8E72000002042
:101D30002DE9F0410646184815460078062800D0DF
:101D400049024FF40077012D4FF0010219D0122003
:101D500000F0A0F83946304600F020F86D1E044629
:101D600006F5007615F0FF0501D0002CF2D0012217
:101D700000210C2000F08EF8FFF710FF2046BDE890
:101D8000F081112000F086F80400F5D13946304684
:101D900000F004F80446EFE72000002070B5044688
:101DA0000D46FE20FFF704FF30B1012070BD00BFDB
:101DB00000F02EF904F8010B6D1EADB24FF0FF00DC
:101DC000F6D200F025F9FF2000F022F9002070BDC6
:101DD00038B501210420FFF781FE1C20ADF800007A
:101DE00010208DF803000320084C8DF8020069468E
:101DF0002046FFF731F81C212046FFF7B2F800F02B
:101E0000C9F803490120C1F88C0138BD0008014020
:101E10000000214200F0FCB8002000F021B9382079
:101E200000F01EB9064910B50020C1F88C0100F081
:101E300060F8002802D0FFF7B1FE012010BD0000BD
:101E40000000214270B50C46054600F052F808B17A
:101E5000012070BD204600F0DBF8FD2C18D00024D6
:101E60004FF40076285D00F0D3F8641CA4B2B442AD
:101E7000F8D3FF2000F0CCF8FF2000F0C9F8FF20D5
:101E8000FFF7C8FF00F01F00052801D0022070BD39
:101E9000002070BD70B515460C460646FFF77EFE65
:101EA000FFF7C0FF08B1FF2070BD46F0400000F012
:101EB000AFF8200E00F0ACF8C4F3074000F0A8F82B
:101EC000C4F3072000F0A4F8E0B200F0A1F828461F
:101ED00000F09EF80C2E02D1FF2000F099F81F248C
:101EE000FF20FFF797FF0106DED5641EE4B2F7D2AC
:101EF00070BD70B500246FF07F45FF20FFF78AFFAB
:101F0000FF2804D0641CAC42F7D3012070BD002030
:101F100070BD000070B506461D4815460C46007899
:101F2000062800D04C02012D13D0012809D001222F
:101F300000213720FFF7AEFF012229461720FFF7C7
:101F4000A9FF012221461920FFF7A4FF04000AD0AF
:101F50001AE0012221461820FFF79CFF040013D14C
:101F6000FE2130460DE0FC213046FFF76BFF6D1E71
:101F700006F5007615F0FF0501D00028F3D0FD210D
:101F80000020FFF75FFF0446FFF708FE204670BD04
:101F90002000002038B5012141F20400FFF79EFD2A
:101FA000E020ADF8000018208DF803000320154C48
:101FB0008DF8020069462046FEF74EFFE0212046DC
:101FC000FEF7CFFF104800214FF48272018042805B
:101FD00081800222C2800122028152024281382283
:101FE0008281C18107210182084C0146204600F010
:101FF000C2F90121204600F043F8FF2000F008F864
:1020000038BD0000000801401203002000300140EC
:1020100070B506460024114D03E0641CE4B2C82CE0
:102020000FD80221284600F09BF90028F5D0314650
:10203000284600F09EF9002405E0641CE4B2C82C98
:1020400001D9002070BD0121284600F089F900283F
:10205000F3D0284600F08BF9C0B270BD00300140CB
:1020600006490A8822F038020A800A8802430A8058
:10207000088840F0400008807047000000300140B0
:102080000029018802D041F0400101E021F0400127
:102090000180704710B5064C0020C4F88801062066
:1020A00004F5C474FFF7B4FF0120206010BD0000E8
:1020B0000000214270B50403FFF7ECFF00F0A4F824
:1020C0000C4D0020C5F88801202005F5C475FFF7E8
:1020D0009FFFC4F30740FFF79BFFC4F30720FFF700
:1020E00097FFE0B2FFF794FF01202860BDE8704041
:1020F00000F08AB80000214238B501210420FFF722
:10210000EDFC1C20ADF8000010208DF8030003202A
:102110000A4C8DF8020069462046FEF79DFE1C2100
:102120002046FEF71EFFFFF735FF0820FFF798FF58
:1021300000F036F80249088038BD00000008014070
:102140001E0000202DE9F041074615460C460020F0
:1021500000F02EF9114E0020C6F888010320FFF789
:1021600057FFC4F30740FFF753FFC4F30720FFF7FF
:102170004FFFE0B2FFF74CFF002405E0FF20FFF720
:1021800047FF3855641CA4B2AC42F7D30120C6F80F
:102190008801BDE8F04100F00BB9000000002142C9
:1021A00070B50F4C0025C4F88851902004F5C47414
:1021B000FFF72EFF0020FFF72BFF0020FFF728FF7F
:1021C0000020FFF725FFFF20FFF722FF45EA00254B
:1021D000FF20FFF71DFF28430121216070BD000093
:1021E0000000214210B5074C0020C4F888010520EA
:1021F00004F5C474FFF70CFFFF20FFF709FF01216E
:10220000216010BD000021422DE91040FFF7EAFFD8
:10221000C007FBD110BD2DE9F05F82461546894607
:102220004FF4805001F0F8F807004CD0C9F30B06CA
:10223000C6F580544FEA1938A54200D82C464FEA1B
:1022400008318B464FF480523846FFF77BFF002061
:1022500000F0AEF8002005E03118795CFF2903D1C9
:10226000401C80B2A042F7D3A04220D24046FFF7E4
:1022700021FF002005E01AF800208119401C7A5443
:1022800080B2A042F7D359464FF48052384600F04E
:102290001CF8A5420FD0281BA244A144002685B2F9
:1022A0004FF4805408F10108A542C8D8C6E7224679
:1022B00049465046EBE7012000F07AF83846BDE881
:1022C000F05F01F09FB8BDE8F09F2DE9F0410746AF
:1022D000C8B2C0F580740E461546A24200D8144616
:1022E0004FF4807822463146384600F00DF8A5427A
:1022F00008D0281B2744264485B24446A542F1D87D
:102300002C46EFE7BDE8F0812DE9F04115460C467B
:102310000746FFF7BFFE114E0020C6F888010220D5
:10232000FFF776FEC4F30740FFF772FEC4F3072001
:10233000FFF76EFEE0B2FFF76BFE002404E0385DAD
:10234000FFF766FE641CA4B2AC42F8D30120C6F8C5
:102350008801BDE8F041FFF757BF000000002142AF
:102360000246002012890A4200D00120704780896D
:1023700070478181704730B502884C8802F4415320
:102380000A88CD8822438C882C4322430C8922431F
:102390004C8922438C892243CC8922431A430280F0
:1023A000828B22F400628283098A018230BD0000A0
:1023B00070B5154D134A144C0C3580B101211046EF
:1023C00000F024FB206820F47F402060206840F467
:1023D0000B402060286840F00C00286070BD206829
:1023E00020F47F402060206840F44C502060286832
:1023F00040F00C002860BDE870400021104600F05D
:1024000005BB000000380140000801407047000093
:1024100010B50A4C2068000EFFF76AF82068C0F378
:102420000740FFF765F82088C0F30720FFF760F842
:102430002078BDE81040FFF75BB8000024000020C2
:1024400010B50446000AFFF753F8E0B2BDE81040AB
:10245000FFF74EB810B5EF20FFF74AF8BDE810407F
:102460000120FFF745B810B50446C0F30720FFF779
:102470003FF8E0B2BDE81040FFF73AB80CB50021D4
:10248000264801910091026842F4803202604FF4C4
:10249000A063026802F400320092019A521C019279
:1024A000009A12B9019A9A42F3D10268920333D585
:1024B000012100911A490A6842F010020A600A6874
:1024C00022F003020A600A6842F002020A604168D0
:1024D000416041684160416841F480614160416808
:1024E00021F47C114160416841F4E81141600168C8
:1024F00041F08071016001688901FCD5416821F0DB
:1025000003014160416841F0020141604168C1F34B
:1025100081010229FAD10CBD00910CBD00100240CE
:102520000020024038B50446FEF774FB0246F02056
:10253000009010237821002000F0AAF82046FEF732
:1025400069FB014604A0FDF793FEBDE838404FF457
:102550007A7000F087BB0000257300002DE9FF4F63
:102560001C4693B013460D468946600700D00120F3
:1025700000EBD401614301F0FF0A0C2C03D0102CB6
:1025800001D0182C32D1224669461846FEF7ECFCE1
:10259000002629E01DF80670DFF858B04FF000085B
:1025A000380602D5BBF8002003E0209828B912486D
:1025B000028829461398FEF7E1FD78066D1C070E88
:1025C000ADB2A5EB0900A04205D113984D46401CC1
:1025D00080B2139006E008F1010000F0FF08B8F1A6
:1025E000080FDDD3761CF6B25645D3D317B0BDE83D
:1025F000F08F00001A0000201C0000202DE9F84F89
:102600000D460AA9044691E8C008804630780028A3
:102610001ED0E81808EB020AA0EB07093278802ADE
:1026200018D9AAEB0700A04202DAE81985B244469D
:10263000A9450DDB3B46324629462046CDF800B081
:10264000FFF78CFFE01984B216F8020F0028E5D1DD
:10265000BDE8F88FAAEB5700A04202DAE81985B26C
:102660004446A945F4DB0D2A0CD03B4629462046BA
:10267000CDF800B0FEF7AAFE04EB570084B216F8BE
:10268000010FE3E7E81985B24446761CF4E7000041
:102690002DE9FE4307461C461546884610460A9E0D
:1026A000FDF7B4FF6108414389B201220D48B142F0
:1026B00007D90095CDE90142438802884146384652
:1026C0000BE00095CDE90142711A01EBD17143880D
:1026D000028807EB510080B24146FFF78FFFBDE84B
:1026E000FE830000040300204FF0E0210428086965
:1026F00003D020F004000861704740F00400FAE7BE
:10270000704700000F4810B5016841F001010160F9
:1027100041680D4A1140416001680C4A1140016056
:10272000016821F480210160416821F4FE014160CB
:102730004FF41F018160FFF7A1FE05494FF00060D3
:10274000086010BD001002400000FFF8FFFFF6FE19
:1027500008ED00E010B54FF08044208AC00707D094
:102760000648006980470020A0844FF47A70A08555
:10277000208A20F00100208210BD00000402002009
:1027800010B50B4C0121204600F053F800280ED064
:102790000848018841F4004101800121204600F0F1
:1027A0003BF82046BDE81040002100F038B810BDCD
:1027B00000080040220000207FB50C46054601219C
:1027C0000420FFF773F9ADF80450ADF80040002481
:1027D000104DADF80640ADF802406946284600F0BD
:1027E0003FF801221146284600F02FF80121284623
:1027F00000F015F81E208DF80C008DF80D40022019
:102800008DF80E0001208DF80F0003A8FEF77CFE66
:102810007FBD000000080040C943018270470029C5
:10282000018802D041F0010101E021F001010180A5
:10283000704702460020138A92890B4202EA010285
:1028400002D0002A00D001207047002A828901D0DE
:102850000A4300E08A438281704781847047000008
:1028600030B502881B4B1C4C98420DD0A0420BD0B7
:10287000B0F1804F08D0194DA84205D0184DA8429C
:1028800002D0184DA84203D122F070054A882A438D
:10289000154DA84206D0154DA84203D022F440752C
:1028A000CA882A4302808A8882850A8802859842DB
:1028B0000AD0A04208D00E4A904205D00D4A90425C
:1028C00002D00D4A904201D1097A0186012181820C
:1028D00030BD0000002C01400034014000040040E5
:1028E00000080040000C00400010004000140040B0
:1028F000004001400044014000480140104A08B532
:10290000D36943F00103D3619204908511859089C6
:1029100040F001009081108840F0010010801C20E0
:102920008DF8000003208DF8010002208DF80200D0
:1029300001208DF803006846FEF7E6FD08BD0000A3
:102940000010024070B5154C40F22551204600F0B1
:10295000A1F800280ED0204600F02AF9C2B2104893
:1029600001880B0406D44C044FF0000306D50A2A54
:1029700001D0038070BD41F400410DE00D2A09D063
:10298000C1F30D04074D491C89B22A550180C7299E
:10299000EFD870BD41F48041018070BD0038014026
:1029A0002C0000204406002070B5144C40F2255144
:1029B000204600F06FF8002819D0204600F0F8F803
:1029C0000F4CC5B22088B0F5C87F11D20D4E002142
:1029D0003046FFF742FF208818B901213046FFF743
:1029E0001EFF208808490144401C20800D7070BDE6
:1029F000208840F40040208070BD0000004400406A
:102A000022000020000800402403002000298189C2
:102A100002D041F4005101E021F40051818170475E
:102A2000174910B588420AD101218C032046FFF7CF
:102A300061F82046BDE810400021FFF75BB811495E
:102A4000884202D101214C0410E00F49884202D192
:102A500001218C040AE00D49884202D10121CC04F5
:102A600004E00B4988420AD101210C052046FFF7FA
:102A700029F82046BDE810400021FFF723B810BD1B
:102A8000003801400044004000480040004C004035
:102A90000050004030B501F01F0201240025C1F3B1
:102AA000421304FA02F2012B0FD0022B0FD0838ABB
:102AB0004FEA11210088134204FA01F400EA0400ED
:102AC00001D000B10125284630BD8389F0E7038A93
:102AD000EEE710B5C1F3421301F01F040121A1403C
:102AE000012B07D0022B07D01430002A026805D032
:102AF0000A4304E00C30F8E71030F6E78A4302603E
:102B000010BD000030B50446008A85B00D464CF675
:102B1000FF710840E98801432182A1894EF6F31034
:102B20000140A8882A8910436A890A431043A0817A
:102B3000A08A4FF6FF410840A9890143A182684657
:102B4000FEF7E4FF1948844201D1039800E002989F
:102B5000A189090400EBC00101EB0010296801D52F
:102B6000490000E08900B0FBF1F06422B0FBF2F113
:102B700009010B096FF018056B4300EB8300A38973
:102B80001D044FF0320306D503EBC000B0FBF2F09A
:102B900000F0070005E003EB0010B0FBF2F000F0DE
:102BA0000F000843208105B030BD0000003801400F
:102BB0008088C0F308007047FEE730380A2801D249
:102BC00001207047002070477047000010B5044690
:102BD00000202071401EE062204600F0FBFB08B19F
:102BE000032010BDB4F82E02A0F52A41553901D0BA
:102BF000022010BD94F86600B4F8671040EA012185
:102C00000848B0EB012F08D094F88210B4F8832064
:102C100041EA0221B0EB012F01D1002010BD0120BB
:102C200010BD00000046415410B56FF00400FFF7DE
:102C30005BFD094809490068B0FBF1F0C1B20848E2
:102C400001EB41020170C2EBC1114FF6FF7202EAC3
:102C5000C101418010BD00000400002000127A0074
:102C6000280000200B49498848434FF0E021486183
:102C700000228A61086940F0010008610869C30701
:102C800001D0C003FAD5086920F0010008618A610B
:102C9000704700002800002010B510B101280AD1AB
:102CA0000BE0FEF799FF98B1FFF7B9F8FF20FFF7A7
:102CB000B1F8FFF7B1F8012010BDFFF71DFA074882
:102CC00001880748A1F56F42163A03D00021018020
:102CD000002010BD42F26861F9E700001E000020EC
:102CE000A80100202DE9F0411C0015460E4603D036
:102CF00028B1012816D11BE00420BDE8F081002096
:102D0000FFF756FBE2B229463046FFF711F858B1FB
:102D1000FFF785F8FF20FFF77DF8FFF77DF801202A
:102D2000FFF746FB0120E8E70120FFF741FB0CE03D
:102D30004FF4007769023A463046FFF703FA641E03
:102D400005F1010506F50076F4D10020D5E7002055
:102D500070472DE9F0411C0015460E4603D028B1FE
:102D6000012810D111E00420BDE8F0810020FFF718
:102D70001FFBE2B229463046FFF7CCF8044601209B
:102D8000FFF716FB74B10120EEE74FF400776902FC
:102D90003A463046FFF73FFA641E05F1010506F595
:102DA0000076F4D10020DFE770B54FF40C752846AB
:102DB00000F032FB114C2060284600F02DFB4FF450
:102DC0000A766060304600F027FBA4F10C0528600D
:102DD000304600F021FB68604FF4007000F01CFBEF
:102DE000A860216841B1616831B1296821B1696881
:102DF00011B108B1002070BD012070BD6800002035
:102E000017B581B0144602980090684600F046F964
:102E1000002802DA0B2004B010BD0B4A002352F840
:102E2000201001B10B700199002900D00B7042F8FD
:102E3000201001D0012C01D00020ECE7002202A9D3
:102E400001A800F003F8E6E7B00100202DE9FF47F4
:102E50004FF000090746C0F800901646084600F0FB
:102E60001DF9050003D50B2004B0BDE8F0878248AA
:102E700050F825408CB13C60207820B16078FFF795
:102E800066FFC1070BD084F80090E8B26070FFF7CE
:102E900003FFC10708D00320E6E70C20E4E70EB1EA
:102EA000400704D40020DFE71EB1400701D50A2007
:102EB000DAE7002529462046FFF788FE012822D1BF
:102EC00000206F4604EB001191F8F22101F5F77133
:102ED0002AB10A7AD1F8091042EA012100E0002162
:102EE00047F82010401C0428ECD3002657F8265041
:102EF0002DB129462046FFF769FE08B909E00220F6
:102F0000761C042EF2D3032801D0E8BB01E0012097
:102F1000AAE7B4F83B00B0F5007F5CD1B4F84620D6
:102F20002AB994F85400D4F8551040EA0122A2615D
:102F300094F84010E170012901D002294BD194F896
:102F40003D005143A070F8B1431E184243D1B4F87C
:102F5000413023811E073ED1B4F843602EB994F866
:102F60005060D4F8517046EA0726B4F83EC0BCF170
:102F7000000F30D00CEB010707EB1317BE422AD32A
:102F8000F61BB6FBF0F000E025E020B3012640F68A
:102F9000F678404500D302264FF6F678404500D338
:102FA0000326801C2F44A762AC446061C4E9075C1F
:102FB000032E12D07BB161446162022E18D000F062
:102FC000010100EB400001EB500000BF00F2FF10D8
:102FD000B2EB502F0ED20D2046E7002BFBD194F818
:102FE0005C10D4F85D30800041EA03216162EDE7B6
:102FF0004000EBE74FF0FF302061E060802060711F
:10300000032E30D1B4F8600001282CD12046691C71
:1030100000F0E0F938BB84F80590B4F82E02A0F572
:103020002A4155391FD194F83000D4F8311040EAC4
:1030300001201249884216D194F81402D4F81512CE
:1030400040EA01200E4988420DD194F81802D4F8C4
:10305000191240EA0120206194F81C02D4F81D12D4
:1030600040EA0120E06004492670091F0888401CDE
:103070000880E08016E70000B00100205252614154
:103080007272416104490A885206FCD5024AC1B2F3
:10309000121D1180704700000038014010B5044631
:1030A0004FF0FF302268002A13D0114600E0491C7F
:1030B0000B78202B0ED33A2BF9D112F8013B303B81
:1030C0000A2B06D28A4204D1022B02D2491C18468E
:1030D000216010BD002010BD4FF4A060FEF746FA3D
:1030E000FFF7A2FD4FF4E13000F020FA4FF4614504
:1030F000284600F06BFAFEF71BFCFDF7B9FF00F065
:103100000FF9FFF751FE3A4801223AA14068FFF754
:1031100077FE39494FF47840088038A0FDF7A8F8C9
:103120003EA0FDF7A5F841A0FDF7A2F84FF47A7490
:103130000BE045A0FDF79CF82046FFF793FD4AA061
:10314000FDF796F82046FFF78DFD4E48FEF780FA12
:103150000028EED14CA0FDF78BF81E2000F05CF9A2
:10316000044648482A464DA103682046FDF78CF8DE
:10317000214650A0FDF77CF86420FFF773FD4E4810
:10318000FEF716FC08B1FFF7CDF94C48FEF7F2FA4E
:1031900070B1FFF7C7F9204600F034F9484C002021
:1031A000FDF796FFE8B1012816D0022817D018E0E5
:1031B00032220021204600F03DF940483E49837804
:1031C00000880988421A3FA12046FDF75DF8214694
:1031D00038A0FDF74DF8DEE7FDF770FC01E0FDF7E4
:1031E0000DFBD4F818010028D9D000F02BF9D6E750
:1031F00068000020313A00001A00002041533630A8
:10320000382046696E6765727072696E74206D6FE2
:1032100064756C6520746573740D0A00417574687B
:103220006F723A2053594D0D0A000000436F6E6EC5
:1032300065637420776974682041533630382E2EC8
:103240002E2E2E0D0A00000043616E6E6F742063F7
:103250006F6E6E65637420776974682041533630F1
:1032600038210D0A0000000054727920746F206329
:103270006F6E6E65637420616761696E2E2E2E2EEF
:103280000D0A000024000020436F6E6E65637420F9
:1032900053756363657373210D0A000042617564A1
:1032A000726174653A2564202020416464723A2575
:1032B000780000002573000000000020F8020020C4
:1032C0000000214252656D61696E4E756D3A25644C
:1032D000202020204C6576656C3A256400000000B3
:1032E00070B50E490A7C4AB1B0F50C4F13D24209B1
:1032F000C86830F812300020044608E008688047AB
:10330000012070BDCD681618401C25F81640984263
:10331000F8DB002070BD022070BD000048000020D6
:1033200010B5084C4FF40C620021E06800F082F800
:103330004FF40C420021A06800F07CF801202074BA
:1033400010BD00004800002070B5154C0646002551
:10335000207C08B9206880474FF0FF33F6B1C6F3F0
:103360004F11F00601D0491C89B2E26840F25F407B
:1033700032F8106026B100258D420DD1002207E001
:103380006D1CADB2F8E7E3688518521C23F81510E0
:103390008A42F8D3400170BD401EE9D5184670BD81
:1033A000480000200A4A10B50021D26808464FF4B0
:1033B0008C6300BF32F8104004B1491C401C984295
:1033C000F8D364204143B1FBF3F0C0B210BD00005C
:1033D0004800002070B50446C06A0D46A8420ED0D1
:1033E000204600F07BF838B9607801232A4604F1C2
:1033F0003001FFF777FC08B1012070BDE5620020C5
:1034000070BD0000002804D002498968401AFFF707
:1034100067BF70474800002010B5FFF795FF411CBB
:1034200003D003498968084410BD002010BD000086
:103430004800002002E000BF00F8011B521EFBD232
:103440007047000038B5FEF7E8F8002812D10120D7
:10345000FEF7C5F838B96B464FF49672002101208B
:10346000FEF72CF938B1FFF75DF800BF4FF47A7022
:10347000FFF7F8FB38BD0BA0FCF7FAFE3220FFF790
:10348000CBFF0446BDF80230BDF8002009A1FCF7CF
:10349000FBFE21460EA0FCF7EBFE2046FFF7B2FF35
:1034A000E4E70000CBD1CBF7D6B8CEC6B3C9B9A6F6
:1034B0000D0A00004D617463682049443A25642078
:1034C000204D617463682073636F72653A256400F0
:1034D00025730D0A00000000006870472DE9F041D7
:1034E0000446007900B3E56A04F1300160780123F5
:1034F0002A460F46FFF72DFC10B10120BDE8F081F0
:1035000000202071206AA169281A88420CD2E6782E
:1035100008E0A0690123054460782A463946FFF790
:1035200018FC761E022EF4D20020E7E770B505469F
:1035300086B0012144F20400FEF7D0FA4FF4007087
:10354000ADF8100003248DF8124018201D4E8DF8A0
:10355000130004A93046FDF77FFC3015ADF81000CC
:1035600004208DF8130004A93046FDF775FC2520D2
:103570008DF814008DF815408DF8164001208DF857
:10358000170005A8FDF7C0FF0020ADF80400ADF856
:103590000600ADF80800ADF80C000C200A4CADF8A0
:1035A0000A00009569462046FFF7ACFA012240F276
:1035B00025512046FFF78DFA01212046FFF726FA14
:1035C00006B070BD000801400038014070B50446E7
:1035D00086B001210420FEF781FA01214804FEF79C
:1035E00065FA284E3046FFF71BFA0420ADF81000AC
:1035F00003258DF8125018208DF8130004A92248D5
:10360000FDF72AFC0820ADF8100048208DF81300C3
:1036100004A91E48FDF720FC00940024ADF80840E2
:103620000C20ADF80440ADF80A00ADF80640ADF846
:103630000C4069463046FFF765FA01213046FFF736
:10364000E5F9012240F225513046FFF742FA2620E3
:103650008DF8140002208DF815008DF81650012009
:103660008DF8170005A8FDF74FFF41F61F416320B5
:10367000FFF7A2F80648048000210648FFF7CFF8BC
:1036800006B070BD0044004000080140000C01403D
:10369000220000200008004070B596B0054614AB2B
:1036A00001AA03A900F0DAF9002824D18DF84C0012
:1036B0001D4C042615E000BF216806EBC00014ABCA
:1036C00008586A460BA900F0C9F9002813D103A9CC
:1036D0000BA800F0E6FB80B19DF84C00401C8DF873
:1036E0004C00217DC0B28142E6D8207D9DF84C106F
:1036F00088420ED1042016B070BD9DF800009DF8E0
:103700000410884201D90220F5E79DF84C00A0750D
:10371000EBE713A9284600F059FA0028EBD19DF8F1
:103720004C0060750020E6E7040200202DE9F0411E
:103730007F4C00269AB0A57D207DA8427CD904212B
:10374000206801EBC50119AB405810AA11A900F07F
:1037500085F911A977A0FCF78BFD00270DF118085A
:1037600032E0208B0121B940084217D0222173A0FA
:10377000FCF77EFD384600F093FA011970A0243161
:10378000FCF776FD22216DA0FCF772FD384600F0B3
:1037900087FA2044243048F827000BE0384600F030
:1037A0007FFA2044416A48F82710E07D00B365A005
:1037B000FCF75EFD9DF84000401E874202D063A0EA
:1037C000FCF756FD7F1CFFB29DF840008742C8D32E
:1037D0005FA0FCF74DFD00F0A5FA607D0B2814D228
:1037E000DFE800F0080D31384048525E6B78880001
:1037F00058A0DDE7206850F83500804704E02068D5
:1038000050F8351006988847064600F05BFA9DF898
:10381000640001287DD050A0FCF72AFD94F8EC004C
:1038200000280DD0D4F8F0100A20B1FBF0F200FB14
:103830001212B1FBF0F100E002E048A0FCF718FD25
:103840001AB0BDE8F081206850F83520DDE90601A6
:103850009047D9E7206806AE50F8353096E8070063
:103860009847D1E7206806AE50F8355096E80F002B
:10387000A847C9E70A980090206806AE50F835506E
:1038800096E80F00A847BFE7DDE90A01CDE900018E
:10389000206806AE50F8355096E80F00A847B3E709
:1038A0000AAB06AE93E807008DE80700206850F8E1
:1038B000355096E80F00A847A6E70AAE96E80F0035
:1038C0008DE80F00206806AE50F8355096E80F00DE
:1038D000A84799E70BAE96E80F0001AE86E80F0007
:1038E0000A980090206806AE50F8355096E80F0010
:1038F000A84789E70CAE96E80F0002AE86E80F00F5
:10390000DDE90A01CDE90001206806AE50F8355026
:1039100000E003E096E80F00A84775E7E07D314638
:1039200018B116A0FCF7A4FC78E717A0FAE700008E
:10393000040200200D0A2573280000002563000002
:103940002573000030582558000000002C000000AE
:1039500029000000256C75003B0D0A0046756E635A
:1039600074696F6E2052756E2054696D653A2564D6
:103970002E2531646D730D0A000000000D0A3D30E4
:103980005825583B0D0A00003D256C753B0D0A007B
:10399000F0B50446002007460646054623782C2B42
:1039A00003D0292B04D01BB103E015B9012700E097
:1039B00065B31EB1222B27D047BB2BE0A3F1300CFF
:1039C000BCF1090F15D9A3F1610CBCF1050F10D999
:1039D000A3F1410CBCF1050F0BD9582B09D0782B62
:1039E00007D0222B0CD0202B1DD02C2B1BD0FF2638
:1039F0000CE05FB9612B00D3203B01F8013B12E0E2
:103A000027B9012635460EE0002567B100230B706B
:103A10001670F0BD3DB15C2B02D1401CC0B2641CDD
:103A2000237801F8013B401CC0B2641CB6E730B5F6
:103A3000002515700AE001F8014B1478401C641C45
:103A4000E4B214709C4201D3012030BD0478202CD4
:103A500001D0002CEFD10D70002030BD2DE9FF4FBB
:103A6000002582B0984604462F462E464FF0010BA3
:103A7000AA462A46A94615E0202910D002F07F0365
:103A8000052B0CD202B9802202F07F03042B01D156
:103A90002A290AD1521C0DF80310D2B201E0852A5E
:103AA00004D0401C01780029E6D162B102F07F0207
:103AB00044A10DF80290684600F0F3F938B10121F5
:103AC00088F8001000224FF00008234614E088F820
:103AD0000090F7E708F1010000F0FF0813F8010F6C
:103AE000202801D02A2807D1184600F07FF928287D
:103AF00002D02A2800D047461878282801D000286C
:103B0000E8D10FB13C44641C00273946207888B1C5
:103B1000282804D0292806D022280FD010E079B90F
:103B20006D1CEDB20CE059B925B16D1E15F0FF0505
:103B300001D00CE00127012E32D039E049B100213B
:103B40004DB12C280FD020281FD028281DD07AB1A5
:103B500017E00121F4E7202820D0039B1870039878
:103B6000401C03901AE0521C4FF0010BD2B20CE043
:103B7000BAF1050F05D20DF80A000AF1010000F0B4
:103B8000FF0A0BF1010000F0FF0B012D06D1BBF184
:103B9000020F03D1761C4FF0030BF6B2641CB5E79D
:103BA0000DF80A9007A1684600F07BF900B90026DD
:103BB00004980670039880F8009006B03846BDE877
:103BC000F08F0000766F6964000000002DE9F0437B
:103BD00000248946314DB5B0214622466B18491C58
:103BE000C9B29A760A29F9D303E000BF10F8011F81
:103BF00091B101782829F9D1461C012733AA6946D9
:103C00003046FFF7C5FE06449DF8CC0040B10128C0
:103C100024D0FF2839D10BE0012035B0BDE8F08376
:103C20009DF8000080B334A9684600F0E7F808B1B9
:103C30000220F2E7204600F033F82844349941622C
:103C4000288B07FA04F188432883042029198876F1
:103C5000641CE4B20A2C18D90320DEE7684600F0A1
:103C600035F900F10108204600F01AF841196846BC
:103C7000243100F022F9288B07FA04F108432919AE
:103C8000288381F81A80E3E7FFE73078292801D0FC
:103C90000028B3D189F800400020BEE704020020CC
:103CA000024610B500200146054B05E05C18491C92
:103CB000A47EC9B22044C0B29142F7D310BD000027
:103CC000040200204FF08040018ACA070649D1F85B
:103CD000F02004D04FF6FF731A44C1F8F020808C16
:103CE0001044C1F8F00070470402002000EBC0014E
:103CF00001EB00104FF0FF3101EB800010B581B2F5
:103D00004FF47A70FEF7FAFD01490120C87510BD25
:103D1000040200200246012000E05043491EC9B2BF
:103D2000FBD270474FF08040018A21F001010182EF
:103D30004FF6FF718185002181840248C0F8F010A0
:103D400070470000040200202DE9F041164D28883C
:103D5000010426D51549C0B2154F00260E54B96886
:103D60001248884704000FD0104800F0B9F8012825
:103D700001D0040014D0012C09D0022C09D0032C4E
:103D800009D0042C0CD108E0F868804708E009A0AD
:103D900004E00BA002E00DA000E00FA0FCF768FA21
:103DA0002E80BDE8F08100002C0000204406002099
:103DB00004020020BAAFCAFDB4EDCEF3210D0A0013
:103DC000B2CECAFDB4EDCEF3210D0A00B2CECAFDCB
:103DD000CCABB6E0210D0A00CEB4D5D2B5BDC6A598
:103DE000C5E4B5C4BAAFCAFD210D0A0010F8011F21
:103DF000202901D10028F9D1C8B270472DE9F0413E
:103E00000E4600244FF00A08014634600A78A2F1F9
:103E10003003092B0DD9113B052B0AD9582A05D09F
:103E200012F0FF0F0DD00120BDE8F081012C02D06F
:103E3000F9E7412A01D34FF01008641CE4B2491C91
:103E4000E4E70546B8F1100F01D084B112E0032C6D
:103E500001D20220E8E72878302802D16878582873
:103E600001D00320E0E7A41EE4B2AD1C01E0042071
:103E7000DAE70CB1641EE4B2287807463038092826
:103E800001D8074600E0373F21464046FFF742FF92
:103E9000316807FB0010306015F8010F0028E8D1E9
:103EA000C2E702780B789A4201D00120704712B124
:103EB000401C491CF5E70020704702780A70027820
:103EC000002A02D0401C491CF7E770470021027805
:103ED0001AB1491CC9B2401CF9E7084670470000F6
:103EE000F0B58DB004461E236A4602A9FFF79FFD78
:103EF0000190002872D19DF80000271800263E4C42
:103F00008DF800609DF8000054F8201002A8FFF71B
:103F1000C8FF38B19DF80000401CC0B28DF8000009
:103F20000728EFD39DF800000425344C072855D20C
:103F3000DFE800F00404395A605F5E0030A0FCF74F
:103F400097F930A0FCF794F93EA0FCF791F94DA049
:103F5000FCF78EF95BA0FCF78BF96AA0FCF788F9F7
:103F600078A0FCF785F985A0FCF782F98AA0FCF718
:103F70007FF98FA0FCF77CF993A0FCF779F998A062
:103F8000FCF776F99DA0FCF773F9A3A0FCF770F994
:103F9000AFA0FCF76DF9BCA0FCF76AF9C7A0FCF76D
:103FA00067F9D3A01BE016A0FCF762F9E0A0FCF7CC
:103FB0005FF98DF800600BE0216805EBC00009583F
:103FC000EBA0FCF755F99DF80000401C8DF80000AF
:103FD000217D9DF800008142EED84EE24FE2FCF7D1
:103FE00047F900200DB0F0BD05A0FCF741F9C3E191
:103FF00024E204E2E3E10000B80100200402002012
:104000000D0A00002D2D2D2D2D2D2D2D2D2D2D2D7D
:104010002D2D2D2D2D2D2D2D2D2D2D2D55534D414E
:1040200052542056332E312D2D2D2D2D2D2D2D2D4D
:104030002D2D2D2D2D2D2D2D2D2D2D2D2D2D2D20BD
:104040000D0A00002020202055534D415254CAC76C
:10405000D3C9414C49454E54454BBFAAB7A2B5C43C
:10406000D2BBB8F6C1E9C7C9B5C4B4AEBFDAB5F7BB
:10407000CAD4BBA5BDBBD7E9BCFE2CCDA8B9FD20D9
:104080000D0A0000CBFC2CC4E3BFC9D2D4CDA8B923
:10409000FDB4AEBFDAD6FACAD6B5F7D3C3B3CCD027
:1040A000F2C0EFC3E6B5C4C8CEBACEBAAFCAFD2CD3
:1040B000B2A2D6B4D0D02ED2F2B4CB2CC4E3BFC9B6
:1040C0000D0A0000D2D4CBE6D2E2B8FCB8C4BAAF35
:1040D000CAFDB5C4CAE4C8EBB2CECAFD28D6A7B3A0
:1040E000D6CAFDD7D62831302F3136BDF8D6C629ED
:1040F000A1A2D7D6B7FBB4AEA1A2BAAFCAFDC8EB96
:104100000D0A0000BFDAB5D8D6B7B5C8D7F7CEAA22
:10411000B2CECAFD292CB5A5B8F6BAAFCAFDD7EE06
:10412000B6E0D6A7B3D63130B8F6CAE4C8EBB2CE03
:10413000CAFD2CB2A2D6A7B3D6BAAFCAFDB7B52076
:104140000D0A0000BBD8D6B5CFD4CABE2ED0C2D47B
:10415000F6B2CECAFDCFD4CABEBDF8D6C6C9E8D61F
:10416000C3B9A6C4DC2CD0C2D4F6BDF8D6C6D7AA33
:10417000BBBBB9A6C4DC2E0D0A000000BCBCCAF54E
:10418000D6A7B3D63A7777772E6F70656E6564766B
:104190002E636F6D0D0A000055534D415254D3D01C
:1041A00037B8F6CFB5CDB3C3FCC1EE3A0D0A000067
:1041B0003F3A202020202020BBF1C8A1B0EFD6FA42
:1041C000D0C5CFA20D0A000068656C703A2020208F
:1041D000BBF1C8A1B0EFD6FAD0C5CFA20D0A00003E
:1041E0006C6973743A202020BFC9D3C3B5C4BAAF79
:1041F000CAFDC1D0B1ED0D0A0A00000069643A2081
:1042000020202020BFC9D3C3BAAFCAFDB5C44944DA
:10421000C1D0B1ED0D0A0A006865783A202020204F
:10422000B2CECAFD3136BDF8D6C6CFD4CABE2CBA7E
:10423000F3B8FABFD5B8F12BCAFDD7D6BCB4D6B403
:10424000D0D0BDF8D6C6D7AABBBB0D0A0A00000065
:104250006465633A20202020B2CECAFD3130BDF81B
:10426000D6C6CFD4CABE2CBAF3B8FABFD5B8F12B94
:10427000CAFDD7D6BCB4D6B4D0D0BDF8D6C6D7AA5E
:10428000BBBB0D0A0A00000072756E74696D653A59
:10429000312CBFAAC6F4BAAFCAFDD4CBD0D0BCC6AD
:1042A000CAB13B302CB9D8B1D5BAAFCAFDD4CBD046
:1042B000D0BCC6CAB13B0D0A0A000000C7EBB0B4BF
:1042C000D5D5B3CCD0F2B1E0D0B4B8F1CABDCAE410
:1042D000C8EBBAAFCAFDC3FBBCB0B2CECAFDB2A236
:1042E000D2D4BBD8B3B5BCFCBDE1CAF82E0D0A00D0
:1042F0002D2D2D2D2D2D2D2D2D2D2D2D2D2D2D2DEE
:104300002D2D2D2D2D2D2D2D2D2D414C49454E542E
:10431000454B2D2D2D2D2D2D2D2D2D2D2D2D2D2D97
:104320002D2D2D2D2D2D2D2D2D2D2D200D0A000067
:104330002D2D2D2D2D2D2D2D2D2D2D2D2D2D2D2DAD
:104340002D2D2D2D2D2D2D2D2DBAAFCAFDC7E5B547
:10435000A52D2D2D2D2D2D2D2D2D2D2D2D2D2D2D15
:104360002D2D2D2D2D2D2D2D2D2D2D2D200D0A00FA
:1043700025730D0A0000000042A0FBF779FF8DF8BD
:10438000006016E0216805EBC0000BAB08580AAAD4
:1043900002A9FFF763FB9DF80010206850F8312058
:1043A00002A948A0FBF764FF9DF80000401C8DF8AF
:1043B0000000217D9DF800008142E3D85DE0AFF26E
:1043C000C030FBF755FF6A4602A93846FFF7E0FA0E
:1043D0009DF80000002843D101A902A8FFF70EFDB7
:1043E0008DF8000010B104283AD102E03AA00199FA
:1043F0001CE03CA0FBF73CFF0120E0753DE038A04D
:10440000FBF736FF6A4602A93846FFF7C1FA9DF866
:10441000000028BB01A902A8FFF7F0FC8DF80000FE
:1044200010B104281CD104E033A00199FBF720FF50
:1044300023E034A0FBF71CFFE6751EE028A0FBF785
:1044400017FF6A4602A93846FFF7A2FA9DF8000056
:1044500030B901A902A8FFF7D1FC8DF8000008B11E
:104460000220BFE5019810F0FF0084F8EC0001D0B5
:1044700029A000E02FA0FBF7FBFE19A0AFE501206B
:10448000B0E500002D2D2D2D2D2D2D2D2D2D2D2D7B
:104490002D2D2D2D2D2D2D2D2D2D2D2D2DBAAFCAA0
:1044A000FD204944202D2D2D2D2D2D2D2D2D2D2D53
:1044B0002D2D2D2D2D2D2D2D2D2D2D2D2D2D2D2D2C
:1044C000200D0A0025732069642069733A0D0A30B3
:1044D00058253038580D0A004845583A3058255864
:1044E0000D0A00003136BDF8D6C6B2CECAFDCFD413
:1044F000CABE210D0A0000004445433A256C750DE3
:104500000A0000003130BDF8D6C6B2CECAFDCFD405
:10451000CABE210D0A00000052756E2054696D65F7
:104520002043616C63756C6174696F6E204F4E0D32
:104530000A00000052756E2054696D652043616C5D
:1045400063756C6174696F6E204F46460D0A0000FA
:104550000160704700000000000000000000000043
:10456000000000003F40000000000000000030009C
:10457000400030004000000009000BC03D000BC0AF
:104580003D00090018C024407FE022403180000037
:10459000180024C01B000D803240018003801C40A5
:1045A00027401C8007400040100060000000000011
:1045B000000000000000000000001F80204040209C
:1045C0000000402020401F8000000000090006007D
:1045D0001F80060009000000040004003F80040062
:1045E0000400000000100060000000000000000057
:1045F0000400040004000400040000000000004067
:104600000000000000000000002001C0060038008B
:10461000400000001F802040204020401F800000FC
:10462000000010403FC000400000000018C02140C2
:1046300022402440184000001080204024402440A4
:104640001B80000002000D0011003FC0014000006F
:104650003C80244024402440238000001F802440CC
:1046600024403440038000003000200027C0380080
:10467000200000001B802440244024401B800000B8
:104680001C0022C0224022401F80000000000000C9
:10469000084000000000000000000000046000006E
:1046A00000000000000004000A00110020804040CB
:1046B000090009000900090009000000000040404D
:1046C000208011000A00040018002000234024006C
:1046D000180000001F802040274029401F40000094
:1046E000004007C039000F0001C0004020403FC01B
:1046F000244024401B8000001F8020402040204098
:104700003080000020403FC0204020401F8000003B
:1047100020403FC024402E4030C0000020403FC019
:1047200024402E00300000000F0010802040224066
:104730003380020020403FC0040004003FC02040FE
:10474000204020403FC0204020400000006020204A
:1047500020203FC02000200020403FC024400B000C
:1047600030C0204020403FC020400040004000C0FA
:104770003FC03C0003C03C003FC0000020403FC0A1
:104780000C4023003FC020001F80204020402040DC
:104790001F80000020403FC024402400180000007B
:1047A0001F802140214020E01FA0000020403FC08A
:1047B0002440260019C0004018C024402440224054
:1047C00031800000300020403FC020403000000019
:1047D00020003F80004000403F80200020003E003D
:1047E00001C0070038002000380007C03C0007C0A7
:1047F00038000000204039C0060039C020400000C9
:104800002000384007C0384020000000304021C060
:104810002640384020C00000000000007FE040201B
:1048200040200000000070000C00038000400000E9
:104830000000402040207FE0000000000000200039
:1048400040002000000000000010001000100010C8
:1048500000100010000000004000000000000000F8
:10486000000002800540054003C0004020003FC01A
:104870000440044003800000000003800440044022
:104880000640000000000380044024403FC0004078
:104890000000038005400540034000000000044084
:1048A0001FC0244024402000000002E005500550B5
:1048B0000650042020403FC00440040003C00040D4
:1048C0000000044027C0004000000000001000105D
:1048D000041027E00000000020403FC00140070016
:1048E00004C00440204020403FC000400040000081
:1048F00007C0040007C0040003C00000044007C054
:104900000440040003C00040000003800440044051
:1049100003800000041007F00450044003800000EE
:10492000000003800440045007F00010044007C05A
:10493000024004000400000000000640054005405D
:1049400004C00000000004001F800440004000007C
:10495000040007800040044007C000400400070036
:1049600004C0018006000400060001C0070001C069
:1049700006000000044006C0010006C0044000001C
:104980000410071004E00180060004000000044049
:1049900005C00640044000000000000004007BE069
:1049A00040200000000000000000FFF000000000B8
:1049B000000040207BE00400000000004000800078
:1049C0004000200020004000000000000000000027
:1049D00000000000000000000000000000001FCCEC
:1049E000000C000000000000000008003000600023
:1049F0000800300060000000022003FC1E2002209E
:104A000003FC1E200220000000000E1811043FFFCE
:104A100010840C78000000000F0010840F3800C0D4
:104A2000077818840078000000780F8410C41124DF
:104A30000E9800E400840008080068007000000080
:104A4000000000000000000000000000000007E07F
:104A5000181820044002000000004002200418182A
:104A600007E00000000000000240024001800FF05B
:104A700001800240024000000080008000800FF8AA
:104A800000800080008000000001000D000E00008A
:104A90000000000000000000000000800080008096
:104AA00000800080008000800000000C000C0000EE
:104AB0000000000000000000000000060018006078
:104AC0000180060018002000000007F0080810040C
:104AD0001004080807F000000000080408041FFC88
:104AE000000400040000000000000E0C101410244C
:104AF000104411840E0C000000000C181004110466
:104B0000110412880C700000000000E0032004244F
:104B100008241FFC0024000000001F9810841104CA
:104B20001104108810700000000007F008881104BC
:104B3000110418880070000000001C00100010FC18
:104B400013001C001000000000000E3811441084F7
:104B5000108411440E38000000000700088C104437
:104B60001044088807F00000000000000000030C5B
:104B7000030C00000000000000000000000101061E
:104B80000000000000000000000000800140022042
:104B90000410080810040000022002200220022055
:104BA0000220022002200000000010040808041067
:104BB000022001400080000000000E001200100CD6
:104BC000106C10800F00000003E00C1813E4142494
:104BD00017C4082807D000000004003C03C41C4090
:104BE000074000E4001C000410041FFC1104110421
:104BF00011040E880070000003E00C18100410046B
:104C0000100410081C10000010041FFC10041004F5
:104C10001004080807F0000010041FFC1104110420
:104C200017C410040818000010041FFC1104110020
:104C300017C010000800000003E00C181004100456
:104C400010441C780040000010041FFC10840080F9
:104C5000008010841FFC10040000100410041FFCCE
:104C600010041004000000000003000110011001F6
:104C70001FFE10001000000010041FFC1104038030
:104C80001464181C1004000010041FFC100400041D
:104C900000040004000C000010041FFC1F0000FCB6
:104CA0001F001FFC1004000010041FFC0C04030074
:104CB00000E010181FFC100007F008081004100492
:104CC0001004080807F0000010041FFC1084108076
:104CD000108010800F00000007F008181024102426
:104CE000101C080A07F2000010041FFC1104110038
:104CF00011C011300E0C000400000E1C11041084B1
:104D0000108410441C3800001800100010041FFC10
:104D1000100410001800000010001FF81004000418
:104D2000000410041FF8100010001E0011E0001C09
:104D3000007013801C0010001FC0103C00E01F001A
:104D400000E0103C1FC000001004180C163401C015
:104D500001C01634180C100410001C00130400FCD1
:104D600013041C00100000000804101C10641084C0
:104D700013041C04101800000000000000007FFE57
:104D80004002400240020000000030000C0003809E
:104D90000060001C000300000000400240024002CE
:104DA0007FFE000000000000000000002000400026
:104DB000400040002000000000010001000100014F
:104DC000000100010001000100004000400020003F
:104DD00000000000000000000000009801240144D1
:104DE0000144014400FC000410001FFC0088010481
:104DF00001040088007000000000007000880104B9
:104E00000104010400880000000000700088010413
:104E1000010411081FFC0004000000F801440144D3
:104E20000144014400C800000000010401040FFC1B
:104E30001104110411001800000000D601290129F5
:104E4000012901C90106000010041FFC00840100B3
:104E50000100010400FC000400000104190419FC15
:104E60000004000400000000000000030001010134
:104E7000190119FE0000000010041FFC002400406E
:104E800001B4010C010400000000100410041FFC18
:104E90000004000400000000010401FC0104010002
:104EA00001FC0104010000FC010401FC008401007C
:104EB0000100010400FC0004000000F801040104EA
:104EC0000104010400F80000010101FF0085010454
:104ED00001040088007000000000007000880104D8
:104EE0000104010501FF00010104010401FC00842B
:104EF0000104010001800000000000CC0124012415
:104F0000012401240198000000000100010007F8BD
:104F10000104010400000000010001F80004000485
:104F20000004010801FC0004010001800170000C74
:104F3000001001600180010001F0010C003001C08F
:104F40000030010C01F0010000000104018C00742C
:104F50000170018C01040000010101810171000E4A
:104F6000001801600180010000000184010C01347F
:104F700001440184010C000000000000000000005A
:104F800001003EFC40024002000000000000000062
:104F9000FFFF0000000000000000400240023EFC55
:104FA00001000000000000000000600080008000A0
:104FB0004000400020002000000000000000000031
:104FC00000000000000000000000000000000000E1
:104FD00000000000000000000000000000000000D1
:104FE00000000000000000000000000F80380FFEED
:104FF000380F8038000000000000000000000000B2
:105000000000000000000100000600000C00003855
:1050100000003100000600000C00003800003000E5
:10502000000000000000000061800067F807F980C0
:105030000061800061800061800061800067F80786
:10504000F98000618000000000000000000001C045
:10505000E003E0F00630080418081FFFFE040E0805
:105060000787F00381E000000000000001F0000667
:105070000C00040408060C7001F9C0000E00003B8F
:10508000E000EC18070808040C180003E00000001A
:105090000001E00007F003F818041C0804170807D3
:1050A000E1D003C0E00023B0003C0800200800006D
:1050B000100000000000000100003100003200007C
:1050C0001C000000000000000000000000000000C4
:1050D00000000000000000000000000000000000D0
:1050E00000000000000000007F0001FFC00780F00A
:1050F0000C00181000042000020000000000002036
:1051000000021000040C00180780F001FFC0007FAF
:10511000000000000000000000000000000000008F
:10512000000000004200006600006600003C000035
:10513000180003FFC0001800003C00006600006675
:105140000000420000000000080000080000080005
:1051500000080000080001FFC0000800000800006F
:105160000800000800000800000000000001000026
:105170003100003200001C000000000000000000B0
:10518000000000000000000000000000000000001F
:1051900008000008000008000008000008000008DF
:1051A00000000800000800000800000800000000DF
:1051B0000000000000000000380000380000380047
:1051C00000000000000000000000000000000000DF
:1051D0000000000000000000000600001C0000703D
:1051E000000180000E0000380000C0000700001C15
:1051F0000000300000000000000000007F8001FF80
:10520000E003807006001804000804000806001877
:1052100003807001FFE0007F8000000000000000BC
:10522000000001000801000801000803FFF807FF63
:10523000F80000080000080000080000000000005E
:1052400000000001C03802C058040098040118048E
:105250000218040418061C1803F81801E0F80000EE
:105260000000000000000001C0E003C0F0040008DE
:1052700004080804080806180803F41801E7F000F9
:1052800001E0000000000000000000000300000D2D
:105290000000110000610000810803010807FFF809
:1052A0000FFFF800010800010800000000000000E6
:1052B00000E007FCD00608080610080610080610D3
:1052C00008061838060FF00607C0000000000000AE
:1052D000000000003F8001FFE00384300208180452
:1052E0001008041008041008071810030FF0000736
:1052F000C000000000000000000003C00007000024
:105300000600000600F80607F806180006E0000789
:10531000000006000000000000000001E1E003F7CB
:10532000F0063410041808041808040C08040C08CB
:1053300006161803F3F001C1E000000000000000B1
:10534000F80003FC300306380402080402080402D3
:10535000080404100308F001FFC0007F00000000F3
:10536000000000000000000000000000000000003D
:105370007038007038007038000000000000000035
:10538000000000000000000000000000000000001D
:1053900000000000301A00301C0000000000000077
:1053A00000000000000000000000000000000008F5
:1053B0000000140000220000410000808001004035
:1053C0000200200400100800080000000000000097
:1053D0002100002100002100002100002100002107
:1053E0000000210000210000210000210000000039
:1053F0000000000000000800080400100200200166
:1054000000400080800041000022000014000008DD
:105410000000000000000003C00004C00004000001
:10542000080038080F380808380810000C3000074A
:10543000E00003C000000000000000003F8000FF0B
:10544000E0038070020F1006708804C0880483088F
:10545000047F8802C09003012000FE400000080085
:1054600000180001F8003E0801C20007020007E230
:105470000000FE00001FC80001F80000380000080E
:1054800004000807FFF807FFF804080804080804E8
:10549000080804080806180803F41801E7F00001DA
:1054A000E0000000000000003F8001FFE00380708A
:1054B0000200180400080400080400080400100694
:1054C00000200780C000000004000807FFF807FF65
:1054D000F804000804000804000804001802001082
:1054E00003807001FFE0007F8000000004000807D7
:1054F000FFF807FFF804080804080804080804086F
:1055000008043E08040008060018010060000000BE
:1055100004000807FFF807FFF8040808040800045F
:105520000800040800043E00060000060000018098
:1055300000000000000000003F8001FFE0038070D9
:105540000600180400080402080402080203F00719
:1055500083F000020000020004000807FFF807FFC4
:10556000F80408080008000008000008000008000F
:1055700004080807FFF807FFF8040008000000000F
:10558000000004000804000804000807FFF807FFF3
:10559000F8040008040008040008000000000000EF
:1055A00000000000000600000700000104000104E4
:1055B000000104000307FFFE07FFFC0400000400D5
:1055C0000004000004000807FFF807FFF8040C08B7
:1055D000001800003E0004C7800503C80600F80458
:1055E000003804001800000804000807FFF807FF4F
:1055F000F804000800000800000800000800000887
:105600000000080000180000600000000400080707
:10561000FFF807800807FC00007FC00003F80007C0
:10562000C000780007800807FFF807FFF8040008AB
:1056300004000807FFF807000803C00000E00000AE
:105640003800001E000007000001C00400F007FF42
:10565000F8040000000000007F8001FFE00380707C
:1056600006001804000804000806001803003001B2
:10567000FFE0007F8000000004000807FFF807FF3C
:10568000F8040408040400040400040400040400F2
:10569000060C0003F80001F000000000000000000C
:1056A0007F8001FFE003807006008804008804000A
:1056B000C806003C03003E01FFE6007F84000000B6
:1056C00004000807FFF807FFF804080804080004AE
:1056D0000C00040F00040BC00610F003F03801E0CA
:1056E0000800000800000001E0F803F03006301068
:1056F000041808041808040C08040C080206180210
:1057000007F00781E00000000180000600000400AF
:105710000004000004000807FFF807FFF804000871
:1057200004000004000006000001800004000007DF
:10573000FFE007FFF0040018000008000008000068
:105740000800000800000804001007FFE004000043
:1057500004000006000007E00007FE00041FE00050
:1057600001F80000380001E0043E0007C000060018
:105770000004000004000007E00007FFC0041FF859
:105780000007C007F80007FF80043FF80007C004C7
:10579000F8000700000400000000000400080600F4
:1057A0001807C07805F1C8003E00001F800463E8B8
:1057B0000780F80600180400080000000400000636
:1057C000000007800007E008047C08001FF80007BD
:1057D000F800180804E008070000060000040000B4
:1057E0000000000100080600380400F80403E80483
:1057F0000F08047C0805F00807C00807001804001B
:105800006000000000000000000000000000000038
:105810000000003FFFFE20000220000220000220C6
:10582000000220000200000000000000000008004C
:105830000007000000C0000038000006000001C0A2
:1058400000003000000E0000010000000000000019
:1058500000002000022000022000022000022000A0
:10586000023FFFFE000000000000000000000000FA
:1058700000000000000000000008000010000030E0
:1058800000002000003000001000000800000000B0
:105890000000000000000100000100000100000104
:1058A00000000100000100000100000100000100F3
:1058B00000010000010000010000000000000000E5
:1058C0000020000020000010000010000000000078
:1058D00000000000000000000000000000000000C8
:1058E00000F00019F8001B18002208002608002408
:1058F00008002410003FF8001FF8000008000018FE
:1059000000000004000007FFF80FFFF00018180067
:105910001008002008002008003018001FF0000FB9
:10592000C00000000000000007C0001FF000183099
:10593000002008002008002008003C08001C10007F
:1059400000600000000000000000000007C0001F11
:10595000F00038180020080020080020080410106B
:1059600007FFF80FFFF0000010000000000000002B
:1059700000000007C0001FF00012300022180022B3
:1059800008002208003208001E10000E200000004F
:1059900000000000200000200800200801FFF8039C
:1059A000FFF8062008042008042008072000030050
:1059B0000000000000000000000E000E6E001FF34B
:1059C0000031B10020B10020B1003191001F13005F
:1059D0002E1E00200E00300000000004000807FF0B
:1059E000F80FFFF800100800200000200000200839
:1059F000003FF8001FF80000080000000000000051
:105A00000000002008002008002008063FF8063F9C
:105A1000F800000800000800000800000000000076
:105A2000000000000000000003000003002001004F
:105A30002001002003063FFE063FFC00000000009E
:105A40000000000000000004000807FFF80FFFF846
:105A5000000188000300002FC00038F80020380043
:105A60002008000008000000000000000000040002
:105A70000804000804000807FFF80FFFF8000008FA
:105A800000000800000800000000000000200800DE
:105A90003FF8003FF8001008002000003FF8003FEA
:105AA000F8001008002000003FF8003FF800000850
:105AB000000000002008003FF8003FF80010080038
:105AC0001000002000002008003FF8001FF8000030
:105AD000080000000000000007C0000FF0001830B0
