:020000040800F2
:100000003007002089010008950300088D030008CF
:100010009103000839020008F308000800000000FE
:100020000000000000000000000000004D04000877
:1000300071020008000000000904000839050008EA
:10004000A3010008A3010008A3010008A301000800
:10005000A3010008A3010008A3010008A3010008F0
:10006000A3010008A3010008A3010008A3010008E0
:10007000A3010008A3010008A3010008A3010008D0
:10008000A3010008A3010008A3010008A3010008C0
:10009000A3010008A3010008A3010008A3010008B0
:1000A000A3010008A3010008A3010008A3010008A0
:1000B000A3010008A30100089D050008A301000892
:1000C000A3010008A3010008A3010008A301000880
:1000D000A30100080D080008A3010008A3010008FF
:1000E000A3010008A3010008A301000800F002F822
:1000F00000F03AF80AA090E8000C82448344AAF188
:100100000107DA4501D100F02FF8AFF2090EBAE885
:100110000F0013F0010F18BFFB1A43F0010318473B
:10012000F807000018080000103A24BF78C878C10A
:10013000FAD8520724BF30C830C144BF04680C60ED
:10014000704700000023002400250026103A28BF35
:1001500078C1FBD8520728BF30C148BF0B60704739
:100160001FB51FBD10B510BD00F033F81146FFF7E5
:10017000F7FF00F0C3FB00F051F803B4FFF7F2FF04
:1001800003BC00F0B8FB000009488047094800475D
:10019000FEE7FEE7FEE7FEE7FEE7FEE7FEE7FEE737
:1001A000FEE7FEE704480549054A064B7047000094
:1001B0003D050008ED000008300100203007002058
:1001C00030030020300300207047704770477047AD
:1001D0007047754600F02CF8AE4605006946534658
:1001E00020F00700854618B020B5FFF7DBFFBDE81B
:1001F00020404FF000064FF000074FF000084FF08E
:10020000000B21F00701AC46ACE8C009ACE8C0091E
:10021000ACE8C009ACE8C0098D46704710B504468B
:10022000AFF300802046BDE81040FFF7A6BF0000F6
:1002300000487047D000002000BFFEE708B501214C
:10024000082000F0F3F82020ADF8000010208DF811
:10025000030003208DF802006946044800F009F805
:100260002021024800F090F808BD0000000C014079
:1002700070472DE9F04102460025002600200023AA
:100280000024002791F803C00CF00F0591F803C07B
:100290000CF0100CBCF1000F03D091F802C04CEA36
:1002A000050591F800C0BCF1000F31D014680020A2
:1002B0002BE04FF0010C0CFA00F3B1F800C00CEA8F
:1002C00003069E4220D183004FF00F0C0CFA03F777
:1002D000BC4305FA03FC4CEA040491F803C0BCF1EA
:1002E000280F06D14FF0010C0CFA00FCC2F814C024
:1002F0000AE091F803C0BCF1480F05D14FF0010CA2
:100300000CFA00FCC2F810C0401C0828D1D31460BD
:10031000B1F800C0BCF1FF0F34DD546800202EE0BE
:1003200000F1080C4FF0010808FA0CF3B1F800C016
:100330000CEA03069E4221D183004FF00F0C0CFA09
:1003400003F7BC4305FA03FC4CEA040491F803C02C
:10035000BCF1280F05D100F1080C08FA0CF8C2F81E
:10036000148091F803C0BCF1480F07D100F1080CCC
:100370004FF0010808FA0CF8C2F81080401C082859
:10038000CED35460BDE8F0810161704700BFFEE745
:1003900000BFFEE77047000070B5002100230F2268
:1003A000C47804B3154C246804F4E064C4F5E06434
:1003B000210AC1F10403CA40447804FA03F18478A5
:1003C0001440214309010E4C0678A155047804F02D
:1003D0001F050124AC4005786D11AD0005F1E02545
:1003E000C5F8004109E0047804F01F050124AC4081
:1003F000044D0678761145F8264070BD0CED00E0FE
:1004000000E400E080E100E07047000029B1064A06
:10041000D2690243044BDA6104E0034AD2698243A1
:10042000014BDA61704700000010024029B1064A12
:1004300092690243044B9A6104E0034A9269824341
:10044000014B9A617047000000100240704710B5E0
:1004500000F002F810BD00000CB5002001900090E3
:100460003348006840F480303149086000BF3048AC
:10047000006800F4003000900198401C0190009842
:1004800018B90198B0F5A06FF1D12948006800F4BF
:10049000003010B10120009001E000200090009891
:1004A000012843D12348006840F01000214908602A
:1004B0000846006820F0030008600846006840F025
:1004C000020008601A4840681949486008464068B8
:1004D00048600846406840F48060486008464068CC
:1004E00020F47C1048600846406840F4E8104860FA
:1004F0000846006840F08070086000BF0C48006843
:1005000000F000700028F9D00948406820F003008E
:10051000074948600846406840F00200486000BF54
:100520000348406800F00C000828F9D10CBD000019
:1005300000100240002002407047000010B5134830
:10054000006840F001001149086008464068104901
:1005500008400E494860084600680E4908400B49AB
:1005600008600846006820F480200860084640685B
:1005700020F4FE0048604FF41F008860FFF767FF1B
:100580004FF000600449086010BD000000100240F8
:100590000000FFF8FFFFF6FE08ED00E010B50121B6
:1005A000044800F06EF818B10121024800F05AF832
:1005B00010BD00000008004030B589B005460C466B
:1005C00001210420FFF722FF01210820FFF72EFF61
:1005D0004020ADF81C0018208DF81F0003208DF876
:1005E0001E0007A91D48FFF744FEADF80450ADF802
:1005F00000400020ADF80600ADF80200694618483A
:1006000000F0B2F801221146154800F04BF81E2008
:100610008DF8200000208DF8210003208DF82200A5
:1006200001208DF8230008A8FFF7B6FE7020ADF872
:100630000C000120ADF80E000020ADF8140003A955
:10064000074800F039F80821054800F081F8012139
:10065000034800F00AF809B030BD0000000C01406A
:1006600000080040CA430282704721B1028842F06C
:100670000102028004E002884FF6FE731A400280F5
:10068000704730B50246002000230024158A05EA91
:100690000103958905EA010413B10CB1012000E0C2
:1006A000002030BD1AB183890B43838102E0838926
:1006B0008B4383817047000070B500240022002323
:1006C000058C4FF6FE7635400584028C8388048BBA
:1006D0004FF68F752C40B51E2C400D882C43751E8F
:1006E0002A400D892A434D882A43144DA8420BD035
:1006F000134DA84208D0134DA84205D0124DA84270
:1007000002D0124DA84213D14FF6F7752A404D89F9
:100710002A434FF6FB752A408D882A434FF6FF6522
:100720002B404FF6FF552B408D892B43CD892B4312
:1007300083800483CD888586028470BD002C0140AF
:1007400000340140004001400044014000480140A5
:100750000A460021018B4FF6F773194011430183BC
:100760007047818670470000002202881D4B984226
:100770000ED01D4B98420BD0B0F1804F08D01B4BD0
:10078000984205D01A4B984202D01A4B984204D195
:100790004FF68F731A404B881A43174B984207D075
:1007A000164B984204D04FF6FF431A40CB881A43A9
:1007B00002808B8883850B8803850A4B98420BD077
:1007C000094B984208D00E4B984205D00D4B9842E9
:1007D00002D00D4B984201D10B7A0386012383820C
:1007E00070470000002C014000340140000400402C
:1007F00000080040000C00400010004000140040C1
:1008000000400140004401400048014010B540F262
:1008100025511D4800F03EF810B31B4800F064F865
:10082000C4B21A48008800F40040C8B917480088CC
:1008300000F4804060B10A2C03D0002013490880E6
:1008400020E01248008840F400401049088019E078
:100850000D2C06D10D48008840F480400B490880DB
:1008600010E00A480088C0F30D0009490C540748FD
:100870000088401C0549088008460088C72801DD1B
:100880000020088010BD0000003801400400002056
:100890000800002070B50246002400230025002037
:1008A00040F66A16B14200D100BFC1F3421501F013
:1008B0001F03012606FA03F3012D02D19689334066
:1008C00006E0022D02D1168A334001E0968A3340B9
:1008D0000C12012606FA04F41688344013B10CB148
:1008E000012000E0002070BD01468888C0F30800A8
:1008F000704700BFFEE700BF70470000FFF79EFC97
:10090000C8210846FFF758FE64210248FFF729FF77
:1009100000BFFEE700080040380900080000002082
:100920000800000028010008400900080800002015
:10093000280700004401000800000000000000003B
:04000005080000ED02
:00000001FF
