:020000040800F2
:10000000000C0020591A0008AD050008AF050008D3
:10001000B3050008B7050008BB0500080000000094
:10002000000000000000000000000000BF05000804
:10003000C105000800000000C3050008C505000850
:10004000731A0008731A0008731A0008731A00085C
:10005000731A0008731A0008731A0008731A00084C
:10006000731A0008731A0008731A0008731A00083C
:10007000731A0008731A0008731A0008731A00082C
:10008000731A0008731A0008731A0008731A00081C
:10009000731A0008731A0008731A0008731A00080C
:1000A000731A0008B3080008731A0008230900082F
:1000B000731A0008731A000891160008731A0008D2
:1000C000731A0008731A0008731A0008731A0008DC
:1000D000731A0008CF190008731A0008731A000871
:1000E000731A0008731A0008731A0008731A0008BC
:1000F000731A0008731A0008731A0008731A0008AC
:10010000731A0008731A000849020008731A0008DD
:10011000731A0008731A0008731A0008731A00088B
:10012000731A0008731A0008731A0008731A00087B
:10013000731A0008731A0008731A0008731A00086B
:10014000731A0008731A0008731A0008731A00085B
:10015000731A0008731A0008731A0008731A00084B
:10016000731A0008731A0008731A0008731A00083B
:10017000731A0008731A0008731A0008731A00082B
:10018000731A0008731A000800F002F800F04CF827
:100190000AA090E8000C82448344AAF10107DA45E2
:1001A00001D100F041F8AFF2090EBAE80F0013F0E8
:1001B000010F18BFFB1A43F001031847306A000013
:1001C000506A0000103A24BF78C878C1FAD85207A4
:1001D00024BF30C830C144BF04680C6070470000C1
:1001E0000023002400250026103A28BF78C1FBD840
:1001F000520728BF30C148BF0B607047662904F022
:10020000A085642903F0B881002070471FB504F071
:100210008EFD03F0F3FC04000020002104F060FADE
:10022000E0601FBD10B510BD03F004FE1146FFF7DE
:10023000EDFF00F05EF803F022FE03B4FFF7F2FFDB
:1002400003BC01F065FB000010B52DED068B01210C
:10025000A14803F098F8012844D101F02AFA9F49F7
:100260000860084601689EA003F07AF99B48006880
:1002700004F0D6FB41EC1A0B9FEDA00B53EC102BB6
:1002800004F0E6FB41EC190B9FED9E0B53EC102B99
:1002900004F06EFA41EC180B04F038FA9B49086040
:1002A0000846006804F0D2FC41EC180B53EC182B04
:1002B00097A003F055F99B48D0ED000A874890EDD0
:1002C000000AB8EEC00A30EE800A964880ED000AB7
:1002D000006804F0BBFC41EC180B53EC182B92A007
:1002E00003F03EF901217C4803F05EF8BDEC068B7B
:1002F00010BD08B50A250026E80101F0CDFBA820B5
:1003000001F084FA4FF4165001F00FFB01F01EF8D3
:1003100000F062FA42F2CF0140F2F31001F062F90C
:1003200042F2CF0141F2873001F087F942F2CF016A
:10033000C72001F0BBF842F2CF01C72001F001F95C
:1003400000214FF4FA6001F0E5F9C4E000F077FC19
:10035000C82001F0BDFA00F0A4FC0120082374A21B
:100360000A210090084600F02FFE0021734802F099
:1003700040FD4FF47A7001F0ABFA32216F4802F081
:1003800038FD00F05DFB0446002CDED0682C75D0F3
:1003900012DC382C73D008DC022C76D0102C70D0F4
:1003A000182C6FD0222C2FD15BE04A2C6BD05A2C0A
:1003B0006AD0622CF7D128E0B02C77D008DC902CE2
:1003C0006ED0982C6ED0A22C09D0A82C7AD162E0E5
:1003D000C22C5CD0E02C5CD0E22C73D12BE058A670
:1003E0002021584801F0CAFC0021544802F001FDC8
:1003F0003221554802F0FDFC0120082353A20A21B6
:100400000090084600F0E0FD5CE052A620214D4837
:1004100001F0B4FC3221494802F0EBFC00214A48CB
:1004200002F0E7FC012008234BA20A2100900846B5
:1004300000F0CAFD46E04BA62021424801F09EFC98
:100440000120082348A20A210090084600F0BCFDC4
:1004500000213A4802F0CDFC0021384802F0C9FCE6
:1004600030E043A605F10A00C5B20120082341A2ED
:100470000A210090084600F0A7FD23E014E01FE0E9
:1004800003E017E014E017E018E03BA61AE03BA6F3
:1004900018E03BA616E03BA614E007E000E001E010
:1004A00039A60FE039A60DE039A60BE039A609E020
:1004B00039A607E039A605E039A603E039A601E030
:1004C00039A600BF00BF0120102332460A21009048
:1004D000502000F079FD39E7000C004000000020BA
:1004E00035306D73C4DAB1E0C2EBC6F7C2F6B3E5DE
:1004F000CEAAA3BA25640D0A000000000000000087
:100500000000F03F00000000004CBD40040000204F
:10051000B5E7BBFAD7AACBD9A3BA252E34660D0A04
:10052000000000000C000020252E346600000000B2
:100530006A69616E207A68693A0000000020004014
:100540003100000000000240001C00406B61697334
:10055000686900003200000066616E7A6875616E3D
:10056000000000003300000074696E677A6869005B
:100570003400000031313100350000003600000049
:100580003700000038000000390000003000000093
:100590002A000000230000005E0000003C00000074
:1005A000760000003E0000004F4B0000704700BF87
:1005B000FEE700BFFEE700BFFEE700BFFEE77047B3
:1005C00070477047704700000CB500200190009004
:1005D0007648006840F480307449086000BF734872
:1005E000006800F4003000900198401C01900098D1
:1005F00018B90198B0F5A04FF1D16C48006800F42B
:10060000003010B10120009001E00020009000981F
:10061000012846D165484030006840F08050634969
:10062000403108606248006840F44040604908601A
:100630005E48083000685D49083108600846006877
:1006400040F4004008600846006840F4A05008608C
:100650005848091F0860081F006840F08070091F93
:10066000086000BF5148006800F000700028F9D011
:1006700040F20570504908604C480830006820F08E
:1006800003004A49083108600846006840F002004B
:10069000086000BF45480830006800F00C000828DA
:1006A000F8D10CBD10B54548006840F470004349CE
:1006B00008603E48006840F001003C4908600020A6
:1006C0003A4908310860394800683D4908403749CF
:1006D00008603C48091D0860081F006820F480205D
:1006E000091F0860002031490C310860FFF76CFFDA
:1006F0004FF0006031498039086010BD70B50020AE
:100700000022022300240221284D08352D6805F01F
:100710000C0020B1042806D0082834D107E02A4D67
:100720002A4E356033E02A4D284E35602FE01F4DAC
:100730002D1D2D68C5F380541C4D2D1D2D6805F011
:100740003F0154B1224DB5FBF1F5184E361D366808
:10075000C6F3881605FB06F209E01B4DB5FBF1F563
:10076000124E361D3668C6F3881605FB06F20F4D8D
:100770002D1D2D68C5F301456D1C6B00B2FBF3F513
:10078000124E356003E0104D104E356000BF00BFC3
:10079000064D08352D68C5F303150E4E705D0B4DE3
:1007A0002D68C540094E356070BD0000003802401C
:1007B0000070004008544007003C024088ED00E013
:1007C000FFFFF6FE103000240024F400100000208B
:1007D00000127A001400002000B589B001210846FB
:1007E00001F0EEFC0121084601F044FD4FF4807059
:1007F000079002208DF8200000208DF822000320B1
:100800008DF8210001208DF8230007A9A34801F0ED
:1008100039FA01220821A14801F0BFFAA720ADF85A
:100820000C000020ADF80E0042F210700490002081
:10083000ADF8140003A99A4802F0EDF80020ADF8D5
:100840000000ADF802000120ADF804000020ADF872
:1008500006000320ADF808006946914802F0B2FC9A
:10086000012203218E4802F077FD01218C4802F01D
:100870005BF91B208DF8180001208DF8190003206A
:100880008DF81A0001208DF81B0006A801F009F967
:1008900019208DF8180001208DF8190002208DF81C
:1008A0001A0001208DF81B0006A801F0FAF809B023
:1008B00000BD10B501217A4802F065FD01282BD159
:1008C0007848007800F0800030B37648007820F057
:1008D0001000744908700846007800F00F0020B935
:1008E0000846007840F0400008706E48007800F03C
:1008F0000F000E2805DA6B480078401C6949087023
:100900000AE06848007820F08000664908700846D0
:10091000007800F0F00008700121614802F044FD09
:1009200010BD10B502215E4802F02DFD012810D146
:100930005D48006870B10221594802F010FB0021A7
:10094000574802F0B1F85748007840F01000554978
:10095000087070E0524802F0B3FC5449088000214E
:100960004F4802F0FCFA4F48007800F010000028D1
:100970005BD04C48007800F08000E8B34B4800881A
:10098000B0F5967F0DDD49480088B0F5487F08DA5C
:10099000474800684000464908600846006808600B
:1009A00043E042480088B0F5AF6F0FDD3F48008854
:1009B000B0F5E16F0ADA3E48006840003C49086043
:1009C0000846006840F0010008602EE037480088C3
:1009D00040F69801884228DD3448008840F62821F6
:1009E000884222DA33480078401C324908702D488A
:1009F000007800F0F00000E002E02A49087014E0FE
:100A00002A48008841F2680188420EDD27480088A4
:100A100041F25C21884208DA2248007840F08000E8
:100A2000204908700020234908701E48007820F0F3
:100A300010001C4908700221194802F0B5FC10BDD5
:100A400010B50020174B1B7803F040032BB3184B55
:100A50001B68190E164B1B68C3F30742D343DBB266
:100A60008B420BD151B9124B1B88C3F30721104B9A
:100A70001A78D343DBB28B4200D1084620B1094B30
:100A80001B7803F0800343B9064B1B7823F0400327
:100A9000044C23700023074C237010BD000002405B
:100AA00000000140240000202002404226000020D7
:100AB000280000202C0000200A2000BF011EA0F109
:100AC0000102D0B2FAD1704710B52021F84801F0E8
:100AD00057F94021F64801F051F9FFF7EDFF2021C9
:100AE000F34801F04BF910BD10B52021F04801F09A
:100AF00045F9FFF7E1FF4021ED4801F03FF9FFF72D
:100B0000DBFF4021EA4801F03BF9FFF7D5FF10BDBC
:100B100070B5044600251BE004F0800020B12021C0
:100B2000E34801F02BF903E02021E14801F028F926
:100B3000FFF7C2FF4021DE4801F020F9FFF7BCFFBC
:100B40004021DB4801F01CF96006040E681CC5B2A8
:100B5000082DE1DB70BD10B52021D54801F00EF95C
:100B60004021D34801F00AF9FFF7A6FF2021D04821
:100B700001F006F9FFF7A0FF4021CD4801F000F990
:100B8000FFF79AFF10BD70B505460C46FFF7E3FF6F
:100B90007820FFF7BDFFFFF7A7FF1CB14020FFF74C
:100BA000B7FF02E00020FFF7B3FFFFF79DFF2846E5
:100BB000FFF7AEFFFFF798FFFFF786FF70BD10B598
:100BC00004461CB90021A620FFF7DDFF012C03D14C
:100BD0000021A720FFF7D7FF10BD10B504463CB990
:100BE0000021C820FFF7CFFF0021A120FFF7CBFF96
:100BF000012C07D10021C020FFF7C5FF0021A02054
:100C0000FFF7C1FF10BD10B500218D20FFF7BBFF1E
:100C100000211420FFF7B7FF0021AF20FFF7B3FF3B
:100C200010BD10B500218D20FFF7ADFF0021102071
:100C3000FFF7A9FF0021AE20FFF7A5FF10BD70B59B
:100C400000242BE004F1B001C8B20021FFF79BFFA4
:100C500000210846FFF797FF00211020FFF793FFC0
:100C6000FFF779FF7820FFF753FFFFF73DFF4020A4
:100C7000FFF74EFFFFF738FF002509E08D4901EB34
:100C8000C501085DFFF744FFFFF72EFF681CC5B2E2
:100C9000802DF3DBFFF718FF601CC4B2082CD1DBFA
:100CA00070BD70B500240CE0002506E000208149ED
:100CB00001EBC5010855681CC5B2802DF6DB601C30
:100CC000C4B2082CF0DBFFF7BAFF70BDF0B51446D4
:100CD0000B46CF1701EB5777C7F3C702CF1701EBCE
:100CE0005777FF10A1EBC707FEB20123B340DDB277
:100CF0004CB1704B03EBC0039B5C2B436D4F07EB78
:100D0000C007BB541AE06B4B03EBC0039B5CDB4397
:100D1000684F07EBC007BB54664B03EBC0039B5CFB
:100D20002B43644F07EBC007BB54624B03EBC0037C
:100D30009B5CDB435F4F07EBC007BB54F0BD2DE965
:100D4000FF4F84B081468A46002002908346069871
:100D5000A0EB09040798A0EB0A06CDF80490CDF8A3
:100D600000A0002C01DD012705E00CB9002702E0FE
:100D70004FF0FF376442002E02DD4FF0010806E01D
:100D800016B94FF0000802E04FF0FF386642B44257
:100D900001DD254600E03546002003901EE0009A64
:100DA000D1B2019AD0B2119AFFF790FF0298204475
:100DB0000290B3440298A84205DD0298401B0290BD
:100DC000019838440190AB4504DDABEB050B00986E
:100DD000404400900398401C80B20390691C039823
:100DE0008842DCDB08B0BDE8F08F2DE9F043064611
:100DF0000F4690460025444643E03A1BD1B2721993
:100E0000D0B20122FFF762FF3A1BD1B2721BD0B2FF
:100E10000122FFF75BFF3A19D1B2721BD0B2012257
:100E2000FFF754FF3A19D1B27219D0B20122FFF77D
:100E30004DFF7A19D1B23219D0B20122FFF746FF25
:100E40007A1BD1B23219D0B20122FFF73FFF7A1BD1
:100E5000D1B2321BD0B20122FFF738FF7A19D1B2DA
:100E6000321BD0B20122FFF731FF6D1C05FB05F0EC
:100E700004FB040008FB1809B9F1000F01DD641E32
:100E80006D1E6000604308FB08F18842B5DABDE8DA
:100E9000F0832DE9FE4F0746884692461C4601978F
:100EA000CDF80080082C07D14FF0060924E000009F
:100EB000000C0240540000202046E31704EB53735B
:100EC000DB1021464FEAE47C04EB5C7C4FEAEC0C3F
:100ED000A4EBCC0CBCF1000F02D04FF0010C01E0F0
:100EE0004FF0000C6344224604EBD27C4FEA6C0CBA
:100EF00003FB0CF303F0FF09AAF12000C6B20025A2
:100F00005EE0082C07D106EB4600FE4901EB4000ED
:100F100010F805B01DE00C2C07D106EB4600FA498D
:100F200001EB800010F805B013E0102C05D1F74854
:100F300000EB061010F805B00BE0182C07D106EBFB
:100F4000C600F34901EB800010F805B001E0BDE8F0
:100F5000FE8F002002901CE00BF0010028B14146FA
:100F600038460C9AFFF7B2FE09E00C9808B9012048
:100F700000E00020024641463846FFF7A7FE4FEA50
:100F80006B0B08F1010000F0FF080298401CC0B292
:100F9000029002980828DFDB781CC7B2082C0BD01F
:100FA00004EBD4714A100199791A8A4204D1019F45
:100FB00000980830C0B20090DDF80080681CC5B20F
:100FC0004D459EDB00BFC2E72DE9F84106460F46BE
:100FD00014461D46DDF81C8013E0CDF80080227811
:100FE0002B4639463046FFF754FF082D02D1B01D7D
:100FF000C6B205E0284605EBD07106EB6101CEB222
:10100000641C2078202802DB20787E28E5DDBDE8FE
:10101000F88110B50246012000E050430B1EA1F1FB
:101020000104E1B2F9D110BD2DE9FF4F82B00646AF
:1010300091461F46DDE90F4A4FF0000B082C01D105
:101040004FF0020B002530E0781B401EC1B20A2091
:10105000FFF7DFFFB9FBF0F00A21B0FBF1F201FB73
:101060001208B8F1000F0ED104EBD4710BEB610143
:1010700001FB0561C8B223463022CDE900A40399E3
:10108000FFF707FF0FE004EBD4710BEB610101FBED
:101090000561C8B208F13001CAB22346CDE900A407
:1010A0000399FFF7F6FE681CC5B2BD42CCDB06B063
:1010B000BDE8F08F2DE9FC4F0746884616461C46D2
:1010C000BB46CDF804802046E21704EB5272D210E2
:1010D0002146E31704EB5373DB10A4EBC3030BB1FE
:1010E000012300E000231A44624392B200920025DB
:1010F00055E0102C05D1874800EB461010F805A0EC
:101100001BE0182C07D106EBC600834901EBC00099
:1011100010F805A011E0202C05D1804800EBC61086
:1011200010F805A009E0402C05D17D4800EB4620D1
:1011300010F805A001E0BDE8FC8F4FF000091CE0AD
:101140000AF0010028B1414638460B9AFFF7BEFD70
:1011500009E00B9808B9012000E000200246414652
:101160003846FFF7B3FD4FEA6A0A08F1010000F0C4
:10117000FF0809F1010000F0FF09B9F1080FDFDBFA
:10118000781CC7B2A7EB0B00A04204D15F460198C0
:101190000830C0B20190DDF80480681C85B2009868
:1011A0008542A6DB00BFC6E708B580468946924661
:1011B000002600274BE04FB910233246182180202B
:1011C000CDF800A0FFF776FF701CC6B2464522D1CD
:1011D0004FF0000B1AE0012410E000250AE051480E
:1011E00000EBC400415D601E4E4A02EBC000415559
:1011F000681CC5B2082DF2DB601CC4B2902CECDB7D
:10120000FFF71DFD0BF1010000F0FF0B4FEA091085
:101210005845E0DC0026781CC7B2102F00D100270B
:10122000012410E000250AE03E4800EBC400415DC7
:10123000601E3C4A02EBC0004155681CC5B2082D37
:10124000F2DB601CC4B2902CECDBFFF7F8FCB2E7D9
:101250002DE9FF4F05460E4617461C46DDF838902F
:101260004FF0000A0095B3462046E21704EB527295
:10127000D2102146E31704EB5373DB10A4EBC30336
:101280000BB1012300E000231A44D4B24FF0000850
:1012900058E0002003904EE00D9810F80A000290EC
:1012A0000AF101001FFA80FA002001901DE0029867
:1012B00000F0010028B14A4631462846FFF706FDF6
:1012C0000AE0B9F1000F01D1012000E00020024640
:1012D00031462846FFF7FAFC029840100290701C35
:1012E000C6B20198401CC0B2019001980828DEDB0C
:1012F000681CC5B20098281AB84217D1009D0BF19E
:10130000080011E0464D00086E4F0008E253000847
:10131000D25900082E6700088E680008D6680008B9
:10132000566900085400002000F0FF0B5E46039849
:10133000401CC0B203900398B842ADDB08F1010035
:1013400000F0FF08A045A4DBBDE8FF8F1CB501211C
:10135000082000F035FF2020009001208DF80400C7
:101360008DF8060003208DF8050001208DF8070098
:1013700069464D4800F086FC1020009000208DF852
:1013800006006946484800F07DFC4020009001209E
:101390008DF804008DF8060003208DF8050001206B
:1013A0008DF807006946404800F06CFC10213E486B
:1013B00000F0E6FCC82000F08BFA10213A4800F05B
:1013C000DDFC0021AE20FFF7DEFB00210846FFF721
:1013D000DAFB00211020FFF7D6FB00214020FFF7A9
:1013E000D2FB00218120FFF7CEFB0021CF20FFF7A9
:1013F000CAFB0021A120FFF7C6FB0021C820FFF790
:10140000C2FB0021A620FFF7BEFB0021A820FFF7AA
:10141000BAFB00213F20FFF7B6FB0021D320FFF7E6
:10142000B2FB00210846FFF7AEFB0021D520FFF7F5
:10143000AAFB00218020FFF7A6FB0021D920FFF79F
:10144000A2FB0021F120FFF79EFB0021DA20FFF72D
:101450009AFB00211220FFF796FB0021DB20FFF70B
:1014600092FB00214020FFF78EFB00212020FFF798
:101470008AFB00210220FFF786FB00218D20FFF769
:1014800082FB00211420FFF77EFB0021A420FFF740
:101490007AFB0021A620FFF776FBFFF702FC002174
:1014A000AF20FFF770FB1CBD000C024030B58BB0C5
:1014B00004460D460121080200F0CBFE012108463A
:1014C00000F07EFE09220721434800F066FC8020E0
:1014D000099002208DF8280003208DF829000020B3
:1014E0008DF82A0001208DF82B0009A93A4800F058
:1014F000C9FBA8B2ADF818000020ADF81A00079497
:10150000ADF8200006A9354801F085FA6020ADF855
:1015100004000120ADF806000020ADF8100001A97C
:101520002E4801F00DFB08212C4801F096FC01210A
:101530002A4801F0DBFA0121284801F0F5FA0BB046
:1015400030BD30B58BB004460D460121802000F03F
:1015500080FE0121084600F033FE092206211E48C4
:1015600000F01BFC4020099002208DF82800032089
:101570008DF8290000208DF82A0001208DF82B001D
:1015800009A9154800F07EFBA8B2ADF818000020AC
:10159000ADF81A000794ADF8200006A9104801F034
:1015A0003AFA6020ADF804000120ADF806000020F2
:1015B000ADF8100001A90A4801F0C2FA0821084854
:1015C00001F04BFC0121064801F090FA012104488A
:1015D00001F0AAFA0BB030BD00000240002000402C
:1015E000001C00407FB504460D460121022000F09A
:1015F00030FEADF804500020ADF806000294ADF8BE
:101600000C0001A93E4801F006FA012211463C48AF
:1016100001F0A2FE01213A4801F086FA32208DF84D
:10162000000002208DF801008DF8020001208DF8E5
:101630000300684600F035FA7FBD7FB504460D46CD
:101640000121082000F005FEADF804500020ADF89F
:1016500006000294ADF80C0001A92A4801F0DBF95C
:1016600001221146274801F077FE0121254801F0AB
:101670005BFA32208DF8000002208DF801008DF811
:10168000020001208DF80300684600F00AFA7FBDD1
:1016900010B501211C4801F076FE012804D11B4839
:1016A0000088401C194908800121174801F07CFE80
:1016B00010BD70B515480688134801F0F9F985B2D8
:1016C0000020124908801048008800F010001028FF
:1016D00009D10F480068291A704240F2F3125043B2
:1016E00001EB800407E00A480068291A40F2F31071
:1016F000704301EB800406480560204670BD000081
:1017000000040040000C00400008004030000020B1
:101710003400002030B589B005460C460121042074
:1017200000F097FD0121082000F04AFD4FF44050E1
:10173000079002208DF8200003208DF82100002062
:101740008DF823008DF8220007A92E4800F09AFAA0
:1017500002220C212B4800F020FB02220D212948F7
:1017600000F01BFB0495ADF80C400020ADF80E0016
:10177000ADF8140003A9244801F04DF90020ADF89C
:101780000000ADF802000120ADF804000020ADF823
:1017900006000620ADF8080069461B4801F012FD5E
:1017A0000420ADF800000020ADF802000120ADF8E3
:1017B00004000020ADF806000620ADF808006946D8
:1017C000114801F0FFFC00231A4603210E4801F0E6
:1017D00096FE1E208DF8180001208DF81B008DF854
:1017E000190002208DF81A0006A800F05AF901220B
:1017F0001146054801F0B0FD0121034801F094F9BC
:1018000009B030BD000C02400008004010B504468D
:101810006FF0040000F092F9E11704EB5171C1F38D
:10182000C701394A11701046007800EB4001C1EB46
:10183000C0104FF6FF7101EAC0003449088010BDA6
:101840000146314A12784A434FF0E0235A610022A0
:101850009A611A46126942F001021A6100BF4FF004
:10186000E022106900F001021AB100F48032002A6F
:10187000F5D04FF0E022126922F001024FF0E02390
:101880001A6100229A6170470146204A12884A4331
:101890004FF0E0235A6100229A611A46126942F021
:1018A00001021A6100BF4FF0E022106900F001024E
:1018B0001AB100F48032002AF5D04FF0E02212690C
:1018C00022F001024FF0E0231A6100229A61704772
:1018D00070B504464FF4077094FBF0F0C6B24FF4B5
:1018E000077094FBF0F100FB114085B205E04FF466
:1018F0000770FFF7C9FF701EC6B2002EF7D115B1F1
:101900002846FFF7C1FF70BD380000203A000020D4
:1019100000BF704700BF4C4A128802F04002002A04
:10192000F9D0C2B2484B9A80704710B588B00446CF
:101930000121084600F044FC0121102000F09AFC2F
:1019400007220921414800F028FA07220A213F48CE
:1019500000F023FA4FF4C060069002208DF81C00BE
:101960008DF81D0000208DF81E0001208DF81F004D
:1019700006A9364800F086F902940020ADF80C0064
:10198000ADF80E00ADF81000ADF814000C20ADF865
:10199000120002A92C4800F0CEFD01212A4800F0D7
:1019A00052FE012240F22551274800F002FF252077
:1019B0008DF8040003208DF805008DF80600012045
:1019C0008DF8070001A800F06CF808B010BD10B544
:1019D00040F225511C4800F027FF10B31A4800F0D0
:1019E00061FEC4B21A48008800F40040C8B9184823
:1019F000008800F4804060B10A2C03D00020144914
:101A0000088020E01248008840F400401049088017
:101A100019E00D2C06D10E48008840F480400C4996
:101A2000088010E00A480088C0F30D0009490C54F2
:101A300007480088401C0649088008460088C728D7
:101A400001DD0020088010BD0010014000000240B0
:101A500040000020D404002009488047094800477E
:101A6000FEE7FEE7FEE7FEE7FEE7FEE7FEE7FEE74E
:101A7000FEE7FEE704480549054A064B70470000AB
:101A8000A50600088901000800060020000C0020BF
:101A9000000800200008002032490143324A11604A
:101AA000704770B5002100230F22C4781CB32E4C60
:101AB000246804F4E064C4F5E064C4F30721C1F1D0
:101AC0000404E3B20A4144789C40E1B284781440B3
:101AD00021430C07210E254C05786155047804F04C
:101AE0001F050124AC4005786D11AD0005F1E0251E
:101AF000C5F8004109E0047804F01F050124AC405A
:101B00001B4D0678761145F8264070BD194A0A40EB
:101B10000243154B1B1F1A60704739B1124A121D40
:101B200012680243104B1B1D1A6006E00E4A121D7C
:101B3000126882430C4B1B1D1A607047042808D1A1
:101B40004FF0E021096941F004014FF0E0221161FA
:101B500007E04FF0E021096921F004014FF0E02295
:101B6000116170470000FA050CED00E000E400E0B0
:101B700080E100E080FFFF1F10B5044698488442D2
:101B800008D10121084600F086FB0021012000F069
:101B900082FB76E09348844208D10121022000F0C4
:101BA0007AFB0021022000F076FB6AE08E48844236
:101BB00008D10121042000F06EFB0021042000F078
:101BC0006AFB5EE08948844208D10121082000F0C8
:101BD00062FB0021082000F05EFB52E08448844252
:101BE00008D10121102000F056FB0021102000F048
:101BF00052FB46E07F48844208D10121202000F0BA
:101C00004AFB0021202000F046FB3AE07A4884425B
:101C100008D10121402000F03EFB0021402000F0CF
:101C20003AFB2EE07548844208D10121802000F063
:101C300032FB0021802000F02EFB22E0704884421D
:101C400008D10121801500F026FB0021A01500F02D
:101C500022FB16E06B48844208D10121401500F0B8
:101C60001AFB0021601500F016FB0AE0664884426A
:101C700007D10121001500F00EFB0021201500F016
:101C80000AFB10BDF0B50A4600210023002400BF66
:101C90003DE0012505FA01F3156805EA03049C42BD
:101CA00034D105684F000326BE40B5430560157961
:101CB0004E00B5400668354305601579012D02D008
:101CC0001579022D16D185684F000326BE40B54315
:101CD000856055794E00B540866835438560456816
:101CE00001268E40B5434560456896798E40B6B270
:101CF00035434560C5684F000326BE40B543C56007
:101D0000D5794E00B540C6683543C560491C1029D9
:101D1000BFD3F0BD4FF6FF71016000210171417129
:101D20008171C171704708B54FF480320092009AFA
:101D30000A430092009AC261C161009AC261C269FD
:101D40000092C269009208BD0246002013690B4050
:101D50000BB1012000E0002070470146086980B205
:101D600070470246002053690B400BB1012000E090
:101D7000002070470146486980B270470183704770
:101D8000418370470AB1018300E04183704741619C
:101D9000704742694A4042617047F0B50023002411
:101DA0004D07ED0E02FA05F3CE1000F1200555F8AF
:101DB00026504E07F70E0F26BE40B543CF1000F158
:101DC000200646F82750CE1000F1200555F8265081
:101DD00045EA0304CE1000F1200545F82640F0BD89
:101DE000000002400004024000080240000C0240D3
:101DF000001002400014024000180240001C024083
:101E0000002002400024024000280240F9480068F7
:101E100040F00100F74908600020F64908310860E9
:101E2000F4480068F4490840F2490860F348091D85
:101E30000860F348EF4984310860F0481038091D04
:101E40000860EC48006820F48020EA49086000201F
:101E5000E8490C310860E7498C310860704700217F
:101E6000E44A921C117011460870704710B5014683
:101E70000022002300204A11012A02D1DD4C2368F0
:101E800008E0022A03D1DB4C7034236802E0D94C0D
:101E90007434236801F01F02012494401C400CB1EB
:101EA000012000E0002010BD38B500200090002483
:101EB000002500BF3120FFF7D9FF05460098401CE0
:101EC00000900098B0F5A04F01D0002DF2D0312045
:101ED000FFF7CCFF08B1012400E00024204638BD04
:101EE00001460020C34A106820F0F80040EAC10013
:101EF00010607047C349086070470021BD4A7032C6
:101F000011701170012802D004280AD104E00121C7
:101F1000B84A7032117005E00521B64A703211706E
:101F200000E000BF00BF7047B7490860704770B558
:101F3000049C41EA82150126C6EB530645EA064594
:101F4000054345EA0465AB4E361D356070BDAD49AD
:101F500008667047820142EA0172A64B84331A6018
:101F60007047A8498866704710B5830143EA01634A
:101F700043EA02739F4C8834236010BDA14908676F
:101F80007047A049C864704702460020994B083347
:101F9000186820F0EC6042EA01031843954B0833BF
:101FA0001860704702460020924B0833186820F0F2
:101FB000784042EA010318438E4B0833186070479B
:101FC000014600208B4A0832106820F003000843C5
:101FD0001060704787480830006800F00C007047B8
:101FE00001460020834A0832106820F0F0000843C0
:101FF00010607047014600207E4A0832106820F4C5
:10200000E05008431060704701460020794A0832CA
:10201000106820F4604040EAC10010607047F0B5DD
:10202000002100220024022500260223714F0837D8
:102030003F6807F00C0121B1042905D0082937D1E8
:1020400005E0724F076036E0714F076033E0694F7B
:102050003F1D3F68C7F38056664F3F1D3F6807F03E
:102060003F036EB16A4FB7FBF3F7DFF888C10CF19D
:10207000040CDCF800C0CCF3881C07FB0CF40CE06B
:10208000624FB7FBF3F7DFF86CC10CF1040CDCF81E
:1020900000C0CCF3881C07FB0CF4564F3F1D3F6873
:1020A000C7F301477F1C7D00B4FBF5F7076002E032
:1020B000564F076000BF00BF4E4F08373F6807F01C
:1020C000F0010909534F7A5C0768D7404760494FD0
:1020D00008373F6807F4E051890A4E4F7A5C476839
:1020E000D7408760434F08373F6807F46041490B8A
:1020F000484F7A5C4768D740C760F0BD002100F4C4
:102100004072B2F5407F0AD13A4A0832116821F490
:10211000F811414A02401143364A08321160354AEB
:1021200070321268C0F30B031A43324B70331A60DB
:102130007047354944390860704733494039086071
:10214000704736490860704701460020294A8C32A2
:10215000106820F01F004A1E1043264A8C3210607F
:10216000704701460020234A8C32106820F4F85052
:102170004A1E40EA02201F4A8C3210607047014616
:1021800000201C4A8C32106820F440100843106074
:10219000704701460020174A8C32106820F4400036
:1021A00008431060704701460020124A8C321068C4
:1021B00020F44030084310607047194908607047A8
:1021C00039B10C4A3032126802430A4B30331A607C
:1021D00006E0084A303212688243064B30331A60F8
:1021E0007047F9B1034A343212680243014B343369
:1021F0001A601CE000380240FFFFF6EA10300024AD
:102200000030002000004742800E47420024F400C6
:1022100000127A0042000020FFFCFF0F5C014742E1
:10222000E01147428F4A126882438E4B1A60704712
:1022300039B18C4A121D126802438A4B1B1D1A6069
:1022400006E0884A121D12688243864B1B1D1A60E5
:10225000704739B1834A0C3212680243814B0C3308
:102260001A6006E07F4A0C32126882437D4B0C33C1
:102270001A60704739B17B4A103212680243794BB9
:1022800010331A6006E0774A103212688243754BA9
:1022900010331A60704739B1724A243A1268024307
:1022A000704B243B1A6006E06E4A243A126882435F
:1022B0006C4B243B1A60704739B16A4A203A126865
:1022C0000243684B203B1A6006E0664A203A1268D7
:1022D0008243644B203B1A60704739B1614A1C3A13
:1022E000126802435F4B1C3B1A6006E05D4A1C3AD1
:1022F000126882435B4B1C3B1A60704739B1594AE4
:10230000143A12680243574B143B1A6006E0554AD0
:10231000143A12688243534B143B1A60704739B128
:10232000504A103A126802434E4B103B1A6006E0C6
:102330004C4A103A126882434A4B103B1A6070476D
:1023400039B1484A1C3212680243464B1C331A60AA
:1023500006E0444A1C3212688243424B1C331A6026
:10236000704739B13F4A2032126802433D4B203357
:102370001A6006E03B4A203212688243394B203310
:102380001A60704739B1374A243212680243354B1C
:1023900024331A6006E0334A243212688243314BF8
:1023A00024331A60704739B12E4A2C321268024326
:1023B0002C4B2C331A6006E02A4A2C3212688243D6
:1023C000284B2C331A60704739B1264A30321268D4
:1023D0000243244B30331A6006E0224A303212683E
:1023E0008243204B30331A607047012808D11D49C1
:1023F0003C31096841F008011A4A3C32116007E09B
:1024000018493C31096821F00801164A3C32116034
:10241000704739B1134A273A12780243114B273BD0
:102420001A7006E00F4A273A127882430D4B273B79
:102430001A7070470B484030006840F080700949BE
:1024400040310860704701460020064A283A126869
:102450000A400AB1012000E00020704701492639F6
:10246000087070473438024010B50446FA48844278
:1024700008D101211020FFF752FF00211020FFF7A3
:102480004EFF57E0F548844209D101214804FFF787
:1024900035FF00214FF40030FFF730FF4AE0F048ED
:1024A000844209D101218804FFF728FF00214FF45D
:1024B0008020FFF723FF3DE0EA48844209D1012153
:1024C000C804FFF71BFF00214FF40020FFF716FFA1
:1024D00030E0E548844209D101210805FFF70EFFED
:1024E00000214FF48010FFF709FF23E0DF4884420A
:1024F00008D101212020FFF712FF00212020FFF743
:102500000EFF17E0DA48844209D101218807FFF75E
:10251000F5FE00214FF08040FFF7F0FE0AE0D548BD
:10252000844207D101214005FFF7E8FE0021600544
:10253000FFF7E4FE10BD2DE9FF4705460E460024D7
:10254000A14600BFA046B08900B100BF2C8A24F488
:102550004054F08804432C82AC8941F20C608443DF
:10256000B08831890843718908430443AC81AC8A3F
:1025700024F44074B0890443AC826846FFF74FFDF1
:10258000B548854202D0B948854202D1DDF80C90A9
:1025900001E0DDF80890A88900F4004040B109EBA3
:1025A000C90000EB091031684900B0FBF1F707E002
:1025B00009EBC90000EB091031688900B0FBF1F7A5
:1025C0006420B7FBF0F004012009642101FB1078BE
:1025D000A88900F4004040B1322000EBC800B0FBF5
:1025E000F1F000F00700044308E0322000EB08108F
:1025F0006421B0FBF1F000F00F0004432C81BDE832
:10260000FF874FF41651016000218180C180018154
:102610000C21418100218181704710B502460020C4
:10262000108A20F470600B884C8823438C882343E5
:10263000CC8823431843108210BD002101804180C3
:102640008180C180704721B1828942F40052828129
:1026500004E082894DF6FF731A4082817047028B35
:1026600002F47F420283028B0A430283704721B146
:10267000828942F40042828103E08289C2F30E0221
:102680008281704721B1828A42F40062828204E032
:10269000828A4FF2FF731A4082827047C1F30802A8
:1026A0008280704701468888C0F308007047028A1C
:1026B0004FF6F0731A400282028A0A430282704780
:1026C00021B1828942F00202828104E082894FF6C0
:1026D000FD731A408281704782894FF2FF731A405E
:1026E000828182890A4382817047028A4FF6DF73B2
:1026F0001A400282028A0A430282704721B1028A8A
:1027000042F48042028204E0028A4BF6FF731A40D0
:1027100002827047818941F001018181704721B1B6
:10272000828A42F00802828204E0828A4FF6F773BE
:102730001A4082827047028BD2B20283028B42EA35
:1027400001220283704721B1828A42F020028282F4
:1027500004E0828A4FF6DF731A408282704721B10B
:10276000828A42F01002828204E0828A4FF6EF737E
:102770001A4082827047828A4FF6FB731A40828227
:10278000828A0A438282704721B1828A42F0020221
:10279000828204E0828A4FF6FD731A40828270477B
:1027A0001AB1838A0B43838202E0838A8B4383823C
:1027B0007047F0B50346002400260025002040F6AF
:1027C0006A17B94200D100BF1846C1F3421401F0A4
:1027D0001F06012707FA06F5012C01D10C3004E091
:1027E000022C01D1103000E014301AB107682F43D9
:1027F000076002E00768AF430760F0BD02460020B3
:10280000B1F5007F00D100BF13880B400BB1012050
:1028100000E00020704701F40072B2F5007F00D1A3
:1028200000BFCA430280704770B5024600240023EF
:102830000025002040F66A16B14200D100BFC1F366
:10284000421501F01F03012606FA03F3012D13D1EF
:102850009689334017E0000000100140004400401A
:1028600000480040004C004000500040001401406F
:1028700000780040007C0040022D02D1168A3340CF
:1028800001E0968A33400C12012606FA04F41688F9
:10289000344013B10CB1012000E0002070BD10B530
:1028A0000022002340F66A14A14200D100BF0A12A0
:1028B00001249440A3B2DC43048010BD10B504464B
:1028C000FE48844208D101210846FFF728FD002177
:1028D0000120FFF724FD9DE0B4F1804F08D10121D4
:1028E0000846FFF70BFD00210120FFF707FD91E0EF
:1028F000F348844208D101210220FFF7FFFC0021A8
:102900000220FFF7FBFC85E0EE48844208D101215C
:102910000420FFF7F3FC00210420FFF7EFFC79E02F
:10292000E948844208D101210820FFF7E7FC002193
:102930000820FFF7E3FC6DE0E448844208D1012160
:102940001020FFF7DBFC00211020FFF7D7FC61E02F
:10295000DF48844208D101212020FFF7CFFC00216D
:102960002020FFF7CBFC55E0DA48844208D1012152
:102970000220FFF7D4FC00210220FFF7D0FC49E041
:10298000D548844209D101210804FFF7C8FC002181
:102990004FF48030FFF7C3FC3CE0D048844209D1BB
:1029A00001214804FFF7BBFC00214FF40030FFF782
:1029B000B6FC2FE0CA48844209D101218804FFF700
:1029C000AEFC00214FF48020FFF7A9FC22E0C548AF
:1029D000844208D101214020FFF790FC00214020D3
:1029E000FFF78CFC16E0C048844208D1012180200A
:1029F000FFF784FC00218020FFF780FC0AE0BB4841
:102A0000844207D101218015FFF778FC0021A01531
:102A1000FFF774FC10BD00220288A84B98420ED02C
:102A2000AC4B98420BD0B0F1804F08D0A44B9842E9
:102A300005D0A44B984202D0A34B984204D14FF644
:102A40008F731A404B881A43A04B984207D0A04B73
:102A5000984204D04FF6FF431A400B891A43028074
:102A60004B68C3620B880385944B984202D0994B04
:102A7000984201D18B7A03860123838270474FF0FD
:102A8000FF314160002101800181418081727047E6
:102A90000185828270470A46002101884FF68F73B4
:102AA000194011430180704741627047C16270470D
:102AB0000146486A70470146088D704721B1028877
:102AC00042F00202028004E002884FF6FD731A40D1
:102AD0000280704721B1028842F00402028004E0C3
:102AE00002884FF6FB731A400280704721B10288BA
:102AF00042F08002028004E002884FF67F731A40A1
:102B00000280704702884FF6F7731A4002800288ED
:102B10000A430280704702884FF6FF431A40028042
:102B200002880A430280704721B1028842F0010204
:102B3000028004E002884FF6FE731A40028070475C
:102B400070B5002400220023058C4FF6FE76354038
:102B50000584028C8388048B4FF68F752C40B51E3C
:102B60002C400D882C43751E2A408D892A434D88A0
:102B70002A43524DA84202D0564DA84213D14FF6D7
:102B8000F7752A40CD892A434FF6FB752A408D8878
:102B90002A434FF6FF652B404FF6FF552B400D8A19
:102BA0002B434D8A2B43838004838D6845630284C5
:102BB00070BD70B5002400220023058C4FF6EF761F
:102BC00035400584028C8388048B48F6FF752C40C1
:102BD0004FF6FF452C400D884FF6FF7606EA052597
:102BE0002C434FF6DF752A408D8906EA05152A43E6
:102BF0004D8806EA05152A43304DA84202D0354DCE
:102C0000A8421DD14FF67F752A40CD894FF6FF7639
:102C100006EA05152A434FF6BF752A408D8806EA55
:102C200005152A434FF6FF352B404FF2FF752B4019
:102C30000D8A06EA85052B434D8A06EA85052B4356
:102C4000838004838D688563028470BD70B5002421
:102C500000220023058C4FF6FF6635400584028C68
:102C60008388848B4FF68F752C404FF6FC752C4073
:102C70000D882C434FF6FF552A408D894FF6FF767D
:102C800006EA05252A434D8806EA05252A430B4D09
:102C9000A84202D00F4DA84238D14FF2FF752A400A
:102CA000CD894FF6FF7606EA05252A434FF6FF3514
:102CB0002A408D8806EA05252A4319E000000140D4
:102CC0000004004000080040000C004000100040DC
:102CD0000014004000040140004001400044014055
:102CE0000048014000180040001C00400020004047
:102CF0004EF6FF752B404DF6FF752B400D8A06EA08
:102D000005152B434D8A06EA05152B4383808483E2
:102D10008D68C563028470BD70B500220023002455
:102D2000058C4EF6FF7635400584038C8488828BB3
:102D300048F6FF752A404FF6FF452A400D884FF6AA
:102D4000FF7606EA05252A434DF6FF752B408D894F
:102D500006EA05352B434D8806EA05352B43FE4D23
:102D6000A84202D0FD4DA84208D14BF6FF752C4079
:102D70000D8A4FF6FF7606EA85152C438480828300
:102D80008D680564038470BD0021018041808180CD
:102D900081608181C18101824182704770B50346A3
:102DA000002000241846183001258D40ACB21D8C3F
:102DB000A5431D8409B108290AD100EB610005680B
:102DC0004FF68F76354005600568154305600FE0C6
:102DD0000D1FC5F34E052844056848F6FF763540BB
:102DE000056005684FF6FF7606EA02263543056062
:102DF00070BD4163704781637047C1637047016470
:102E000070470A460021018B4FF68F73194011431A
:102E1000018370470A460021018B48F6FF73194071
:102E20004FF6FF7303EA02231943018370470A46F2
:102E30000021818B4FF68F731940114381837047B6
:102E40000A460021818B48F6FF7319404FF6FF7345
:102E500003EA02231943818370470A460021018B4C
:102E60004FF6F77319401143018370470A4600215A
:102E7000018B4FF2FF7319404FF6FF7303EA0223F1
:102E80001943018370470A460021818B4FF6F7737F
:102E900019401143818370470A460021818B4FF20C
:102EA000FF7319404FF6FF7303EA0223194381832E
:102EB00070470A460021018B4FF6FB7319401143FE
:102EC000018370470A460021018B4FF6FF331940FA
:102ED0004FF6FF7303EA02231943018370470A4642
:102EE0000021818B4FF6FB7319401143818370479A
:102EF0000A460021818B4FF6FF3319404FF6FF73CE
:102F000003EA02231943818370470A460021018B9B
:102F10004FF67F7319401143018370470A46002121
:102F2000018BC1F30E014FF6FF7303EA022319432D
:102F3000018370470A460021818B4FF67F73194049
:102F40001143818370470A460021818BC1F30E0132
:102F50004FF6FF7303EA02231943818370470A4641
:102F60000021018C4FF6FD73194011430184704715
:102F70000A460021018C4FF6F77319401143018472
:102F800070470A460021018C4FF6DF7319404FF657
:102F9000FF7303EA02131943018470470A460021B4
:102FA000018C4FF67F7319404FF6FF7303EA02134B
:102FB0001943018470470A460021018C4FF6FF53E4
:102FC00019404FF6FF7303EA022319430184704747
:102FD0000A460021018C4FF2FF7319404FF6FF7330
:102FE00003EA02231943018470470A460021018C39
:102FF0004DF6FF7319404FF6FF7303EA023319438E
:103000000184704730B5002301248C40A3B2048CA6
:103010009C430484048C02FA01F5ADB22C43048471
:1030200030BD30B5002304248C40A3B2048C9C43F3
:103030000484048C02FA01F5ADB22C43048430BD43
:10304000828B4FF2FF331A408283828B4FF6FF73DD
:1030500003EA01231A4382837047F0B50C461546F4
:10306000002100220026078C4EF6FF7C07EA0C07A1
:103070000784818B028C4FF6FF7707EA043640F60F
:10308000FF4739404FF6FF7707EA052739434FF6E8
:10309000FF7707EA0337394345F6FF773A4046F4AE
:1030A00080573A4381830284F0BD828B4FF6F373DD
:1030B0001A408283828B0A4382837047F0B50C46A4
:1030C0001546002100220026078C4FF6FF6C07EA08
:1030D0000C070784818B028C4FF6FF7707EA0426E2
:1030E0004FF60C7739404FF6FF7707EA03172F4367
:1030F00039434FF2FF573A4046F480773A43818391
:103100000284F0BD028B4FF2FF331A400283028B20
:103110004FF6FF7303EA01231A4302837047F0B5A9
:103120000C461546002100220026078C4FF6EF7C46
:1031300007EA0C070784018B028C4FF6FF7707EA3A
:10314000041640F6FF4739404FF6FF7707EA03378A
:1031500039434FF6FF7703E00000014000040140CF
:1031600007EA052739434FF65F773A4046F01007E4
:103170003A4301830284F0BD028B4FF6F3731A4089
:103180000283028B0A4302837047F0B50C46154652
:1031900000210022068C4FF6FE773E400684018B0C
:1031A000028C4FF60C7631407E1C06EA03162E4345
:1031B00031434FF6F576324044F001063243018345
:1031C0000284F0BD70B505460C46208850B92389AD
:1031D000A28861882846FFF7D8FFE1882846FFF7D4
:1031E000CBFF25E0208804280AD12389A2886188A2
:1031F0002846FFF794FFE1882846FFF783FF17E092
:10320000208808280AD12389A28861882846FFF7E8
:1032100055FFE1882846FFF748FF09E02389A28887
:1032200061882846FFF719FFE1882846FFF708FF65
:1032300070BD002101804180012181800021C18079
:10324000018170472DE9F04105460C460026012713
:10325000608808B9022600E00026A088012801D174
:10326000022700E001272088A0B92389A28861886D
:103270002846FFF78AFFE1882846FFF77DFF23896C
:103280003A4631462846FFF74AFFE1882846FFF7CD
:1032900039FF13E02389A28861882846FFF73FFFA2
:1032A000E1882846FFF72EFF23893A463146284613
:1032B000FFF76BFFE1882846FFF75EFFBDE8F0816E
:1032C0000146486B70470146886B70470146C86BE2
:1032D00070470146086C70470A884B881A438B88F0
:1032E0001A43CB881A430B891A434B891A438B899B
:1032F0001A43A0F84420704700210180418081805A
:10330000C180018141818181704731B1B0F8442091
:1033100042F40042A0F8442005E0B0F84420C2F393
:103320000E02A0F84420704721B1828842F00402C6
:10333000828004E082884FF6FB731A4082807047D7
:1033400021B1828842F00102828004E082884FF637
:10335000FE731A40828070471AB183890B438381C0
:1033600002E083898B4383817047818270470246E4
:103370000020138A0B400BB1012000E000207047B1
:10338000CA430282704730B5024600200023002461
:10339000158A05EA0103958905EA010413B10CB108
:1033A000012000E0002030BDCA430282704741EA9C
:1033B0000203A0F8483070471AB183890B43838118
:1033C00002E083898B438381704721B1828842F078
:1033D0000802828004E082884FF6F7731A408280E8
:1033E000704701894FF6F8721140018170470A4613
:1033F000002101894FF68F731940114301817047F5
:1034000030B504460D4629462046FFF7F0FF2089D7
:1034100040F00700208130BD2DE9F04104460D4603
:1034200016461F46602D06D13B46012231462046F6
:10343000FFF775FE05E03B46012231462046FFF7C7
:10344000A4FE29462046FFF7D2FF208940F007005E
:103450002081BDE8F08130B50C4600210189C9B258
:103460004FF6FF7505EA03251543254329430181DE
:1034700030BD2DE9F04105460E461746984600241A
:1034800043463A4631462846FFF7E5FF2C894FF67A
:10349000F870044044F007044FF68F70044044F085
:1034A00070042C81BDE8F081F0B504460D46164647
:1034B0001F463B46324629462046FFF7CCFF20896F
:1034C00040F480402081F0BD82884FF68F731A400F
:1034D000828082880A438280704702894FF6F8739F
:1034E0001A40028102890A430281704702894FF61D
:1034F0007F731A40028102890A4302817047F0B546
:103500000C4615461E460021002200230189028B2D
:10351000038C4FF6F877394021434FF6FC473A4089
:1035200040F201173A434FF6DD773B404FF6FF7705
:1035300007EA06172F433B43018102830384F0BD52
:1035400021B1828842F08002828004E082884FF6B6
:103550007F731A4082807047A0F850107047704700
:103560000FB4044910B503AA029800F035FB10BC53
:103570005DF814FB3C0000202DE9F04106460024D4
:1035800010687529314616A510D0AFF300800028C9
:1035900002DA404213A507E031688A0701D512A577
:1035A00002E0490704D511A5012401E0AFF3008032
:1035B00000210A2206F1240709E0B0FBF2FCB0FB6F
:1035C000F2F302FB1C00303078541846491C0028E6
:1035D000F3D123462A463046BDE8F04100F093B8C7
:1035E000000000002D0000002B0000002000000063
:1035F0002DE9F0474FF0000A89460446C0F820A0A4
:103600002046E1688847002876D0252806D0D4E9EE
:1036100001219047206A401C2062F1E7E1682046C2
:1036200000258847C4F81CA006460027C4F818A047
:103630002A2E09D0304601F04BF838B304EB870846
:10364000303EC8F8186019E059F8041B204604EB16
:1036500087029161E1688847012F064618D1E06929
:10366000002820DA25F020051DE0D8F8180000EB2E
:10367000800006EB40003038C8F818002046E168AA
:103680008847064601F024F80028EED1012F0AD021
:103690002E2E08D12046E16888477F1C0646022F5F
:1036A00045F02005C4DBA069002803DA404245F05C
:1036B0000105A061E80701D025F01005B6B1A6F11B
:1036C0004100192802D8203645F400654A463146A3
:1036D000204625604D46FCF791FD58B1012806D0E3
:1036E000ED1D25F0070000F1080989E704E005F168
:1036F000040985E730468AE7206ABDE8F08770470D
:103700007047704770472DE9F0470D46994692463D
:10371000044600F124080168880604D5E06921F018
:103720001001216000E00120A84201DD471B00E0FC
:103730000027A1697A1902EB0900081AA061207814
:10374000C00602D42046AFF30080002608E0D4E98A
:1037500001211AF806009047206A401C761C20625E
:103760004E45F4DB2078C0060AD52046AFF3008032
:1037700006E0D4E9012130209047206A401C2062F5
:10378000381EA7F10107F4DC07E0D4E9012118F89D
:1037900005009047206A401C2062281EA5F1010503
:1037A000F3DC2046AFF300802078000602D502202B
:1037B000BDE8F0870120FBE770472DE9FF4F0C467D
:1037C0001E464FF0FF378BB0D2E90001DDF8608074
:1037D0000A908A46C1F30A5505B93D4600210846BC
:1037E0004FF00000BAF1000F00F4400005DA00EBE2
:1037F00080004FF4400101EA50004FEA9059B9F1BE
:10380000010F00DDB9460A9850EA4A000ED044F68E
:103810001050A5F2FF3545432F14B8F1000F1ED00C
:103820007542291E1EDDC9F100021CE0B8F1010F2E
:103830004FF0000001D0302103E0F24305E02154B5
:10384000401CB042FBDB30460022002121540B9982
:10385000C1F80880C1E900200FB0BDE8F08FBD1BA2
:103860006D1CDEE74A4600DA694206A800F068FAF5
:1038700006AB93E8070003AB83E8070050460A99BC
:1038800000F046FB8DE80700A0F500501F380090BF
:103890000398002D0ADD42F21F014A460844002326
:1038A00003A90390684600F0AFFD09E0A0F50050C1
:1038B0004A461F38002303A90390684600F0B9FD6B
:1038C0008DE807000004000C03D04FF0FF304108E2
:1038D00000E01046B8F1000F03D000220092154618
:1038E0001EE0751E05D400F08DF9303262556D1E54
:1038F000F9D5B3460122084302D000227F1C04E020
:103900002078302801D100227F1E002A099784D018
:103910001DE0112D07DA00F075F9303262556D1C8B
:1039200050EA0102F5D1084302D00098C8B10EE078
:103930000021681E05E0235C625C63542254401E33
:10394000491C8142F7DBAB46A81B401E09900020B2
:1039500004F80B000B98099AC0F80880C0E9002B06
:103960007AE711264FF0000857E72DE9F04F884617
:103970000446D21D22F0070191B0D1E90001CDE942
:103980000A0100F08DFE02460B98C00F01D02D20D9
:1039900007E02068810701D52B2002E0202101EA01
:1039A000C000032A099001D0072A05DB03464146DF
:1039B000204600F085F90BE12078800601D5E0690A
:1039C00000E00620B8F1650F814606D0B8F1660F19
:1039D00018D0B8F1670F70D131E00020B9F1110FA4
:1039E000009001DB112301E009F101030AAA01A9FA
:1039F0000CA8FFF7E2FEDDE90C70002609F10105D5
:103A0000834647E001204B4600904FF000470AAA4A
:103A100001A90CA8FFF7D1FEDDE90DB00C995D46B8
:103A2000002610B909F101000D18B9EB050003D407
:103A3000C0F1FF3609F10105A5EB09002BE0B9F152
:103A4000010F01DA4FF001090020B9F1110F0090C8
:103A5000484601DD112300E003460AAA01A90CA88B
:103A6000FFF7ABFEDDE90C704D460026834620785B
:103A700000070AD4AB4500DA5D4601A8012D04DD3C
:103A8000411911F8011C302907D04F4502DA17F10E
:103A9000040F04DA012082460FE06D1EEEE7002FCE
:103AA00002DCED1B3E4403E0781CA84200DD7D1CD7
:103AB000B81B00F1010A4FF000472078000703D43B
:103AC000AA4501DB4FF0FF3A0021B7F1004F0DF19D
:103AD00043088DF8431024D002202B23002F01DA55
:103AE0007F422D230A21021EA0F1010000DC5FB1FC
:103AF00097FBF1FC97FBF1F201FB1C7C17460CF1E4
:103B0000300C08F801CDEEE7A8F101000370218820
:103B1000090501D5452100E06521A0F1010800F863
:103B2000011C09980FA9A1EB0807FF1D00B1012096
:103B3000411901EBEA70A1693844081A401EA061DE
:103B40002078C00602D42046AFF30080099828B13F
:103B5000D4E901219047206A401C20622078C006E9
:103B600022D52046AFF300801EE0002E04DBB345D3
:103B700002DD01A8805D00E03020D4E901219047FA
:103B8000206A401C2062761CAAF101005FEA000A4C
:103B90000AD100F033F8C0680168405CD4E9012123
:103BA0009047206A401C2062281EA5F10105DCDC3C
:103BB00007E0D4E9012118F8010B9047206A401C66
:103BC0002062381EA7F10107F3DC2046AFF3008026
:103BD000032011B041E60000074B70B50D467B4451
:103BE00000F05BF80446284600F01CF910B14FF0D5
:103BF000FF3070BD204670BD33DDFFFF00487047C9
:103C0000BC05002030B5B0F10A024FEA900E71F108
:103C100000034EEA817EB0EB0E0061EB91014FEAAA
:103C2000101E4EEA017E10EB0E0041EB11114FEA1F
:103C3000102E4EEA016E10EB0E0041EB11214FEAFF
:103C4000104E4EEA014E10EB0E0041EB11414018B0
:103C500041F100014FEAD00040EA41704FEAD10142
:103C600010EB80054FEA810444EA907444EB0104B0
:103C70006D1944EB0404521BA3414FF0000348BFED
:103C80000A3200D530BD401C41F1000130BD0000BA
:103C900001694A1C02610878704700B58FB0CDE910
:103CA00001310021059105497944CDE90310114600
:103CB0006846FFF79DFC0FB000BD0000E5FFFFFF69
:103CC0002DE9F0411F46044603260168072A01F446
:103CD000006004DB08B116A505E016A503E008B1F5
:103CE00015A500E015A521F010002060A069C01EF8
:103CF000A0610FB1401EA0612046AFF300804FB11C
:103D0000D4E9012138469047206A401C2062C01C3B
:103D1000206206E0206AFAE7D4E9012115F8010BD8
:103D20009047761EF8D22046AFF30080BDE8F081C0
:103D30004E414E006E616E00494E4600696E66004F
:103D40002DE9F047814616468AB0354878440DC8BB
:103D50008DE80D0032487844801C03AC0DC884E81F
:103D60000D0041F69B300844372190FBF1F290FBA7
:103D7000F1F5A5F1800501FB12041B3C02D564425C
:103D8000012000E00020DFF898A080460027FA44D8
:103D9000AAF1BE0A0EE0E0070AD03246684607EBF9
:103DA000470101230AEB810100F043FB8DE8070086
:103DB00064107F1C002CEED1194F7F44AE3F19E0F8
:103DC000E80715D007EB04100DF1180A90E80E0073
:103DD0008AE80E00C068F04201D198190890324676
:103DE000012306A903A800F024FB03AB83E8070026
:103DF0006D10641C002DE3D14FF00103324669467B
:103E0000B8F1000F03A802D000F0FEFA01E000F0C4
:103E100010FBC9E90001C9F808200AB0BDE8F08725
:103E2000842E0000007B00F080007047004870473F
:103E30009C0500207546FFF7F9FFAE460500694670
:103E4000534620F00700854618B020B5FDF712FE56
:103E5000BDE820404FF000064FF000074FF000088B
:103E60004FF0000B21F00701AC46ACE8C009ACE80C
:103E7000C009ACE8C009ACE8C0098D46704710B570
:103E80000446AFF300802046BDE81040FCF7D5B9EA
:103E90004FF0013C50F8042B51F8043B9A4221D1D9
:103EA000A2EB0C03934313EACC1317D150F8042B65
:103EB00051F8043B9A4215D1A2EB0C03934313EA49
:103EC000CC130BD150F8042B51F8043B9A4209D182
:103ED000A2EB0C03934313EACC13DBD04FF00000AA
:103EE000704700BFD01A01BAB1FA81F101F0180190
:103EF00022FA01F0CB40C1F12001DBB2C0B2C01AFE
:103F00002CFA01F3D11A914311EAC311E6D170479B
:103F10005FEA400C08BF91F0000F4FEA8C234FEA94
:103F2000C12243EA51514FEA1C5018BF00F5F0403E
:103F30004FEA300018BF41F000415FEA6C5C00F0CE
:103F40002980BCF1FF3F08BF40F080407047130C50
:103F500006BF12044FF0100C4FF0000C130E04BFFC
:103F600012020CF1080C130F04BF12010CF1040C27
:103F7000930F04BF92000CF1020CD30F04BF520048
:103F80000CF1010C11464FF00002A0F11F00A0EB54
:103F90000C00704711F0004F08BF704731F000412E
:103FA0003FF4D5AF0B0C06BF09044FF0100C4FF0D7
:103FB000000C0B0E04BF09020CF1080C0B0F04BF20
:103FC00009010CF1040C8B0F04BF89000CF1020CE9
:103FD000CB0F04BF49000CF1010CCCF12003A0EB86
:103FE0000C0022FA03F302FA0CF241EA030100F199
:103FF0000100704720F07F4C80EA030023F07F47E8
:10400000ACEB070303F57C5300F0004003F1FF0322
:104010002DE980494FEA154B09B44FEA144325EACC
:104020000B4E24EA03480FF2042606EB1327490837
:104030003E785FEA320203FB0667C7F5000707FB1D
:1040400006F64FEA54374FEAD64606F1020607FB5A
:10405000066CCCF1005C4FEA1C472CEA074C07FBCE
:1040600006F40CFB06F504EB15464FEA961634BF32
:1040700000204FF000404FEAD13706FB07FC4FEA23
:104080001C4C0CFB0BF7D21B03FB0CF761EB07017D
:104090000CFB0EF7B0EB074072EB17420CFB08F776
:1040A00034BFA2EB0742B2EB074261EB17414FEA84
:1040B0000C444FEA910706FB07FC4FEA1C4C0CFB33
:1040C0000BF7B0EBC74072EB573203FB0CF734BF72
:1040D000A2EBC742B2EBC74261EB57310CFB0EF7C4
:1040E000B0EBC70072EB57720CFB08F734BFA2EBC2
:1040F000C702B2EBC70261EB5771039F4FEA8161C0
:1041000041EA921104EBCC044FEAD1374FEA8262C4
:1041100006FB07FC42EA90124FEA80604FEA1C4C13
:104120000CFB0BF7D21B03FB0CF761EB07010CFB3D
:104130000EF7B0EB074072EB17420CFB08F734BFE9
:10414000A2EB0742B2EB074261EB17414FEA8C55F5
:104150004FEA910704EB9C2406FB07FC4FEA1C4C3A
:104160000CFB0BF7B0EBC74072EB573203FB0CF7BD
:1041700034BFA2EBC742B2EBC74261EB57310CFB35
:104180000EF7B0EBC70072EB57720CFB08F734BFA9
:10419000A2EBC702B2EBC70261EB577115EB4C25DE
:1041A0004FEA816141EA92114FEA82624FEAD137C8
:1041B00042EA901206FB07FC44F100044FEA8060DB
:1041C0004FEA1C4C0CFB0BF7D21B03FB0CF761EB0B
:1041D00007010CFB0EF7B0EB074072EB17420CFB2C
:1041E00008F734BFA2EB0742B2EB074261EB17417D
:1041F00015EB1C154FEA813141EA92414FEA8232B8
:1042000042EA90424FEA80304FEA0C7644F10004D3
:1042100048EA03434EEA0B484FF0000EB2EB080C9D
:1042200071EB030724BF624639464EEB0E0E4FF08A
:10423000000B0018524149414BEB0B0BB2EB080C41
:1042400071EB03077BF1000B24BF624639464EEB4E
:104250000E0E4FF0000B0018524149414BEB0B0B77
:10426000B2EB080C71EB03077BF1000B24BF624635
:1042700039464EEB0E0E51EA020718BF46F0010612
:1042800016EB0E7655F1000254F1000103D5BDE89E
:104290008901BDE80088BDE88901BDE80048B6197C
:1042A000524141EB0101A3F10103704780807F7E01
:1042B0007D7C7B7A7978777676757473727171709C
:1042C0006F6E6E6D6C6C6B6A6A696868676666654E
:1042D0006464636362616160605F5F5E5E5D5D5CDC
:1042E0005C5B5B5A5A59595858575756565555554D
:1042F0005454535352525251515050504F4F4F4EAD
:104300004E4D4D4D4C4C4C4B4B4B4A4A4A494949FA
:10431000484848474747474646464545454444443C
:10432000444343434342424242414141002B9C4665
:1043300030D477002BD01CB54FEA370703B44FF0C9
:1043400010004FF01001BAF1000F06D0BCF1000FC1
:10435000DCBF40F0080040F008014FF000000FBC47
:10436000BDE810400BF1010BBBF1010F08BF5FEA84
:10437000170722BF12F1010211F101014FF00041B4
:1043800043F1000300F0004043EA00007047F9D316
:104390005708D0E746EA064613F1400F4FEA1646A3
:1043A0001FDD13F1200FDFBF16430A460021203323
:1043B0005B42BED0C3F1200746EA064602FA07F781
:1043C0004FEA164646EA0706C3F1200722FA03F22F
:1043D00001FA07F721FA03F14FF0000342EA07025E
:1043E000A7E746EA020646EA06464FEA164646EAC6
:1043F0000106BCBF46EA0646360C4FF000034FF0FC
:1044000000024FF0000194E72DE9804C9A46934654
:1044100070B491E8380007C831EA400C48BF34EA6C
:10442000430C03D5FFF7E6FDFFF780FFF0BCBDE8C6
:10443000008C2DE9804C9A46934670B491E8380080
:1044400007C810F0804F08BF13F0804F03D100F071
:1044500005F8FFF76BFFF0BCBDE8008C20F07F474C
:1044600080EA030023F07F4C07EB0C03A3F57C5399
:1044700000F00040A3F1FE0392F0000F00F0B380C3
:1044800095F0000F00F077802DE901494FEA1140C7
:104490004FEA144621EA004800FB06FC24EA0647DE
:1044A00008FB06F607FB08F800FB07F718EB0648C1
:1044B0004CEB164C4FEA124B18EB07484FEA1546E7
:1044C0004CEB174022EA0B4E0BFB06FC25EA064795
:1044D0000EFB06F607FB0EFE0BFB07F71EEB064E68
:1044E0004CEB164C4FF000061EEB074E4CEB174BF7
:1044F00018EB0B0840F1000018EB0E0B58EB00080E
:1045000040F100008F1A4FF000013CBFC943661B09
:1045100014BFB5EB040C00213CBFC943F61B4FEAA6
:1045200017444EEA8E0E27EA04454FEA1C4704FB67
:1045300007622CEA074C05FB07F70CFB05F604FBAA
:104540000CFC16EB074642EB174216EB0C4642EB0F
:104550001C421BEB060658EB0202414146EA9E064E
:1045600001D5BDE80189B619524141EB0101A3F122
:104570000103BDE801894FEA14454FEA114724EAD7
:10458000054621EA074C05FB07F406FB07F70CFB81
:1045900006F105FB0CFC11EB074144EB17444FEA15
:1045A000124711EB0C4144EB1C4422EA074C05FB7B
:1045B00007F206FB07F70CFB06F605FB0CFC16EBF7
:1045C000074642EB174216EB0C4642EB1C456A18B5
:1045D00054F1000148BF7047B619524141EB010147
:1045E000A3F10103704795F0000F37D04FEA114255
:1045F0004FEA144721EA024624EA074C02FB07F17E
:1046000006FB07F70CFB06F402FB0CFC14EB07445B
:1046100041EB17414FEA154714EB0C4441EB1C41A9
:1046200025EA074C02FB07F506FB07F70CFB06F62D
:1046300002FB0CFC16EB074645EB174516EB0C4648
:1046400045EB1C42121951F1000148BF7047B619E1
:10465000524141EB0101A3F1010370474FEA1445B8
:104660004FEA114724EA054621EA074C05FB07F10A
:1046700006FB07F70CFB06F24FF0000605FB0CFCEF
:1046800012EB074241EB174112EB0C4251EB1C417C
:1046900048BF7047921841EB0101A3F10103704735
:1046A00003B401984100009850EAC12018BF0420CB
:1046B0004A0D18BF40F0010040F2FF72B2EB515FAB
:1046C00008BF40F00200012808BF052002B0704773
:1046D00030380A2801D201207047002070470000BE
:1046E00010B500290AD00878002807D0054878447A
:1046F000FFF7CEFB002801D0002010BD024878440F
:1047000010BD00001E2500001625000021F000420B
:10471000A2F16052B2F5801F01F0004328BFD2F130
:104720007F6C0BD95FEA001C43EAC20242EB507077
:1047300018BF704728BF20F001007047B2F5801FF6
:10474000BCBF184670474FEA410C1CF5001F02D24F
:10475000084600F0F1BA70B500F024FA00000089B4
:10476000FFF7F6BF4FF00040A0F580007047000053
:104770002DE9C04130B4DFF8A0C23CEA111418BFE3
:104780003CEA131400F0EC8081EA03051CEA1114E2
:1047900044EAD57418BF1CEA131500F0C780A4EBD7
:1047A00005044FF0004545EAC12145EAC32341EA2B
:1047B000505143EA525304F17F74994204F5003496
:1047C0004FEAC0204FEAC22208BF904200F09C800E
:1047D0004FEA13650FF24016765D4FEA134506FB6C
:1047E00005F7C7F1807706FB07F74FEAD737A7FB36
:1047F00003687642C8F58038A7FB06CE38BFA8F11B
:10480000010807FB08E64FF0000EA6FB028CE6FB52
:1048100003CEDCF1000CCEF1004E38BFAEF1010E3C
:10482000A6FB0C584FF000074FF00005E6FB0E8783
:10483000A1FB08C6A0FB07CE16EB0E0645F100054E
:10484000E1FB076515F1E04E7EBFA4F580345FEA19
:1048500046066D4116F1800745F100054FEA17271E
:104860004FEA066647EA0567A6F1DE46B6F1805FC5
:104870004FEA15251FD9384624F0010C05EBC47109
:10488000BCF1FE6F01EB0C1102D8F0BCBDE8008159
:1048900024425CBF01F5801E9EEAC47F02D4F0BCB6
:1048A000BDE80081244238D4F0BCA1F1C041BDE88C
:1048B000004100F0C5B94FEAD22242EA43524FEA22
:1048C000D323A7FB02864FEAD02040EA415007FBE2
:1048D00003661EEA0E0F4FEAD12105FB026658BFA0
:1048E000A6EB0056B6EB00564FEA520E4EEAC37ED8
:1048F00018EB0E0E56EB530EBDD518EB02085E41B9
:104900007F1C55F10005B6E74FF480154FF0000706
:104910004FF000064FF00008ADE7F0BC4FF000008C
:1049200001F1C04101F00041BDE8008111EA0C1F16
:104930000CEA131500D00CE013EA0C1F00F02580E0
:104940004FF00000F0BC81EA030101F00041BDE836
:104950000081F0BCBDE8004181EA030100F070B9BC
:10496000F0BCBDE8004170B500F01CF9097EFC3ECA
:1049700000F007B881EA03014FF0000001F00041A8
:10498000704781EA030100F05BB9F0BCBDE800416B
:104990004FF0000021497047FFFDFBF9F7F5F4F2F5
:1049A000F0EEEDEBE9E8E6E4E3E1E0DEDDDBDAD8CA
:1049B000D7D5D4D3D1D0CFCDCCCBCAC8C7C6C5C428
:1049C000C2C1C0BFBEBDBCBBBAB9B8B7B6B5B4B33F
:1049D000B2B1B0AFAEADACABAAA9A8A8A7A6A5A42A
:1049E000A3A3A2A1A09F9F9E9D9C9C9B9A999998EE
:1049F0009797969595949393929191908F8F8E8E91
:104A00008D8C8C8B8B8A898988888787868585841D
:104A100084838382828181800000FF070000F87F09
:104A200010F0004248BF4042B0FA80F310FA03F1A0
:104A30000AD0C3F11D0303F580634FEA415002EB36
:104A4000035202EBD12170474FF000007047000085
:104A5000DFF848C170B51CEA111E1EBF1CEA131511
:104A60009EEA0C0F95EA0C0F00F06F8081EA0304B8
:104A700023EA4C134EEAD47E21EA4C1141F4801112
:104A800043F48013AE44A1FB024CA0FB0365AEF1DE
:104A90007F7E361955EB0C05A1FB034C4CF100034E
:104AA000A0FB021C16EB0C06654153F10003094202
:104AB00018BF46F0010613F4007F0BD14FEA033113
:104AC0004FEA0530340341EA155140EA16506FF0C1
:104AD00003020AE04FEAC3214FEAC520F40241EA8B
:104AE000555140EA56506FF0020202EB2E4201EBA4
:104AF000025585EACE710AD05FEA440C18BF24F053
:104B0000004450F1000041F1000120EAD47040F26D
:104B1000FE7C624500D270BDA84214BF4FF08044B5
:104B20004FF04044002E08BF0024BEF1806FA8BFA4
:104B3000A1F1C041BDE8704080F282804FF00000DA
:104B400001F1C04101F0004170479EEA0C0F0CEAF0
:104B5000131518BF95EA0C0F06D04FF0000081EA3C
:104B6000030E0EF0004170BD00F01CF88900013EFC
:104B700000F007B800F009B84FEA430C5FEA5C5C4C
:104B800008D081EA030100F05BB84FEA410C5FEA0C
:104B90005C5CF6D14FF00000014970470000FF0750
:104BA0000000F87F0EF1020E2EF0030E5EF8046B8B
:104BB000364205D4012A43EB030515F5001F12D830
:104BC000012841EB010C1CF5001F0CD80ED14FEA57
:104BD000D17C15F5001F0CEB4C0C0CF1020C08BF3E
:104BE0004CEBD37C04E04FF0080C01E04FEAD37C9F
:104BF0000CEB4C0526FA05F606F00706B6F1040C98
:104C000006D20EEB860CBDE870404CF0010C6047FC
:104C1000DFE80CF0090B02024FF000414FF00000FA
:104C2000A1F5002170BD19461046012851EB010481
:104C300018BFD4F5001484BF002001F0004170BDFE
:104C40000808A0F500114FEA3101704743004FEA10
:104C5000D30C4FEA3C0C43401FBF40070CF160519E
:104C600013F0FE4F70471CF0006F03D100200CF0D2
:104C7000004170470CF0004343EA507010B540EA21
:104C8000CC0000F00EF800BF000000924FEA0001D7
:104C9000FFF7D6BF4FF000414FF00000A1F5002113
:104CA00070470EF1020E2EF0030E5EF8044B244204
:104CB00004D44FEA4102B2F17F4F11D84FEA4003CA
:104CC000B3F17F4F0CD80ED14FEAD07CB2F17F4FB9
:104CD0000CEB4C0C0CF1020C08BF4CEBD17C04E04B
:104CE0004FF0080C01E04FEAD17C0CEB4C0324FAA6
:104CF00003F404F00704B4F1040C06D20EEB840CA8
:104D0000BDE810404CF0010C6047DFE80CF00708EC
:104D100002024FF00040A0F5800010BD084642009E
:104D200018BFD2F1807288BF00F0004010BD4FF074
:104D30004070E1EE100A7047FF2141EAD050C005F3
:104D40007047FEF712BE0000000000000000002FB8
:104D5000000000000700070000147F147F140024E7
:104D60002A7F2A1200626408132300364955225014
:104D700000000503000000001C2241000000412249
:104D80001C000014083E08140008083E0808000033
:104D900000A060000008080808080000606000002B
:104DA000002010080402003E5149453E0000427FA9
:104DB0004000004261514946002141454B310018F5
:104DC00014127F10002745454539003C4A494930B7
:104DD0000001710905030036494949360006494971
:104DE000291E00003636000000005636000000087C
:104DF0001422410000141414141400004122140859
:104E000000020151090600324959513E007C12113D
:104E1000127C007F49494936003E41414122007FD2
:104E20004141221C007F49494941007F090909018C
:104E3000003E4149497A007F0808087F0000417F11
:104E40004100002040413F01007F08142241007FC3
:104E500040404040007F020C027F007F0408107F2A
:104E6000003E4141413E007F09090906003E415193
:104E7000215E007F09192946004649494931000150
:104E8000017F0101003F4040403F001F2040201FA4
:104E9000003F4038403F0063140814630007087067
:104EA000080700615149454300007F41410000551A
:104EB0002A552A55000041417F00000402010204E6
:104EC00000404040404000000102040000205454D3
:104ED0005478007F48444438003844444420003823
:104EE0004444487F00385454541800087E09010295
:104EF0000018A4A4A47C007F080404780000447D6A
:104F00004000004080847D00007F102844000000A5
:104F1000417F4000007C04180478007C0804047879
:104F200000384444443800FC242424180018242465
:104F300018FC007C08040408004854545420000461
:104F40003F444020003C4040207C001C2040201C6E
:104F5000003C4030403C004428102844001CA0A0E5
:104F6000A07C004464544C44141414141414000021
:104F7000000000000000000000000000FC00000035
:104F8000000002000000000C020C02000000000003
:104F9000000090D0BCD0BC90000300030000182497
:104FA000FE448C000302070201001824D8B04C8094
:104FB000000300010201C038E438E00001020201F0
:104FC00002020806000000000000000000000000CF
:104FD00000F80402000000010204000204F80000CE
:104FE0000004020100009060F860900000000100E1
:104FF00000002020FC202000000001000000000034
:1050000000000000080600000000202020202000F2
:10501000000000000000000000000000000200008E
:1050200000000080601C0200040300000000F8047F
:105030000404F8000102020201000008FC00000064
:105040000002030200001884442418000302020234
:10505000020008042424D80001020202010040B02A
:1050600088FC80000000000302003C242424C400CB
:10507000010202020100F824242CC00001020202F5
:1050800001000C04E41C0400000003000000D8240C
:105090002424D80001020202010038444444F800EC
:1050A00000030202010000001000000000000200E6
:1050B00000000000200000000000060000000020AA
:1050C000508804020000000001029090909090002F
:1050D00000000000000000020488502000020100CF
:1050E00000001804C4241800000002000000F804A6
:1050F000E494F80001020202020000E09CF080004B
:1051000002030000030204FC2424D800020302026C
:105110000100F80404040C0001020202010004FC76
:105120000404F80002030202010004FC24740C00D1
:1051300002030202030004FC24740C0002030200B8
:105140000000F0080444CC4000010202010004FC0D
:105150002020FC040203000003020404FC040400F9
:10516000020203020200000404FC04040604040317
:10517000000004FC24D00C0402030200030204FC1F
:1051800004000000020302020203FC3CC03CFC00DD
:1051900003000300030004FC30C4FC04020302000B
:1051A0000300F8040404F80001020202010004FCF8
:1051B00024241800020302000000F8848404F8008C
:1051C00001020207050004FC2464980002030200A7
:1051D0000302182424448C000302020201000C0480
:1051E000FC040C0000020302000004FC0000FC04AC
:1051F000000102020100047C80E01C0400000300A6
:1052000000001CE03CE01C00000300030000049CC4
:10521000609C0400020300030200041CE01C040064
:105220000002030200000C84641C0400020302025A
:1052300003000000FE020200000007040400000E4C
:1052400030C00000000000010200000202FE000069
:105250000004040700000004020400000000000035
:10526000000000000000000008080808080800000E
:10527000020000000000000000000040A0A0C000EC
:1052800000010202030204FC2020C000000302020D
:10529000010000C02020600000010202020000C0E6
:1052A0002024FC0000010202030200C0A0A0C000F4
:1052B0000001020202000020F8242404000203027C
:1052C00002000040A0A0602000070A0A0A0404FCB3
:1052D0002020C0000203020003020020E4000000BE
:1052E000000203020000000020E400000808080794
:1052F000000004FC80E020200203020003020404FA
:10530000FC000000020203020200E020E020C000D6
:1053100003000300030020E02020C000020302007D
:10532000030200C02020C00000010202010020E0B2
:105330002020C000080F0A02010000C02020E00069
:105340000001020A0F0820E04020200002030200B2
:1053500000000060A0A02000000202020300002064
:10536000F820000000000102020020E00020E00020
:1053700000010202030220E02080602000000301FF
:1053800000006080E08060000003000300002060F7
:105390008060200002030003020020E020806020E3
:1053A0000808070100000020A0602000000203029E
:1053B0000200000020DE02000000000704000000E0
:1053C00000FF00000000000F00000002DE200000CF
:1053D00000040700000002010204040200000000B3
:1053E00000000000000000000000000000000000BD
:1053F0000000000000F80000000000000033300052
:10540000000000100C06100C060000000000000058
:10541000000040C07840C0784000043F04043F04CE
:105420000400007088FC08300000001820FF211ED6
:105430000000F008F000E018000000211C031E210D
:105440001E0000F00888700000001E212324192788
:10545000211010160E0000000000000000000000E7
:105460000000000000E018040200000000071820FF
:10547000400000020418E00000000040201807006F
:105480000000404080F0804040000202010F010215
:105490000200000000F0000000000101011F0101F6
:1054A0000100000000000000000080B0700000005B
:1054B00000000000000000000000000101010101E7
:1054C000010100000000000000000030300000007A
:1054D0000000000000008060180400601806010051
:1054E000000000E010080810E000000F102020105D
:1054F0000F00001010F8000000000020203F2020C6
:10550000000000700808088870000030282422215C
:105510003000003008888848300000182020201112
:105520000E000000C02010F8000000070424243FF3
:10553000240000F80888880808000019212020119C
:105540000E0000E0108888180000000F11202011C4
:105550000E0000380808C83808000000003F0000AE
:1055600000000070880808887000001C2221212299
:105570001C0000E010080810E00000003122221199
:105580000F00000000C0C00000000000003030002C
:1055900000000000008000000000000080600000AB
:1055A00000000000804020100800000102040810E4
:1055B00020004040404040404000040404040404F3
:1055C00004000008102040800000002010080402A1
:1055D0000100007048080808F000000000303601A3
:1055E0000000C030C828E810E00007182724231462
:1055F0000B000000C038E0000000203C230202271E
:10560000382008F8888888700000203F202020116A
:105610000E00C030080808083800071820202010A5
:10562000080008F808080810E000203F202020109B
:105630000F0008F88888E8081000203F2020232069
:10564000180008F88888E8081000203F20000300B0
:105650000000C03008080838000007182020221E6B
:10566000020008F808000008F808203F2101012185
:105670003F20000808F8080800000020203F2020F4
:10568000000000000808F8080800C08080807F0043
:10569000000008F888C028180800203F200126389C
:1056A000200008F8080000000000203F20202020F3
:1056B000300008F8F800F8F80800203F003F003FED
:1056C000200008F830C00008F808203F2000071824
:1056D0003F00E01008080810E0000F102020201004
:1056E0000F0008F808080808F000203F2101010118
:1056F0000000E01008080810E0000F1824243850BB
:105700004F0008F8888888887000203F2000030C2C
:105710003020007088080808380000382021212235
:105720001C00180808F8080818000000203F200096
:10573000000008F808000008F808001F20202020BA
:105740001F000878880000C83808000007380E01DC
:105750000000F80800F80008F800033C0700073CC8
:105760000300081868808068180820302C03032C78
:1057700030200838C800C83808000000203F20004A
:10578000000010080808C83808002038262120200A
:105790001800000000FE020202000000007F4040EE
:1057A0004000000C30C0000000000000000106387E
:1057B000C00000020202FE000000004040407F00E6
:1057C00000000000040202020400000000000000CB
:1057D00000000000000000000000808080808080C9
:1057E00080800002020400000000000000000000B1
:1057F0000000000080808080000000192422222206
:105800003F2008F8008080000000003F1120201198
:105810000E000000008080800000000E112020207B
:105820001100000000808088F800000E1120201078
:105830003F200000808080800000001F2222222262
:105840001300008080F0888888180020203F2020E6
:1058500000000000808080808000006B949494930E
:10586000600008F8008080800000203F21000020B8
:105870003F2000809898000000000020203F20205A
:105880000000000000809898000000C08080807FA9
:10589000000008F8000080808000203F24022D30A6
:1058A0002000000808F8000000000020203F202011
:1058B00000008080808080808000203F20003F208A
:1058C000003F8080008080800000203F2100002079
:1058D0003F200000808080800000001F20202020CA
:1058E0001F00808000808000000080FFA120201128
:1058F0000E000000008080808000000E112020A09B
:10590000FF80808080008080800020203F21200058
:105910000100000080808080800000332424242443
:105920001900008080E0808000000000001F20201F
:1059300000008080000000808000001F20202010D8
:105940003F20808080000080808000010E300806AB
:10595000010080800080008080800F300C030C30BC
:105960000F0000808000808080000020312E0E31EA
:105970002000808080000080808080818E701806EA
:10598000010000808080808080000021302C222156
:10599000300000000000807C020200000000003F98
:1059A000404000000000FF00000000000000FF0079
:1059B00000000002027C800000000040403F000028
:1059C00000000006010102020404000000000000C3
:1059D00000000000000000000000000000000000C7
:1059E00000000000000000000000000000000000B7
:1059F0000000000000000000000000F0F0F00000D7
:105A000000000000000000017F0100000000000015
:105A10000000001C1C1C0000000000008060301C06
:105A20008C60301C0C000000000000000000000032
:105A30000000000000000000000000000000000066
:105A400000E00000000000E000000086E69F86867F
:105A50008686E69F860000011F01010101011F01EA
:105A60000100000080C06020F820E0C000000000BD
:105A700003070C18FF70E18100000000070F1010F1
:105A80007F100F0700008060206080000000E02091
:105A900000000F3020309F70DC371030C000000055
:105AA000100E03000718101807000000C02020E0A7
:105AB000C0000000000080E01F38E88703C43C04F9
:105AC0000000070F1810100B070D101008000080C1
:105AD0008C4C3800000000000000000000000000B6
