:020000040800F2
:10000000D8060020B50D0008AD040008AF040008B4
:10001000B3040008B7040008BB0400080000000097
:10002000000000000000000000000000BF04000805
:10003000C104000800000000C3040008C504000853
:10004000CF0D0008CF0D0008CF0D0008CF0D000820
:10005000CF0D0008CF0D0008CF0D0008CF0D000810
:10006000CF0D0008CF0D0008CF0D0008CF0D000800
:10007000CF0D0008CF0D0008CF0D0008CF0D0008F0
:10008000CF0D0008CF0D0008CF0D0008CF0D0008E0
:10009000CF0D0008CF0D0008CF0D0008CF0D0008D0
:1000A000CF0D0008CF0D0008CF0D0008CF0D0008C0
:1000B000CF0D0008CF0D0008CF0D0008CF0D0008B0
:1000C000CF0D0008CF0D0008CF0D0008CF0D0008A0
:1000D000CF0D00084B0D0008CF0D0008CF0D000814
:1000E000CF0D0008CF0D0008CF0D0008CF0D000880
:1000F000CF0D0008CF0D0008CF0D0008CF0D000870
:10010000CF0D0008CF0D0008CF0D0008CF0D00085F
:10011000CF0D0008CF0D0008CF0D0008CF0D00084F
:10012000CF0D0008CF0D0008CF0D0008CF0D00083F
:1001300000F002F800F03FF80AA090E8000C8244BA
:100140008344AAF10107DA4501D100F034F8AFF297
:10015000090EBAE80F0013F0010F18BFFB1A43F0A5
:1001600001031847701E0000901E0000103A24BFC3
:1001700078C878C1FAD8520724BF30C830C144BF0C
:1001800004680C607047000000230024002500264E
:10019000103A28BF78C1FBD8520728BF30C148BFEA
:1001A0000B607047732901F0BF84002070471FB5B2
:1001B0001FBD10B510BD01F0E9FC1146FFF7F7FFB8
:1001C00000F02CF901F007FD03B4FFF7F2FF03BCC8
:1001D00000F060FD70B500F033FCAA209B49087068
:1001E00088204870A12088700C20C870984800882A
:1001F000000A087196480078000248719548008806
:10020000000A887193480088000AC87192480088E3
:1002100000EB8000400000B28F490880084600884B
:10022000000A8A4908728C480088000A4872002037
:100230008872C8720873487388730120C8730025D8
:10024000012403E08148005D0544641C102CF9D3AF
:100250007E490D74012405E07C48015D7F4800F073
:1002600080FD641C112CF7D370BD1CB500F0E8FBB9
:100270007748B0F90010684600F016FA694678A091
:1002800001F0ACFB7448B0F90010684600F00CFABD
:10029000694675A001F0A2FB6E48B0F900106846EF
:1002A00000F002FA694672A001F098FB72A001F01A
:1002B00095FB1CBD70B588B005460E4614461C2C37
:1002C00001DD08B070BD0021E01C0DF80010882091
:1002D0008DF80000AA208DF801008DF801508DF8EE
:1002E00002400020704908700CE06F480078315CD3
:1002F0006D480078C01C0DF800106B480078401C59
:100300006949087068480078A042EEDB0020664921
:10031000087010E0E01C1DF80000634A12781DF818
:1003200002100844C1B2E01C0DF800105E480078CD
:10033000401C5D4908705C480178E01C8142E9DBA3
:100340000020594908700BE0574A12781DF8021036
:10035000424800F006FD54480078401C524908709D
:1003600051480178201D8142EEDB00BFA9E72DE94D
:10037000F04F87B004460D4616461F46DDE912AB26
:10038000DDE910891C21684601F091FB200A8DF8F7
:100390000000E0B28DF80100280A8DF80200E8B2F2
:1003A0008DF80300300A8DF80400F0B28DF80500D6
:1003B000380A8DF80600F8B28DF807004FEA1820C9
:1003C0008DF8080008F0FF008DF809004FEA1920A9
:1003D0008DF80A0009F0FF008DF80B004FEA1A2093
:1003E0008DF812000AF0FF008DF813004FEA1B2071
:1003F0008DF814000BF0FF008DF815001498000A1A
:100400008DF816001498C0B28DF817001C226946AA
:10041000AF20FFF74FFF07B0BDE8F08F00F0D0FB33
:100420004FF4A06000F0E6FC4FF4E13000F041FC36
:1004300000F082F90A2000F000FC00F0E6FA04E087
:10044000FFF7C8FE642000F0F8FBF9E75000002039
:10045000280000202C0000202A0000200038014045
:1004600054583A25730D0A0054593A25730D0A0061
:10047000545A3A25730D0A002D2D2D2D2D2D2D2D7D
:100480002D2D2D2D2D2D2D2D2D2D2D2D2D2D2D2D9C
:100490002D2D2D2D2D2D2D2D2D2D2D2D2D2D2D2D8C
:1004A0002D2D2D2D2D0D0A0000000020704700BFBE
:1004B000FEE700BFFEE700BFFEE700BFFEE77047B4
:1004C00070477047704700000CB500200190009005
:1004D0006C48006840F480306A49086000BF694891
:1004E000006800F4003000900198401C01900098D2
:1004F00018B90198B0F5A06FF1D16248006800F416
:10050000003010B10120009001E000200090009820
:10051000012843D15C48006840F010005A49086047
:100520000846006820F0030008600846006840F0B4
:1005300002000860534840685249486008464068D5
:1005400048600846406840F480604860084640685B
:1005500020F47C1048600846406840F4E810486089
:100560000846006840F08070086000BF4548006899
:1005700000F000700028F9D04248406820F00300E5
:10058000404948600846406840F00200486000BFAB
:100590003C48406800F00C000828F9D10CBD10B5AB
:1005A000FFF792FF10BD10B53648006840F001001B
:1005B0003449086008464068344908403149486079
:1005C00008460068324908402E490860084600681D
:1005D00020F4802008600846406820F4FE0048604F
:1005E0004FF41F008860FFF7DAFF4FF000602949E1
:1005F000086010BD10B5002100200022214B5B686F
:1006000003F00C0121B1042906D0082928D107E004
:10061000214B224C236027E01F4B204C236023E01A
:10062000184B5B6803F47010164B5B6803F4803260
:10063000022303EB904022B9194B4343174C23602C
:100640000DE0104B5B6803F4003323B1144B4343BC
:10065000124C236003E0104B4343104C236003E033
:100660000D4B0E4C236000BF00BF064B5B68C3F30D
:1006700003130C4CE15C094B1B68CB40074C236017
:1006800010BD000000100240002002400000FFF8F2
:10069000FFFFF6FE08ED00E000127A0004000020E3
:1006A00000093D0008000020002904DA4A4211B286
:1006B0002D22027001E02022027042F2107291FBA2
:1006C000F2F23032D3B2421C1046137042F2107272
:1006D00091FBF2F302FB13114FF47A7291FBF2F2E9
:1006E0003032D3B2421C104613704FF47A7291FB31
:1006F000F2F302FB1311642291FBF2F23032D3B217
:10070000421C10461370642291FBF2F302FB13119A
:100710000A2291FBF2F23032D3B2421C104613701F
:100720000A2291FBF2F302FB131101F13002D3B262
:10073000421C10461370704708B50121042000F0D8
:10074000E3FE0320ADF800008DF8020014208DF8C0
:1007500003006946FE4800F01BFC08BD10B50221ED
:10076000FB4800F0C2FC0121F94800F0BEFC032068
:1007700000F03FFA0221F64800F09DFC08B9002085
:1007800010BD0221F24800F0B2FC032000F031FA63
:100790000221EF4800F08FFC08B10020F0E70221B1
:1007A000EB4800F0A4FC032000F023FA0120E7E767
:1007B00010B50121E64800F09AFC032000F019FA78
:1007C0000221E34800F093FC032000F012FA01211B
:1007D000DF4800F08AFC032000F00BFA0221DC481D
:1007E00000F083FC032000F004FA10BD10B50121D5
:1007F000D74800F07CFC032000F0FBF90221D4482C
:1008000000F075FC032000F0F4F90121D04800F05D
:100810006CFC032000F0EDF90121CD4800F067FCED
:10082000032000F0E6F910BD10B50121C84800F022
:100830005EFC032000F0DDF90221C54800F055FC04
:10084000032000F0D6F90121C14800F04EFC03203E
:1008500000F0CFF90121BE4800F049FC032000F070
:10086000C8F910BD10B50121B94800F040FC0320C3
:1008700000F0BFF90221B64800F037FC032000F079
:10088000B8F90121B24800F030FC032000F0B1F9C2
:100890000221AF4800F00FFC40B10121AC4800F04C
:1008A00026FC032000F0A5F9002010BD0121A84876
:1008B00000F01DFC032000F09CF90120F5E770B565
:1008C000044608251EE00121A14800F010FC032089
:1008D00000F08FF904F0800020B102219C4800F064
:1008E00004FC03E002219A4800F001FC6006040EBB
:1008F000032000F07EF90121954800F0F6FB03206B
:1009000000F077F9281EA5F10101CDB2DBD101215C
:100910008F4800F0ECFB70BD70B508250024022163
:100920008B4800F0E2FB16E06006040E01218848C7
:1009300000F0DDFB032000F05CF90121844800F0A9
:10094000D4FB032000F055F90221814800F0B3FBED
:1009500008B144F00104281EA5F10101CDB2E3D194
:1009600001217B4800F0C3FB204670BD70B50646F0
:100970000C461546FFF7F2FE08B9002070BD304660
:10098000FFF79DFFFFF76EFF18B9FFF711FF00207B
:10099000F4E72046FFF793FFFFF764FF2846FFF7D1
:1009A0008EFFFFF75FFFFFF703FF052000F045F91B
:1009B0000120E3E770B504460D46FFF7CFFE08B906
:1009C000002070BD2046FFF77AFFFFF74BFF30B9DC
:1009D000FFF7EEFE01205F4908700020F1E728468E
:1009E000FFF76DFFFFF73EFFFFF7B8FE611CC8B2CF
:1009F000FFF765FFFFF736FFFFF78EFF0646FFF7AD
:100A000013FFFFF7D5FE3046DBE710B500226B2160
:100A1000D020FFF7ABFF07221921D020FFF7A6FF58
:100A200004221A21D020FFF7A1FF08221B21D02089
:100A3000FFF79CFF08221C21D020FFF797FF10BD75
:100A40002DE9F0414421D020FFF7B4FF424908705E
:100A50004321D020FFF7AEFF3F4948700846007899
:100A6000497840EA012000B23C4908800846B0F9C4
:100A7000000001F044FA06460022394B01F0B8F8B4
:100A8000044601F00DFA00B2344908804821D02014
:100A9000FFF790FF304908714721D020FFF78AFF08
:100AA0002D49487108460079497940EA012000B291
:100AB0002C4908800846B0F9000001F020FA0646EB
:100AC0000022274B01F094F8044601F0E9F900B246
:100AD000244908804621D020FFF76CFF1E4988700A
:100AE0004521D020FFF766FF1B49C8700846807873
:100AF000C97840EA012000B21B4908800846B0F9D5
:100B0000000001F0FCF906460022154B01F070F8D8
:100B1000044601F0C5F900B2134908803B21D020FA
:100B2000FFF748FF114908703C21D020FFF742FF32
:100B30000E49487008464078097800EB012000B261
:100B40000B4908803E21D020FFF734FF074911E010
:100B5000000801401E00002061000020200000204D
:100B60000060504024000020220000206B00002084
:100B700028000020C8700846C078897800EB012062
:100B800000B20C4908803F21D020FFF713FF0A492B
:100B900008714021D020FFF70DFF07494871084632
:100BA0004079097900EB012000B204490880BDE8D2
:100BB000F08100002A0000206B0000202C000020A3
:100BC00010B56FF0040000F064F92E4800682E495B
:100BD000B0FBF1F02D4908700846007800EB4001A9
:100BE000C1EBC0104FF6FF7101EAC0002849088030
:100BF00010BD0146254A12784A434FF0E0235A615E
:100C000000229A611A46126942F001021A6100BF7D
:100C10004FF0E022106900F001021AB100F48032B6
:100C2000002AF5D04FF0E022126922F001024FF0C5
:100C3000E0231A6100229A6170470146144A128823
:100C40004A434FF0E0235A6100229A611A46126922
:100C500042F001021A6100BF4FF0E022106900F07B
:100C600001021AB100F48032002AF5D04FF0E022E0
:100C7000126922F001024FF0E0231A6100229A610A
:100C8000704700000400002000127A002E000020AF
:100C900030000020014600BF704700BF434A128861
:100CA00002F04002002AF9D0C2B2404B1B1D1A804C
:100CB000704710B586B00446012144F2040000F0EC
:100CC00023FC4FF40070ADF8140003208DF81600DB
:100CD00018208DF8170005A9354800F059F94FF490
:100CE0008060ADF8140004208DF8170005A9304885
:100CF00000F04EF925208DF8000003208DF801004A
:100D00008DF8020001208DF80300684600F077F8A6
:100D100001940020ADF80800ADF80A00ADF80C0011
:100D2000ADF810000C20ADF80E0001A91F4800F02E
:100D300092FC012240F225511C4800F024FD0121C3
:100D40001A4800F014FD06B010BD10B540F2255150
:100D5000164800F0FDFD18B1144800F079FDC4B24A
:100D600010BD70B504460D464021204600F0E7FD59
:100D70002946204600F068FD00BF4021204600F0D3
:100D8000D1FD0028F9D04021204600F0D8FD70BDEB
:100D900070B505460C4604E014F8011B2846FFF721
:100DA000E0FF20780028F7D170BD00000038014036
:100DB000000801400948804709480047FEE7FEE770
:100DC000FEE7FEE7FEE7FEE7FEE7FEE7FEE7FEE7FB
:100DD00004480549054A064B70470000A70500086E
:100DE00031010008D8000020D8060020D8020020D9
:100DF000D802002031490143314A1160704770B573
:100E0000002100230F22C47804B32D4C246804F47D
:100E1000E064C4F5E064210AC1F10403CA404478E7
:100E200004FA03F18478144021430901254C067823
:100E3000A155047804F01F050124AC4005786D111C
:100E4000AD0005F1E025C5F8004109E0047804F0A3
:100E50001F050124AC401C4D0678761145F826404C
:100E600070BD1A4A0A400243154B1B1F1A60704797
:100E700039B1134A121D12680243114B1B1D1A602F
:100E800006E00F4A121D126882430D4B1B1D1A60AB
:100E90007047042808D14FF0E021096941F00401AE
:100EA0004FF0E022116107E04FF0E021096921F0E5
:100EB00004014FF0E0221161704700000000FA05C4
:100EC0000CED00E000E400E080E100E080FFFF1FA7
:100ED00010B50446CC48844208D10121042000F01A
:100EE0002DFB0021042000F029FB46E0C748844286
:100EF00008D10121082000F021FB0021082000F08A
:100F00001DFB3AE0C248844208D10121102000F0C4
:100F100015FB0021102000F011FB2EE0BD4884429B
:100F200008D10121202000F009FB0021202000F041
:100F300005FB22E0B848844208D10121402000F09E
:100F4000FDFA0021402000F0F9FA16E0B34884428F
:100F500008D10121802000F0F1FA0021802000F06A
:100F6000EDFA0AE0AE48844207D10121801500F075
:100F7000E5FA0021A01500F0E1FA10BD10B501213D
:100F8000084600F0DBFA0021012000F0D7FA10BD7E
:100F90002DE9F04102460025002600200023002410
:100FA000002791F803C00CF00F0591F803C00CF076
:100FB000100CBCF1000F03D091F802C04CEA0505FB
:100FC00091F800C0BCF1000F31D0146800202BE074
:100FD0004FF0010C0CFA00F3B1F800C00CEA030664
:100FE0009E4220D183004FF00F0C0CFA03F7BC4354
:100FF00005FA03FC4CEA040491F803C0BCF1280F85
:1010000006D14FF0010C0CFA00FCC2F814C00AE043
:1010100091F803C0BCF1480F05D14FF0010C0CFA58
:1010200000FCC2F810C0401C0828D1D31460B1F8ED
:1010300000C0BCF1FF0F34DD546800202EE000F149
:10104000080C4FF0010808FA0CF3B1F800C00CEAE4
:1010500003069E4221D183004FF00F0C0CFA03F7D8
:10106000BC4305FA03FC4CEA040491F803C0BCF14C
:10107000280F05D100F1080C08FA0CF8C2F814800A
:1010800091F803C0BCF1480F07D100F1080C4FF0F4
:10109000010808FA0CF8C2F81080401C0828CED3CA
:1010A0005460BDE8F0814FF6FF710180022181702C
:1010B0000421C17070470246002093680B400BB1B9
:1010C000012000E0002070470146886880B2704728
:1010D00002460020D3680B400BB1012000E0002045
:1010E00070470146C86880B270470161704741612E
:1010F00070470AB1016100E041617047C16070470B
:101100004FF480320A43826181618261826982691F
:10111000704702460020434B18684FF68073184012
:1011200040EA021008433F4B186070473E49C861CF
:101130007047F0B50A46002300240021002500F086
:101140000046B6F1004F02D1364EF16901E0354E4E
:101150007168C0F3034583B200F44016B6F5401F32
:1011600008D121F070612F4E766826F070662D4F01
:101170007E6012E000F48016B6F5801F06D10326CB
:1011800006FA05F4A14341F0706106E0460D360110
:1011900003FA06F6B14341F0706122B1460D360103
:1011A00003FA06F6314300F00046B6F1004F02D1D3
:1011B0001C4EF16101E01B4E7160F0BD30B50022A4
:1011C0008B071C0F0F2303FA04F2164B08338C1005
:1011D00053F824309343134C08348D1044F82530D1
:1011E00023468C1053F824308C07240F00FA04F4A3
:1011F00023430C4C08348D1044F8253030BD0A4987
:10120000DC3108607047000000080140000C01401C
:10121000001001400014014000180140001C014072
:10122000002001400000014000002042DF4800682B
:1012300040F00100DD49086008464068DC4908408C
:10124000DA49486008460068DA490840D74908602A
:101250000846006820F4802008600846406820F4B2
:10126000FE0048604FF41F0088607047CF4909684E
:1012700021F48031CD4A11601146096821F48021A2
:101280001160B0F5803F03D0B0F5802F0ED106E09D
:10129000C649096841F48031C44A116007E0C34976
:1012A000096841F4A021C14A116000E000BF00BFFD
:1012B000704710B501460022002300204A11012A80
:1012C00002D1BA4C236806E0022A02D1B74C236A45
:1012D00001E0B64C636A01F01F02012494401C40F7
:1012E0000CB1012000E0002010BD38B500200090B6
:1012F0000024002500BF3120FFF7DBFF05460098E2
:10130000401C00900098B0F5A06F01D0002DF2D0E5
:101310003120FFF7CEFF08B1012400E00024204671
:1013200038BD01460020A14A106820F0F80040EACC
:10133000C10010607047A049086070470246002055
:101340009A4B586820F47C1042EA01031843974BEB
:101350005860704798490866704701460020934AD4
:10136000506820F003000843506070478F48406881
:1013700000F00C007047014600208C4A506820F0B5
:10138000F00008435060704701460020874A5068CB
:1013900020F4E06008435060704701460020834A13
:1013A000506820F4605040EAC1005060704729B195
:1013B0007E4A527A02437D4B5A7204E07B4A527A4B
:1013C00082437A4B5A7270477B49D8310860704724
:1013D00001460020754A506820F4404008435060A0
:1013E00070470021714A20321170704A82F8201033
:1013F000012802D004280AD104E001216B4A2032DE
:10140000117005E00521694A2032117000E000BF2B
:1014100000BF70476949086070476449096A014321
:10142000624A11627047654944390860704730B5B7
:1014300000210022002400235C4D6D6805F00C01A2
:1014400021B1042905D0082923D105E05C4D0560B0
:1014500022E05B4D05601FE0544D6D6805F470128D
:10146000524D6D6805F48034022505EB92421CB99B
:10147000544D554305600BE04C4D6D6805F4003547
:101480001DB1504D5543056002E04D4D554305607B
:1014900002E04B4D056000BF00BF444D6D6805F094
:1014A000F0010909484D6B5C0568DD4045603F4D22
:1014B0006D6805F4E061090A434D6B5C4568DD40E9
:1014C00085603A4D6D6805F46051C90A3E4D6B5C0C
:1014D0004568DD40C560354D6D6805F44041890BB8
:1014E0003A4D6B5CC568B5FBF3F5056130BD29B1BC
:1014F0002E4A526902432D4B5A6104E02B4A52692D
:1015000082432A4B5A61704729B1284A92690243A3
:10151000264B9A6104E0254A92698243234B9A61E3
:10152000704729B1214AD2690243204BDA6104E0B5
:101530001E4AD26982431D4BDA61704729B11B4AAA
:10154000D2680243194BDA6004E0184AD268824339
:10155000164BDA60704729B1144A12690243134BE3
:101560001A6104E0114A12698243104B1A617047F4
:1015700012494039086070470F49C86470470B49E9
:10158000C87170470948406A40F080700749486256
:10159000704701460020054A92680A400AB10120BE
:1015A00000E0002070470149887270470010024037
:1015B0000000FFF8FFFFF6FE0000424280044242B6
:1015C00000127A0000093D003A0000204A00002085
:1015D00010B50446FB48844209D101218803FFF776
:1015E000ADFF00214FF48040FFF7A8FF32E0F6483E
:1015F000844209D101214804FFF7ADFF00214FF4D7
:101600000030FFF7A8FF25E0F048844209D101210E
:101610008804FFF7A0FF00214FF48020FFF79BFF15
:1016200018E0EB48844209D10121C804FFF793FF79
:1016300000214FF40020FFF78EFF0BE0E5488442C5
:1016400008D101210805FFF786FF00214FF4801023
:10165000FFF781FF10BD2DE9F04786B005460E4625
:101660000024A24600BFA1460027B08900B100BFF8
:101670002F462C8A4CF6FF700440F08804432C82DD
:10168000AC894EF6F3100440B08831890843718963
:1016900008430443AC81AC8A4FF6FF400440B08954
:1016A0000443AC8201A8FFF7C2FEC648874202D1BC
:1016B000DDF810A001E0DDF80CA0A88900F40040DE
:1016C00040B10AEBCA0000EB0A1031684900B0FBD8
:1016D000F1F807E00AEBCA0000EB0A103168890054
:1016E000B0FBF1F86420B8FBF0F00401200964219C
:1016F00001FB1089A88900F4004040B1322000EBC2
:10170000C900B0FBF1F000F00700044308E032200C
:1017100000EB09106421B0FBF1F000F00F0004436E
:101720002C8106B0BDE8F0874FF41651016000210E
:101730008180C18001810C2141810021818170471C
:1017400010B502460020108A4FF2FF0318400B88A4
:101750004C8823438C882343CC882343184310822E
:1017600010BD0021018041808180C180704721B17E
:10177000828942F40052828104E082894DF6FF732F
:101780001A4082817047F0B50346002400260025E8
:10179000002040F66A17B94200D100BF1846C1F3D5
:1017A000421401F01F06012707FA06F5012C01D1AA
:1017B0000C3004E0022C01D1103000E014301AB1DA
:1017C00007682F43076002E00768AF430760F0BD7A
:1017D0001AB1838A0B43838202E0838A8B4383821C
:1017E0007047028A4FF6F0731A400282028A0A4357
:1017F0000282704782894FF2FF731A408281828988
:101800000A438281704721B1828942F002028281BB
:1018100004E082894FF6FD731A4082817047028A84
:101820004FF6DF731A400282028A0A43028270472F
:1018300021B1028A42F48042028204E0028A4BF61D
:10184000FF731A4002827047C1F30802828070471A
:1018500001468888C0F308007047818941F0010182
:1018600081817047028BD2B20283028B42EA01224D
:1018700002837047028B02F47F420283028B0A4389
:101880000283704721B1828A42F02002828204E002
:10189000828A4FF6DF731A408282704721B1828AB2
:1018A00042F01002828204E0828A4FF6EF731A40FF
:1018B0008282704721B1828A42F00802828204E06B
:1018C000828A4FF6F7731A408282704721B182896B
:1018D00042F40042828103E08289C2F30E028281D7
:1018E000704721B1828A42F40062828204E0828AD7
:1018F0004FF2FF731A4082827047828A4FF6FB7361
:101900001A408282828A0A438282704721B1828A87
:1019100042F00202828204E0828A4FF6FD731A408E
:101920008282704702460020B1F5007F00D100BFDF
:1019300013880B400BB1012000E00020704701F438
:101940000072B2F5007F00D100BFCA430280704729
:1019500070B50246002400230025002040F66A16D8
:10196000B14200D100BFC1F3421501F01F030126AF
:1019700006FA03F3012D02D19689334006E0022DC9
:1019800002D1168A334001E0968A33400C120126B8
:1019900006FA04F41688344013B10CB1012000E0BB
:1019A000002070BD10B50022002340F66A14A14249
:1019B00000D100BF0A1201249440A3B2DC4304808A
:1019C00010BD0000003801400044004000480040C5
:1019D000004C004000500040704700000FB4044924
:1019E00010B503AA029800F0A3F810BC5DF814FB30
:1019F000340000202DE9F0410E460446002020620C
:101A00002046E168884730B3252805D0D4E9012174
:101A10009047206A401CF2E7E1682046002788478B
:101A2000050018D0A5F14100192802D820354FF43F
:101A300000673246294620462760FEF7B3FB40B1D7
:101A4000012804D0F61D26F007060836D8E7361D13
:101A5000D6E72846DAE7206ABDE8F08170B50C4683
:101A60000546012A05D02878800600D5EA690023BA
:101A700002E0012305E05B1C934202D2E05C0028F7
:101A8000F9D1A869E618C01AA861286A1844286222
:101A90002846AFF3008004E0D5E9012114F8010BDA
:101AA0009047B442F8D32846AFF3008070BD4FF0A2
:101AB000000200B5134694469646203922BFA0E89E
:101AC0000C50A0E80C50B1F12001BFF4F7AF0907AA
:101AD00028BFA0E80C5048BF0CC05DF804EB89009B
:101AE00028BF40F8042B08BF704748BF20F8022BDE
:101AF00011F0804F18BF00F8012B704770477047F6
:101B00007047704710B5436913B1AFF3008001E02F
:101B1000FFF7A4FF012010BD127800F124010A7024
:101B200000224A700122EDE711684FF0FF32E9E729
:101B3000074B70B50D467B4400F011F8044628466B
:101B400000F020F810B14FF0FF3070BD204670BD9E
:101B500061F1FFFF01694A1C02610878704700B516
:101B60008FB0CDE901310021059105497944CDE9D6
:101B7000031011466846FFF73DFF0FB000BD00009F
:101B8000E5FFFFFF007B00F080007047754600F026
:101B90002BF8AE4605006946534620F007008546FF
:101BA00018B020B5FFF714F9BDE820404FF000064B
:101BB0004FF000074FF000084FF0000B21F0070135
:101BC000AC46ACE8C009ACE8C009ACE8C009ACE878
:101BD000C0098D46704710B50446AFF3008020461B
:101BE000BDE81040FEF7F0BA0048704778000020CA
:101BF0002DE9C04130B4DFF8A0C23CEA111418BF8F
:101C00003CEA131400F0EC8081EA03051CEA11148D
:101C100044EAD57418BF1CEA131500F0C780A4EB82
:101C200005044FF0004545EAC12145EAC32341EAD6
:101C3000505143EA525304F17F74994204F5003441
:101C40004FEAC0204FEAC22208BF904200F09C80B9
:101C50004FEA13650FF24016765D4FEA134506FB17
:101C600005F7C7F1807706FB07F74FEAD737A7FBE1
:101C700003687642C8F58038A7FB06CE38BFA8F1C6
:101C8000010807FB08E64FF0000EA6FB028CE6FBFE
:101C900003CEDCF1000CCEF1004E38BFAEF1010EE8
:101CA000A6FB0C584FF000074FF00005E6FB0E872F
:101CB000A1FB08C6A0FB07CE16EB0E0645F10005FA
:101CC000E1FB076515F1E04E7EBFA4F580345FEAC5
:101CD00046066D4116F1800745F100054FEA1727CA
:101CE0004FEA066647EA0567A6F1DE46B6F1805F71
:101CF0004FEA15251FD9384624F0010C05EBC471B5
:101D0000BCF1FE6F01EB0C1102D8F0BCBDE8008104
:101D100024425CBF01F5801E9EEAC47F02D4F0BC61
:101D2000BDE80081244238D4F0BCA1F1C041BDE837
:101D3000004100F049B94FEAD22242EA43524FEA49
:101D4000D323A7FB02864FEAD02040EA415007FB8D
:101D500003661EEA0E0F4FEAD12105FB026658BF4B
:101D6000A6EB0056B6EB00564FEA520E4EEAC37E83
:101D700018EB0E0E56EB530EBDD518EB02085E4164
:101D80007F1C55F10005B6E74FF480154FF00007B2
:101D90004FF000064FF00008ADE7F0BC4FF0000038
:101DA00001F1C04101F00041BDE8008111EA0C1FC2
:101DB0000CEA131500D00CE013EA0C1F00F025808C
:101DC0004FF00000F0BC81EA030101F00041BDE8E2
:101DD0000081F0BCBDE8004181EA030100F0F4B8E5
:101DE000F0BCBDE8004170B500F0A0F8097EFC3EF3
:101DF00000F007B881EA03014FF0000001F0004154
:101E0000704781EA030100F0DFB8F0BCBDE8004193
:101E10004FF0000021497047FFFDFBF9F7F5F4F2A0
:101E2000F0EEEDEBE9E8E6E4E3E1E0DEDDDBDAD875
:101E3000D7D5D4D3D1D0CFCDCCCBCAC8C7C6C5C4D3
:101E4000C2C1C0BFBEBDBCBBBAB9B8B7B6B5B4B3EA
:101E5000B2B1B0AFAEADACABAAA9A8A8A7A6A5A4D5
:101E6000A3A3A2A1A09F9F9E9D9C9C9B9A99999899
:101E70009797969595949393929191908F8F8E8E3C
:101E80008D8C8C8B8B8A89898888878786858584C9
:101E900084838382828181800000FF070000F87FB5
:101EA0004FEA41034FEA5353A3F58063D3F11E0376
:101EB000C8BFD3F1210C0CDD4FF0004242EAC12231
:101EC00042EA505232FA03FC8CEAE17CACEBE1705E
:101ED0007047102BC4BF0020704703F5787CBCF11D
:101EE000FF3F04D06FF0004282EA2100704770B5D6
:101EF00000F01CF84992248000207047F2E710F0AF
:101F0000004248BF4042B0FA80F310FA03F10AD011
:101F1000C3F11D0303F580634FEA415002EB035206
:101F200002EBD12170474FF0000070470EF1020E16
:101F30002EF0030E5EF8046B364205D4012A43EB03
:101F4000030515F5001F12D8012841EB010C1CF503
:101F5000001F0CD80ED14FEAD17C15F5001F0CEBF9
:101F60004C0C0CF1020C08BF4CEBD37C04E04FF09E
:101F7000080C01E04FEAD37C0CEB4C0526FA05F681
:101F800006F00706B6F1040C06D20EEB860CBDE88F
:101F900070404CF0010C6047DFE80CF0090B0202C6
:101FA0004FF000414FF00000A1F5002170BD19462F
:101FB0001046012851EB010418BFD4F5001484BF6A
:101FC000002001F0004170BD0808A0F500114FEAA3
:101FD00031017047F41F000800000020500000008D
:101FE0006C01000844200008500000208806000012
:101FF000880100080000000000A24A040000000060
:1020000000000000010203040607080900000000A8
:1020100000000000000000000000000000000000C0
:1020200000000000000000000000000000000000B0
:102030000000010203040102030406070809020468
:04204000060800008E
:0400000508000131BD
:00000001FF
