:020000040800F2
:10000000F80600202D0200080F430008450E0008E6
:100010000D430008590700081558000800000000AB
:10002000000000000000000000000000FF4D00087C
:100030005B07000800000000D1480008C14E00081E
:10004000470200084702000847020008470200086C
:100050004702000847020008470200083908000864
:1000600079080008B9080008F908000847020008E4
:10007000470200084702000847020008470200083C
:10008000470200084702000847020008470200082C
:100090004702000847020008470200087D090008DF
:1000A000470200084702000847020008470200080C
:1000B0004702000847020008154F000847020008E1
:1000C00047020008470200084702000847020008EC
:1000D0004702000879560008470200084702000856
:1000E0005D070008470200084702000847020008B1
:1000F00047020008470200084702000847020008BC
:1001000047020008470200084702000847020008AB
:100110004702000847020008514F0008F14F00084D
:10012000470200084702000847020008470200088B
:1001300000F002F800F06BF80AA090E8000C82448E
:100140008344AAF10107DA4501D100F060F8AFF26B
:10015000090EBAE80F0013F0010F18BFFB1A43F0A5
:1001600001031847A06C0000C06C00000A444FF067
:10017000000C10F8013B13F0070408BF10F8014B06
:100180001D1108BF10F8015B641E05D010F8016B4B
:10019000641E01F8016BF9D113F0080F1EBF10F8AF
:1001A000014BAD1C0C1B09D16D1E58BF01F801CBD2
:1001B000FAD505E014F8016B01F8016B6D1EF9D555
:1001C0009142D6D37047000000230024002500266A
:1001D000103A28BF78C1FBD8520728BF30C148BFAA
:1001E0000B607047642900F0B180752900F0AE8083
:1001F000782900F0E780632900F05982732900F024
:100200005E82002070471FB51FBD10B510BD00F005
:1002100071FA1146FFF7F7FF05F064FB00F08FFA63
:1002200003B4FFF7F2FF03BC05F0FCFA094880476E
:1002300009480047FEE7FEE7FEE7FEE7FEE7FEE7C8
:10024000FEE7FEE7FEE7FEE704480549034A054BE3
:1002500070470000C54E000831010008F802002078
:10026000F8060020F8020020704700000FB404498F
:1002700010B503AA029800F027FA10BC5DF814FB31
:10028000680000200FB41CB5074B06AA7B446946E2
:100290000090059800F0E9F90020694600F0F8F9AF
:1002A0001CBC5DF814FB00000104000070B504469E
:1002B00085690068C10601D5302600E02026C00708
:1002C00007D070BDD4E9012130469047206A401C18
:1002D00020626D1EF6D570BD70B504468569007844
:1002E000C00707D170BDD4E9012120209047206AC2
:1002F000401C20626D1EF6D570BD70B50C460546DB
:10030000012A05D02878800600D5EA69002302E09A
:10031000012305E05B1C934202D2E05C0028F9D186
:10032000A869E618C01AA861286A184428622846F5
:10033000FFF7BCFF04E0D5E9012114F8010B904759
:10034000B442F8D32846FFF7C7FF70BD2DE9F0414E
:100350000646002410687529314616A510D0AFF363
:100360000080002802DA404213A507E031688A07BE
:1003700001D512A502E0490704D511A5012401E029
:10038000AFF3008000210A2206F1240709E0B0FB48
:10039000F2FCB0FBF2F302FB1C003030785418463C
:1003A000491C0028F3D123462A463046BDE8F041D7
:1003B00000F0FCB8000000002D0000002B00000041
:1003C0002000000070B504460D4621461068AFF3CA
:1003D00000802188090502D50F4A7A4402E00E4ABE
:1003E0007A440E32002104F1240305E000F00F06E8
:1003F0000009965D5E54491C0028F7D1207800233F
:10040000000704D5702D02D009B102231132204615
:10041000BDE8704000F0CAB8B46800002DE9F05F94
:10042000894604464FF0000ADFF874B1FB44C0F877
:1004300020A02046E1688847002874D0252806D0EF
:10044000D4E901219047206A401C2062F1E7002690
:100450005F462046E16888472028054607DB312DA6
:1004600005D2781910F8200C08B10643F1E7B0075F
:1004700001D526F00406C4F81CA00027C4F818A073
:100480002A2D09D0284605F0C6F938B304EB8708B1
:10049000303DC8F8185019E059F8041B204604EB09
:1004A00087029161E1688847012F054618D1E0690C
:1004B000002820DA26F020061DE0D8F8180000EB0E
:1004C000800005EB40003038C8F818002046E1688D
:1004D0008847054605F09FF90028EED1012F0AD084
:1004E0002E2D08D12046E16888477F1C0546022F43
:1004F00046F02006C4DBA069002803DA404246F03B
:100500000106A061F00701D026F010066C2D0BD07B
:10051000682D09D04C2D39D06A2D35D0742D35D0A9
:100520007A2D33D016E038E0E1682F462046884720
:10053000B842054609D16C2F26D04FF48060E1689F
:10054000064320468847054604E06C2F1AD04FF436
:10055000807006430DB3A5F14100192802D820355B
:1005600046F400664A462946204626604E46FFF776
:1005700039FE80B101280BD0F61D26F0070000F1EE
:10058000080956E74020E4E78020D8E70020D6E7B6
:1005900006F104094DE7284652E7206ABDE8F09FBE
:1005A0008A68000070477047704770472DE9F04730
:1005B0000D4699469246044600F1240801688806D3
:1005C00004D5E06921F01001216000E00120A8427B
:1005D00001DD471B00E00027A1697A1902EB090041
:1005E000081AA0612078C00602D42046FFF75EFEFC
:1005F000002608E0D4E901211AF806009047206A95
:10060000401C761C20624E45F4DB2078C0060AD5DB
:100610002046FFF74BFE06E0D4E901213020904749
:10062000206A401C2062381EA7F10107F4DC07E0B5
:10063000D4E9012118F805009047206A401C206287
:10064000281EA5F10105F3DC2046FFF745FE2078C2
:10065000000602D50220BDE8F0870120FBE700007C
:1006600001694A1C02610878704700B58FB0CDE976
:1006700001310021059105497944CDE90310114666
:100680006846FFF7CBFE0FB000BD0000E5FFFFFF9F
:100690000A6802F8010B0A60704710B5436913B18C
:1006A000AFF3008001E0FFF728FE012010BD1278B3
:1006B00000F124010A7000224A700122EDE711685E
:1006C0004FF0FF32E9E70000074B70B50D467B4461
:1006D000FFF7CBFF0446284600F008F810B14FF0B2
:1006E000FF3070BD204670BDFB510000007B00F064
:1006F00080007047754600F02BF8AE46050069464D
:10070000534620F00700854618B020B5FFF79CFD42
:10071000BDE820404FF000064FF000074FF0000802
:100720004FF0000B21F00701AC46ACE8C009ACE883
:10073000C009ACE8C009ACE8C0098D46704710B5E7
:100740000446AFF300802046BDE81040FFF768BDC7
:100750000048704798020020FEE7704770B54FF4DC
:100760008056304600F032F9314C324D90B130466F
:1007700000F026F9D5F830010028D5F8340102D070
:10078000012801D103E010B16068401E01E06068FB
:10079000401C60604FF40056304600F017F990B1ED
:1007A000304600F00DF9D5F834010028D5F83001B5
:1007B00001D010B904E0012802D06068401E01E0B9
:1007C0006068401C60604FF48046304600F0FEF8E0
:1007D00090B1304600F0F4F8D5F838010028D5F88B
:1007E0003C0102D0012801D103E010B1A068401EF5
:1007F00001E0A068401CA0604FF40046304600F0C5
:10080000E5F800280FD0304600F0DAF8D5F83C01C2
:100810000028D5F8380101D030B101E0012803D01B
:10082000A068401EA06070BDA068401CFAE70000F0
:10083000500000200080234210B5022000F0C6F8CE
:10084000002810D0022000F0BBF80949D1F804219B
:100850000848D1F8081112B1012905D000E019B1FA
:100860000168491E016010BD0168491CFAE70000DB
:10087000008021425000002010B5042000F0A6F8AE
:10088000002810D0042000F09BF80949D1F8082175
:100890000848D1F804110AB131B101E0012903D0AF
:1008A0000168491E016010BD0168491CFAE700009B
:1008B000008021425000002010B5082000F086F88A
:1008C000002810D0082000F07BF80949D1F80C214D
:1008D0000848D1F8101112B1012905D000E019B172
:1008E000C168491EC16010BDC168491CFAE700001B
:1008F000008023425000002010B5102000F066F860
:10090000002810D0102000F05BF80949D1F8102120
:100910000848D1F80C110AB131B101E0012903D026
:10092000C168491EC16010BDC168491CFAE70000DA
:1009300000802342500000203EB50821002000F036
:10094000F1F94FF48070002400908DF804400820E5
:100950008DF8050001258DF80650684600F046F830
:1009600017208DF808008DF809408DF80A408DF8A1
:100970000B5002A803F0CCFC3EBD000010B54FF4B4
:100980008074204600F022F801280DD1094A002089
:10099000C2F898010121C2F898110748C0F88C11DB
:1009A00006480178491C01702046BDE8104000F05F
:1009B00007B8000000802242008021424C00002045
:1009C000014908607047000014040140064A0146CE
:1009D00000201268044B0A4014331B680B4202D0FB
:1009E000002A00D0012070470004014030B51A4AA7
:1009F0008379016853B313688B431360111D0B682F
:100A00000468A3430B60017911440B680468234315
:100A10000B60114B083319680468A14319601C1D51
:100A200021680568A94321604179102905D0114446
:100A30000A68006802430A6030BD19680268114301
:100A40001960216800680143216030BD00791044BD
:100A500002688A43026030BD000401407FB5012175
:100A6000084603F05BFF0121802003F057FF282098
:100A70008DF80F001824ADF80C4003A9184800F0B9
:100A800065F90321052000F04DF90421052000F04F
:100A900049F9019401248DF80A4000258DF8085089
:100AA00010208DF8090001A8FFF7A0FF09208DF89C
:100AB00000008DF803408DF801408DF80250684623
:100AC00003F026FC0A208DF800008DF803408DF815
:100AD00001408DF80250684603F01AFC7FBD00000B
:100AE000001C01407FB50121084603F017FF0121DA
:100AF000802003F013FF28268DF80F604FF4704418
:100B0000ADF80C4003A9164800F020F90C2105208F
:100B100000F008F90D21052000F004F90E21052050
:100B200000F000F90F21052000F0FCF800940124EA
:100B30008DF8064000258DF8045010208DF8050032
:100B40006846FFF753FF8DF808608DF80B408DF86D
:100B500009408DF80A5002A803F0DAFB7FBD0000BF
:100B6000001C014038B50121842003F0D7FE01218B
:100B7000084603F0D3FE4FF20300ADF80000102545
:100B80008DF8035003248DF802406946074800F0B1
:100B9000DDF86020ADF800008DF803508DF80240BC
:100BA0006946034800F0D2F838BD00000008014053
:100BB000001C01407FB50121084603F0AFFE012172
:100BC000082003F0ABFE28208DF80F000624ADF8B6
:100BD0000C4003A9184800F0B9F80121084600F0BC
:100BE000A1F80221012000F09DF8019401248DF864
:100BF0000A4000258DF8085010208DF8090001A842
:100C0000FFF7F4FE07208DF800008DF803408DF803
:100C100001408DF80250684603F07AFB08208DF8F9
:100C200000008DF803408DF801408DF802506846B1
:100C300003F06EFB7FBD0000000C01408000A0F1BE
:100C4000C0400029016802D041F0010101E0024AE0
:100C50001140016070470000FEFF0F0010B5D0E9A1
:100C600001121143D0E903231A431143426911438E
:100C700082691143C2691143026A1143426A1143F6
:100C8000826A1143C26A1143026B114302689200E7
:100C9000A2F1C04211608168082907D1016889006A
:100CA000A1F1C0410A6842F040020A60416BD1E9FB
:100CB000002342EA03128B688C891B0243EA044337
:100CC0001A430B8A42EA03520B7D896942EA0362A6
:100CD0000A4301688900A1F1C0414A60C16AB1F5C7
:100CE000804F08D000686FF070418000A0F1C040D4
:100CF000C0F8041110BD816BD1E9002342EA031250
:100D00008B680C8A1B0243EA04531A430B7D8969E2
:100D100042EA036200680A438000A0F1C040C0F8C4
:100D2000042110BD10B58A0721F003040649120FF3
:100D300021440F238C6893409C438C608B689040C7
:100D400003438B6010BD000000000140F0B5CC787B
:100D5000002204F00F03E40601D58C7823430C78BD
:100D60004FF00F0C14F0FF0F4FF0010E1BD0056871
:100D70000E880EFA02F42640A64210D196000CFA14
:100D800006F725EA070703FA06F5CE783D43282E35
:100D900002D0482E02D002E0446100E00461521CFF
:100DA000082AE5D305600A88FF2A1CD94468002276
:100DB00002F108060EFA06F50E882E40AE420ED15C
:100DC00096000CFA06F7BC4303FA06F7CE783C43CC
:100DD000282E00D14561CE78482E00D10561521CE5
:100DE000082AE5D34460F0BDF0B5144C002801DAC0
:100DF000E36900E06368450D2E0185B2C0F3015739
:100E0000B540C0F30342032F05D0C6020AD503261E
:100E10009640B34307E023F07062636823F0706389
:100E2000636002E0AB4343F0706201B12A430028E3
:100E300001DAE261F0BD6260F0BD00000000014037
:100E400001617047FEE700002DE9F043174F0646A9
:100E5000002438887D884543B888A0F5D0410439FE
:100E600002D1B879012807D00021084603F0DAF84A
:100E700003F03AFA0E4815E00020B8714FF02A0945
:100E8000A7F80A904FF02B08A7F80C80014603F052
:100E9000C9F80120B871A7F80A80A7F80C90E7E715
:100EA0000680641CAC42FBD3BDE8F083C001002087
:100EB0000008006C2DE9F04F4A492A232B24898829
:100EC00045F2105A4FF4305B4FF4285E4FF44875EA
:100ED0004FF0F00C49F241394FF4A07745F210364B
:100EE0004FF4F07280B13F484FF00108494580F857
:100EF00006800780A0F802C001D0B1423ED12C2567
:100F000005814381848157E036484FF00008494508
:100F100080F80680A0F800C0478006D0A1F5D04C2C
:100F2000BCF1040C01D0B1420CD12C2505814381C8
:100F3000A1F5D0438481043B01D0B14244D1078064
:100F4000428041E0514507D1A0F808B0A0F80AE07E
:100F50004FF42C5181810EE0A1F5C856633E06D0B6
:100F60002221018120214181212181812CE02C211C
:100F70000181448183810280458025E0A1F5D04C28
:100F8000BCF1040C09D051450BD1A0F808B0A0F871
:100F90000AE04FF42C53838121E02C250581448104
:100FA00009E0A1F5C85CBCF1630C12D022230381D7
:100FB0002123438120238381A1F5D043043B01D029
:100FC000B14201D102804780BDE8F04F002002F01D
:100FD00055BF4FF02C0CA0F808C0438184810580D8
:100FE0004280E9E7C00100202DE9F04F01210E0207
:100FF0009FB0304603F06EFC01214FF4B47003F053
:101000008DFC0127ADF83C704FF010088DF83F8043
:1010100003248DF83E400FA9FE48FFF797FE4CF2DF
:101020003370ADF83C0018258DF83F508DF83E40E8
:101030000FA9F948FFF78AFE4FF68070ADF83C0023
:101040008DF83F508DF83E400FA9F448FFF77EFE23
:1010500041F20100ADF83C008DF83F508DF83E4064
:101060000FA9EF48FFF772FE00200F21CDE918010C
:101070001A901B901C901D901090CDE91104CDE9A1
:101080001607149006211590CDE90010CDE902084D
:10109000139004903101CDE9080106900590079066
:1010A0008900CDE90A010C9017A80D9010A80E90A8
:1010B0006846FFF7D3FD01210620FFF7BFFD322070
:1010C00004F0D0FB002002F0AFFED64DD64C49F222
:1010D0004139A88046F6040A45F2103B45F2105704
:1010E0004FF6FF78FF2804D3404502D0B0F5134FE8
:1010F00070D1D320208002F08DFEA88002F08AFEFD
:10110000A88002F087FE08EA00204146A88002F08D
:1011100081FEAA881043A88048455BD0BF2020806C
:1011200002F078FEA88002F075FEA88002F072FE40
:10113000A88002F06FFE01EA0020A88002F06AFE9B
:10114000AA881043A880504544D0D420208002F0C3
:1011500061FEA88002F05EFEA88002F05BFE01EA5C
:101160000020A88002F056FEAA881043A8805845A7
:1011700030D04FF45A40208002F04CFEA8804FF44B
:101180005B40208002F046FE01EA0020A8804FF478
:101190005C40208002F03EFEAA881043A880B0F593
:1011A000004F7DD0B84215D0A120208002F032FE41
:1011B000A88002F02FFE01EA0020A88002F02AFE9B
:1011C000A9880843A0F5AE41A880613902D141F653
:1011D0006310A880A98895A0FFF748F8A888924DC9
:1011E000AD1C48457ED1CF20208000202880C12022
:1011F000288030202880ED20208064202880032053
:1012000028801220288081202880E82020808520C6
:101210002880102028807A202880CB202080392028
:1012200028802C202880002028803420288002203C
:101230002880F720208020202880EA20208000209D
:1012400028802880C02020801B202880C12020806A
:1012500001202880C5202080302028802880C720B9
:101260002080B720288036202080482028803A20FF
:10127000208055202880B1202080002028801A203E
:101280002880B62020800A202880A2202880F220F2
:10129000208000202880262020800120288000E057
:1012A00051E0E02020800F2028802A20288028205C
:1012B0002880082028800E2028800820288054209C
:1012C0002880A9202880432028800A2028800F20F9
:1012D000288000202880288028802880E120208005
:1012E000002000E031E02880152028801720288089
:1012F0000720288011202880062028802B20288085
:10130000562028803C202880052028801020288016
:101310000F2028803F20288028800F2028802B2025
:101320002080002028802880012028803F202880DD
:101330002A2020800020288028802880EF202880F4
:101340001120208084E0AF8044E7504576D1112001
:101350002080142004F086FAD020208007202880E6
:10136000422028801D202880D12020800020288035
:101370001A20288009202880D2202080012028805F
:1013800022202880C0202080102028803B20288018
:10139000002028800220288011202880C52020805D
:1013A00003202880C8202080002028802520288035
:1013B0002120288005202880002028800A202880DD
:1013C00065202880252028807720288050202880AC
:1013D0000F20288000202880F820208001202880ED
:1013E000FE202080002028800220288020202080CD
:1013F00036202080082028803A2020805520288010
:101400002B202080002028802880012028803F2059
:10141000288014E0000C0140001401400018014035
:1014200000200140C0010020FE07006C204C434416
:101430002049443A25780D0A000000000EE02A20D9
:10144000208000202880288001202880DF2028801C
:10145000782004F007FA292001F02DBC58457DD1F1
:10146000ED20208001202880FE202880EE20208092
:10147000DE20288021202880F12020800120288063
:10148000DF20208010202880C42020808F2028800A
:10149000C620208000202880E22028802880288004
:1014A000BF202080AA202880B02020800D20288006
:1014B000002028800D2028800020288011202880EE
:1014C00000202880192028800020288021202880C2
:1014D000002028802D202880002028803D20288082
:1014E000002028805D202880002028805D20288022
:1014F00000202880B12020808020288000202880A3
:101500008B2028800020288096202880002028809A
:10151000B2202080002028802880022028800020FF
:1015200028800320288000202880B32020800020ED
:10153000288028802880288028802880288028806B
:10154000288028802880288028802880288028805B
:101550002880288028802880288000E0FEE32880DA
:1015600028802880B42020808B202880002028809C
:101570009620288000202880A12028800020288014
:10158000B520208002202880002028800320288089
:10159000002028800420288000202880B620208079
:1015A000002028802880B7202080002028802880E4
:1015B0003F202880002028805E202880002028806E
:1015C00064202880002028808C202880002028800B
:1015D000AC20288000202880DC2028800020288063
:1015E00070202880002028809020288000202880DB
:1015F000EB20288000202880DC2028800020288004
:10160000B8202080002028802880288028802880FA
:10161000288028802880BA2020802420288000204C
:10162000288028802880C120208020202880002039
:1016300028805420288000202880FF202880002037
:101640002880C22020800A202880002028800420B2
:10165000288000202880C32020803C202880002073
:1016600028803A20288000202880392028800020E7
:10167000288037202880002028803C2028800020D7
:1016800028803620288000202880322028800020D2
:1016900028802F202880002028802C2028800020CF
:1016A00028802920288000202880262028800020CB
:1016B00028802420288000202880242028800020C2
:1016C000288023202880002028803C20288000209B
:1016D0002880362028800020288032202880002082
:1016E00028802F202880002028802C20288000207F
:1016F000288029202880002028802620288000207B
:101700002880242028800020288024202880002071
:1017100028802320288000202880C4202080622068
:101720002880002028800520288000202880842010
:10173000288000202880F020288000202880182081
:10174000288000202880A4202880002028801820BD
:1017500028800020288050202880002028800C200D
:1017600028800020288017202880002028809520AD
:10177000288000202880F320288000202880E62070
:10178000288000202880C52020803220288000204A
:101790002880442028800020288065202880002080
:1017A000288076202880002028808820288000201B
:1017B0002880C62020802020288000202880172014
:1017C0002880002028800120288000202880C72031
:1017D000208000202880288028802880C820208021
:1017E00000202880288028802880C9202080002090
:1017F00028802880288028802880288028802880A9
:101800002880288028802880288028802880288098
:10181000E020208016202880002028801C2028809E
:101820000020288021202880002028803620288041
:1018300000202880462028800020288052202880F0
:101840000020288064202880002028807A2028809A
:10185000002028808B202880002028809920288044
:1018600000202880A820288000202880B9202880F7
:1018700000202880C420288000202880CA202880BA
:1018800000202880D220288000202880D92028808D
:1018900000202880E020288000202880F320288055
:1018A00000202880E1202080162028800020288029
:1018B0001C202880002028802220288000202880CA
:1018C000362028800020288045202880002028807D
:1018D0005220288000202880642028800020288032
:1018E0007A202880002028808B20288000202880D3
:1018F0009920288000202880A82028800020288087
:10190000B920288000202880C4202880002028803A
:10191000CA20288000202880D2202880002028800B
:10192000D820288000202880E020288000202880DF
:10193000F320288000202880E220208005202880B5
:10194000002028800B202880002028801B20288051
:1019500000202880342028800020288044202880EF
:10196000002028804F2028800020288061202880A7
:101970000020288079202880002028808820288046
:10198000002028809720288000202880A6202880FA
:1019900000202880B720288000202880C2202880AE
:1019A00000202880C720288000202880D12028807F
:1019B00000202880D620288000202880DD20288054
:1019C00000202880F320288000202880E320208029
:1019D00005202880002028800A20288000202880D8
:1019E0001C20288000202880332028800020288088
:1019F0004420288000202880502028800020288033
:101A000062202880002028807820288000202880DC
:101A10008820288000202880972028800020288087
:101A2000A620288000202880B72028800020288039
:101A3000C220288000202880C720288000202880FD
:101A4000D120288000202880D520288000202880D0
:101A5000DD20288000202880F32028800020288096
:101A6000E420208001202880002028800120288078
:101A70000020288002202880002028802A2028801A
:101A8000002028803C202880002028804B202880AF
:101A9000002028805D202880002028807420288055
:101AA00000202880842028800020288093202880FF
:101AB00000202880A220288000202880B3202880B1
:101AC00000202880BE20288000202880C420288074
:101AD00000202880CD20288000202880D320288046
:101AE00000202880DD20288000202880F320288006
:101AF00000202880E5202080002028802880288061
:101B0000288002202880002028802920288000208A
:101B100028803C202880002028804B20288000201E
:101B200028805D20288000202880742028800020C4
:101B3000288084202880002028809320288000206E
:101B40002880A220288000202880B3202880002020
:101B50002880BE20288000202880C42028800020E3
:101B60002880CD20288000202880D32028800020B5
:101B70002880DC20288000202880F3202880002076
:101B80002880E62020801120288000202880342012
:101B90002880002028805620288000202880762059
:101BA0002880002028807720288000202880662038
:101BB00028800020288088202880002028809920E4
:101BC000288000202880BB202880002028809920A1
:101BD000288000202880662028800020288055202A
:101BE000288000202880552028800020288045203B
:101BF000288000202880432028800020288044203E
:101C0000288000202880E7202080322028800020A3
:101C100028805520288000202880762028800020D9
:101C200028806620288000202880672028800020C7
:101C30002880672028800020288087202880002096
:101C400028809920288000202880BB202880002020
:101C50002880992028800020288077202880002054
:101C600028804420288000202880562028800020BA
:101C700028802320288000202880332028800020EE
:101C800028804520288000202880E820208000200F
:101C9000288028809920288000202880872028807C
:101CA0000020288088202880002028807720288015
:101CB0000020288066202880002028808820288016
:101CC00000202880AA20288000202880BB2028808F
:101CD00000202880992028800020288066202880E5
:101CE000002028805520288000202880552028802A
:101CF000002028804420288000202880442028803C
:101D0000002028805520288000202880E92020807D
:101D1000AA20288000202880288028802080AA20CF
:101D20002880CF20208000202880288028802880BC
:101D30002880288028802880288028802880288063
:101D400028802880288028802880F020208000207B
:101D50002880502028800020288000E02CE0288067
:101D60002880F320208000202880F9202080062071
:101D700028801020288029202880002028803A20D0
:101D800020805520288011202080642003F06AFDE7
:101D9000292020803520208000202880512020808C
:101DA000FF202880532020802C2028805520208050
:101DB000822028802C20FCE3B8427DD14FF4704370
:101DC0005521184602F09AFA4FF20105AA21284639
:101DD00002F094FA6E1C5221304602F08FFAAF1CCA
:101DE0000821384602F08AFA4FF2040901214846D8
:101DF00002F084FA0D214FF4304002F07FFA0D21F9
:101E00004BF2010002F07AFA0D214BF2020002F0CF
:101E100075FA4FF4364A3421504602F06FFA3421F5
:101E20004BF2016002F06AFA34214BF2026002F0D8
:101E300065FA4FF4314B0D21584602F05FFA0D213F
:101E40004BF2011002F05AFA0D214BF2021002F08F
:101E500055FA34214FF4374002F050FA34214BF256
:101E6000017002F04BFA34214BF2027002F046FA94
:101E700000214FF4324002F041FA00214BF20120E0
:101E800002F03CFA00214BF2022002F037FA242142
:101E90004FF4384002F032FA24214BF6010002F0F0
:101EA0002DFA24214BF6020002F028FA01214FF40A
:101EB0003F4002F023FA00E0FEE30F214FF43340ED
:101EC00002F01CFA0F214BF2013002F017FA0F2139
:101ED0004BF2023002F012FA34214FF4394002F092
:101EE0000DFA34214BF6011002F008FA34214BF6BA
:101EF000021002F003FA08214FF4354002F0FEF917
:101F000008214BF2015002F0F9F908214BF202507E
:101F100002F0F4F903214FF4424002F0EFF92421DA
:101F20004FF43A4002F0EAF924214BF6012002F086
:101F3000E5F924214BF6022002F0E0F900214FF4EC
:101F40003C4002F0DBF978214BF6014002F0D6F973
:101F500000214BF6024002F0D1F900214FF43D4040
:101F600002F0CCF978214BF6015002F0C7F90021BC
:101F70004BF6025002F0C2F900214FF43E4002F04D
:101F8000BDF964214BF6016002F0B8F900214FF46D
:101F9000514002F0B3F933214DF2011002F0AEF9D5
:101FA00000214DF2021002F0A9F934214DF2031084
:101FB00002F0A4F900214DF2041002F09FF93A2139
:101FC0004DF2051002F09AF900214DF2061002F0D0
:101FD00095F94A214DF2071002F090F900214DF2D7
:101FE000081002F08BF95C214DF2091002F086F91D
:101FF00000214DF20A1002F081F981214DF20B10FF
:1020000002F07CF900214DF20C1002F077F9A621C4
:102010004DF20D1002F072F900214DF20E1002F097
:102020006DF9E5214DF20F1002F068F901214DF232
:10203000101002F063F913214DF2111002F05EF955
:1020400001214DF2121002F059F954214DF21310F2
:1020500002F054F901214DF2141002F04FF98221DF
:102060004DF2151002F04AF901214DF2161002F05E
:1020700045F9CA214DF2171002F040F902214DF244
:10208000181002F03BF900214DF2191002F036F958
:1020900002214DF21A1002F031F901214DF21B100C
:1020A00002F02CF902214DF21C1002F027F9342124
:1020B0004DF21D1002F022F902214DF21E1002F025
:1020C0001DF967214DF21F1002F018F902214DF29F
:1020D000201002F013F984214DF2211002F00EF9C4
:1020E00002214DF2221002F009F9A4214DF2231031
:1020F00002F004F902214DF2241002F0FFF8B7219A
:102100004DF2251002F0FAF802214DF2261002F0ED
:10211000F5F8CF214DF2271002F0F0F802214DF230
:10212000281002F0EBF8DE214DF2291002F0E6F85B
:1021300002214DF22A1002F0E1F8F2214DF22B10AB
:1021400002F0DCF802214DF22C1002F0D7F8FE214B
:102150004DF22D1002F0D2F803214DF22E1002F0B4
:10216000CDF810214DF22F1002F0C8F803214DF2E6
:10217000301002F0C3F833214DF2311002F0BEF8F6
:1021800003214DF2321002F0B9F86D214DF23310F7
:1021900002F0B4F800214FF4524002F0AFF83321BE
:1021A0004DF2012002F0AAF800214DF2022002F0C7
:1021B000A5F834214DF2032002F0A0F800214DF2E1
:1021C000042002F09BF83A214DF2052002F096F827
:1021D00000214DF2062002F091F84A214DF207202D
:1021E00002F08CF800214DF2082002F087F85C2103
:1021F0004DF2092002F082F800214DF20A2002F08F
:102200007DF881214DF20B2002F078F800214DF28B
:102210000C2002F073F8A6214DF20D2002F06EF8AA
:1022200000214DF20E2002F069F8E5214DF20F2059
:1022300002F064F801214DF2102002F05FF8132142
:102240004DF2112002F05AF801214DF2122002F055
:1022500055F854214DF2132002F050F801214DF2AF
:10226000142002F04BF882214DF2152002F046F8BE
:1022700001214DF2162002F041F8CA214DF217203B
:1022800002F03CF802214DF2182002F037F800214C
:102290004DF2192002F032F802214DF21A2002F01C
:1022A0002DF801214DF21B2002F028F802214DF2F9
:1022B0001C2002F023F834214DF21D2002F01EF8FC
:1022C00002214DF21E2002F019F867214DF21F2065
:1022D00002F014F802214DF2202002F00FF88421C0
:1022E0004DF2212002F00AF802214DF2222002F0E4
:1022F00005F8A4214DF2232002F000F802214DF24E
:10230000242001F0FBFFB7214DF2252001F0F6FF5C
:1023100002214DF2262001F0F1FFCF214DF22720BE
:1023200001F0ECFF02214DF2282001F0E7FFDE2151
:102330004DF2292001F0E2FF02214DF22A2001F0A6
:10234000DDFFF2214DF22B2001F0D8FF02214DF2EA
:102350002C2001F0D3FFFE214DF22D2001F0CEFF05
:1023600003214DF22E2001F0C9FF10214DF22F2044
:1023700001F0C4FF03214DF2302001F0BFFF3321F3
:102380004DF2312001F0BAFF03214DF2322001F06D
:10239000B5FF6D214DF2332001F0B0FF00214FF465
:1023A000534001F0ABFF33214DF2013001F0A6FFA5
:1023B00000214DF2023001F0A1FF34214DF2033033
:1023C00001F09CFF00214DF2043001F097FF3A210B
:1023D0004DF2053001F092FF00214DF2063001F080
:1023E0008DFF4A214DF2073001F088FF00214DF2A8
:1023F000083001F083FF5C214DF2093001F07EFFCF
:1024000000214DF20A3001F079FF81214DF20B30AD
:1024100001F074FF00214DF20C3001F06FFFA62196
:102420004DF20D3001F06AFF00214DF20E3001F047
:1024300065FFE5214DF20F3001F060FF01214DF203
:10244000103001F05BFF13214DF2113001F056FF07
:1024500001214DF2123001F051FF54214DF21330A1
:1024600001F04CFF01214DF2143001F047FF8221B1
:102470004DF2153001F042FF01214DF2163001F00E
:102480003DFFCA214DF2173001F038FF02214DF215
:10249000183001F033FF00214DF2193001F02EFF0A
:1024A00002214DF21A3001F029FF01214DF21B30BB
:1024B00001F024FF02214DF21C3001F01FFF3421F6
:1024C0004DF21D3001F01AFF02214DF21E3001F0D5
:1024D00015FF67214DF21F3001F010FF02214DF270
:1024E000203001F00BFF84214DF2213001F006FF76
:1024F00002214DF2223001F001FFA4214DF22330E0
:1025000001F0FCFE02214DF2243001F0F7FEB7216C
:102510004DF2253001F0F2FE02214DF2263001F09D
:10252000EDFECF214DF2273001F0E8FE02214DF201
:10253000283001F0E3FEDE214DF2293001F0DEFE0D
:1025400002214DF22A3001F0D9FEF2214DF22B305A
:1025500001F0D4FE02214DF22C3001F0CFFEFE211D
:102560004DF22D3001F0CAFE03214DF22E3001F064
:10257000C5FE10214DF22F3001F0C0FE03214DF2B7
:10258000303001F0BBFE33214DF2313001F0B6FEA8
:1025900003214DF2323001F0B1FE6D214DF23330A6
:1025A00001F0ACFE00214FF4544001F0A7FE3321AE
:1025B00000E080E34DF2014001F0A0FE00214DF269
:1025C000024001F09BFE34214DF2034001F096FEE3
:1025D00000214DF2044001F091FE3A214DF20540F8
:1025E00001F08CFE00214DF2064001F087FE4A21E9
:1025F0004DF2074001F082FE00214DF2084001F04B
:102600007DFE5C214DF2094001F078FE00214DF283
:102610000A4001F073FE81214DF20B4001F06EFE85
:1026200000214DF20C4001F069FEA6214DF20D4053
:1026300001F064FE00214DF20E4001F05FFEE52145
:102640004DF20F4001F05AFE01214DF2104001F011
:1026500055FE13214DF2114001F050FE01214DF2C3
:10266000124001F04BFE54214DF2134001F046FEA2
:1026700001214DF2144001F041FE82214DF215403E
:1026800001F03CFE01214DF2164001F037FECA2157
:102690004DF2174001F032FE02214DF2184001F0D8
:1026A0002DFE00214DF2194001F028FE02214DF2CD
:1026B0001A4001F023FE00E0FFE201214DF21B4031
:1026C00001F01CFE02214DF21C4001F017FE3421E6
:1026D0004DF21D4001F012FE02214DF21E4001F0AC
:1026E0000DFE67214DF21F4001F008FE02214DF260
:1026F000204001F003FE84214DF2214001F0FEFD57
:1027000002214DF2224001F0F9FDA4214DF22340B7
:1027100001F0F4FD02214DF2244001F0EFFDB7215C
:102720004DF2254001F0EAFD02214DF2264001F074
:10273000E5FDCF214DF2274001F0E0FD02214DF2F1
:10274000284001F0DBFDDE214DF2294001F0D6FDED
:1027500002214DF22A4001F0D1FDF2214DF22B4031
:1027600001F0CCFD02214DF22C4001F0C7FDFE210D
:102770004DF22D4001F0C2FD03214DF22E4001F03B
:10278000BDFD10214DF22F4001F0B8FD03214DF2A7
:10279000304001F0B3FD33214DF2314001F0AEFD88
:1027A00003214DF2324001F0A9FD6D214DF233407D
:1027B00001F0A4FD00214FF4554001F09FFD3321AD
:1027C0004DF2015001F09AFD00214DF2025001F04E
:1027D00095FD34214DF2035001F090FD00214DF2A2
:1027E000045001F08BFD3A214DF2055001F086FDB9
:1027F00000214DF2065001F081FD4A214DF20750B3
:1028000001F07CFD00214DF2085001F077FD5C21C4
:102810004DF2095001F072FD00214DF20A5001F015
:102820006DFD81214DF20B5001F068FD00214DF24C
:102830000C5001F063FDA6214DF20D5001F05EFD3C
:1028400000214DF20E5001F059FDE5214DF20F50DF
:1028500001F054FD01214DF2105001F04FFD132104
:102860004DF2115001F04AFD01214DF2125001F0DC
:1028700045FD54214DF2135001F040FD01214DF270
:10288000145001F03BFD82214DF2155001F036FD50
:1028900001214DF2165001F031FDCA214DF21750C1
:1028A00001F02CFD02214DF2185001F027FD00210E
:1028B0004DF2195001F022FD02214DF21A5001F0A3
:1028C0001DFD01214DF21B5001F018FD02214DF2BA
:1028D0001C5001F013FD34214DF21D5001F00EFD8E
:1028E00002214DF21E5001F009FD67214DF21F50EB
:1028F00001F004FD02214DF2205001F0FFFC842183
:102900004DF2215001F0FAFC02214DF2225001F06B
:10291000F5FCA4214DF2235001F0F0FC02214DF210
:10292000245001F0EBFCB7214DF2255001F0E6FCFC
:1029300002214DF2265001F0E1FCCF214DF227504B
:1029400001F0DCFC02214DF2285001F0D7FCDE2121
:102950004DF2295001F0D2FC02214DF22A5001F033
:10296000CDFCF2214DF22B5001F0C8FC02214DF2BA
:102970002C5001F0C3FCFE214DF22D5001F0BEFCA5
:1029800003214DF22E5001F0B9FC10214DF22F50D1
:1029900001F0B4FC03214DF2305001F0AFFC3321C3
:1029A0004DF2315001F0AAFC03214DF2325001F0FA
:1029B000A5FC6D214DF2335001F0A0FC00214FF435
:1029C000564001F09BFC33214DF2016001F096FC72
:1029D00000214DF2026001F091FC34214DF20360C0
:1029E00001F08CFC00214DF2046001F087FC3A21DB
:1029F0004DF2056001F082FC00214DF2066001F00D
:102A00007DFC4A214DF2076001F078FC00214DF277
:102A1000086001F073FC5C214DF2096001F06EFC6E
:102A200000214DF20A6001F069FC81214DF20B603A
:102A300001F064FC00214DF20C6001F05FFCA62166
:102A40004DF20D6001F05AFC00214DF20E6001F0D4
:102A500055FCE5214DF20F6001F050FC01214DF2D3
:102A6000106001F04BFC13214DF2116001F046FCA7
:102A700001214DF2126001F041FC54214DF213602E
:102A800001F03CFC01214DF2146001F037FC822181
:102A90004DF2156001F032FC01214DF2166001F09B
:102AA0002DFCCA214DF2176001F028FC02214DF2E5
:102AB000186001F023FC00214DF2196001F01EFCAA
:102AC00002214DF21A6001F019FC01214DF21B6048
:102AD00001F014FC02214DF21C6001F00FFC3421C6
:102AE0004DF21D6001F00AFC02214DF21E6001F062
:102AF00005FC67214DF21F6001F000FC02214DF240
:102B0000206001F0FBFB84214DF2216001F0F6FB17
:102B100002214DF2226001F0F1FBA4214DF223606D
:102B200001F0ECFB02214DF2246001F0E7FBB7213C
:102B30004DF2256001F0E2FB02214DF2266001F02A
:102B4000DDFBCF214DF2276001F0D8FB02214DF2D1
:102B5000286001F0D3FBDE214DF2296001F0CEFBAD
:102B600002214DF22A6001F0C9FBF2214DF22B60E7
:102B700001F0C4FB02214DF22C6001F0BFFBFE21ED
:102B80004DF22D6001F0BAFB03214DF22E6001F0F1
:102B9000B5FB10214DF22F6001F0B0FB03214DF287
:102BA000306001F0ABFB33214DF2316001F0A6FB48
:102BB00003214DF2326001F0A1FB6D214DF2336033
:102BC00001F09CFB5521184601F098FBAA212846EC
:102BD00001F094FB5221304601F090FB0821384669
:102BE00001F08CFB0021484601F088FBCC215846BF
:102BF00001F084FB00214BF2011001F07FFB052165
:102C0000504601F07BFB70214FF4374001F076FB1A
:102C100070214BF2017001F071FB01214FF438403B
:102C200001F06CFB03214BF6010001F067FB03216F
:102C30004BF6020001F062FB03214BF6030001F0AA
:102C40005DFB02214FF43C4001F058FB00214BF6A4
:102C5000014001F053FB00214BF6024001F04EFB16
:102C6000D0214FF4494001F049FB02214CF60110FC
:102C700001F044FB50214CF6021001F03FFB5021C3
:102C80004CF6031001F03AFB50214CF6041001F011
:102C900035FB00214FF4545001F030FB55214FF427
:102CA000685001F02BFB4FF488502080782002F010
:102CB000F3FD4FF424502080FDE3A0F513414FF4C1
:102CC000E06940F23F1A4FF4274B25392ED0A0F58A
:102CD000134140F2077728397DD0A0F513414FF416
:102CE000887B203978D0A0F51341313975D0A0F513
:102CF000A841083972D0A0F5A8514FF4407B05399E
:102D00006DD0A0F5354105396AD0A0F545410539AA
:102D100067D0A0F58A4131397ED0A0F58A41353996
:102D20007BD0A0F5C851633978D0C5E747F6F001EC
:102D3000E52001F0E3FA3146012001F0DFFA4946CF
:102D4000022001F0DBFA41F23001032001F0D6FA53
:102D50000021042001F0D2FA40F20221082001F003
:102D6000CDFA0021092001F0C9FA00210A2001F062
:102D7000C5FA00210C2001F0C1FA00210D2001F05C
:102D8000BDFA00210F2001F0B9FA0021102001F056
:102D9000B5FA0721112001F0B1FA0021122001F04B
:102DA000ADFA0021132001F0A9FA0021072001F05B
:102DB000A5FA41F29061102001F0A0FA40F227211B
:102DC000112001F09BFA9D21122001F097FA4FF497
:102DD000C851132006E081E03DE1E2E1B8E253E3AF
:102DE000FEE3FEE301F08AFA2521292001F086FAAC
:102DF0000D212B2001F082FA0721302001F07EFA0C
:102E000040F20331312001F079FA0321322001F040
:102E100075FA40F2062102E0FEE3FEE3FEE3352010
:102E200001F06CFA0821362001F068FA40F2064100
:102E3000372001F063FA4FF44171382001F05EFA57
:102E40000721392001F05AFA40F202613C2001F0DA
:102E500055FA08213D2001F051FA0021502001F0DF
:102E60004DFAEF21512001F049FA0021522001F0E2
:102E700045FA5146532001F041FA5946602001F0CD
:102E80003DFA0121612001F039FA00216A2001F0A8
:102E900035FA0021802001F031FA0021812001F073
:102EA0002DFA0021822001F029FA0021832001F06F
:102EB00025FA0021842001F021FA0021852001F06B
:102EC0001DFA1021902001F019FA4FF4C0619220F0
:102ED00001F014FA40F233110720FDE341F28F01B3
:102EE000EC2001F00BFA41F23421EF2001F006FA58
:102EF0003146012001F002FA4946022001F0FEF9B4
:102F000041F23001032001F0F9F90021042001F021
:102F1000F5F940F20221082001F0F0F90021092022
:102F200001F0ECF900210A2001F0E8F901210C2060
:102F300001F0E4F900210D2001F0E0F900210F205B
:102F400001F0DCF90021102001F0D8F9072111204F
:102F500001F0D4F90021122001F0D0F90021132052
:102F600001F0CCF90121072001F0C8F9322002F06C
:102F700079FC41F29041102001F0C0F940F2272184
:102F8000112001F0BBF9322002F06CFC8A211220E2
:102F900001F0B4F9322002F065FC4FF4D051132057
:102FA00001F0ACF90621292001F0A8F90D212B2010
:102FB00001F0A4F9322002F055FC0021202001F09C
:102FC0009DF90021212001F099F9322002F04AFCFC
:102FD0000021302001F092F940F20461312001F02B
:102FE0008DF940F20531322001F088F900213520B9
:102FF00001F084F940F60941362001F07FF94FF4E1
:103000000171372001F07AF940F20131382001F0E6
:1030100075F93946392001F071F900213C2001F0A1
:103020006DF940F60A213D2001F068F9322002F0E6
:1030300019FC0021502001F061F9EF21512001F02D
:103040005DF90021522001F059F95146532001F059
:1030500055F9594651E10021084601F04FF9314632
:10306000012001F04BF94946022001F047F941F2F5
:103070003001032001F042F90021042001F03EF963
:1030800040F20221082001F039F90021092001F065
:1030900035F900210A2001F031F901210C2001F05D
:1030A0002DF900210D2001F029F900210F2001F058
:1030B00025F9322002F0D6FB40F20111072001F081
:1030C0001DF9322002F0CEFB4FF48651102001F0A2
:1030D00015F90721112001F011F95B46594612201C
:1030E00001F00CF94FF43061132001F007F90021D1
:1030F000292001F003F944F210012B2001F0FEF821
:103100000021502001F0FAF8EF21512001F0F6F8EB
:103110000021522001F0F2F85146532001F0EEF860
:103120004FF41C51602001F0E9F80121612001F009
:10313000E5F800216A2001F0E1F80021802001F08B
:10314000DDF80021812001F0D9F80021822001F072
:10315000D5F80021832001F0D1F80021842001F06E
:10316000CDF80021852001F0C9F81021902001F050
:10317000C5F80021922001F0C1F80121932001F04F
:10318000BDF81946952001F0B9F80021972001F00B
:10319000B5F80021982001F0B1F840F27311072032
:1031A00085E341F21401E72001F0A8F8314601203F
:1031B00001F0A4F84FF40071022001F09FF841F2F1
:1031C0003801032001F09AF840F20221082001F0B2
:1031D00095F80021092001F091F800210A2001F062
:1031E0008DF800210C2001F089F800210D2001F05C
:1031F00085F800210F2001F081F80021102001F056
:103200007DF80721112001F079F80021122001F04A
:1032100075F80021132001F071F8C82002F022FB9C
:1032200041F29061102001F069F840F2272111204D
:1032300001F064F8322002F015FB0C21122001F09D
:103240005DF8322002F00EFB4FF40061132001F014
:1032500055F81121292001F051F80B212B2001F004
:103260004DF8322002F0FEFA0021202001F046F84D
:1032700053465146212001F041F80021302001F051
:103280003DF84FF483742146312001F037F80021D6
:10329000322001F033F84FF40171352001F02EF89F
:1032A00041F20A61362001F029F83946372001F051
:1032B00025F82146382001F021F83946392001F05F
:1032C0001DF840F202413C2001F018F840F60F4191
:1032D0003D2001F013F80021502001F00FF8EF21FC
:1032E000512001F00BF80021522001F007F8194697
:1032F000532001F003F84FF41C51602000F0FEFF52
:103300000121612000F0FAFF00216A2000F0F6FFA1
:103310000021802000F0F2FF0021812000F0EEFF6C
:103320000021822000F0EAFF0021832000F0E6FF68
:103330000021842000F0E2FF0021852000F0DEFF64
:103340001021902000F0DAFF4FF4C0619220FDE3DD
:103350003146012000F0D2FF4946022000F0CEFFA6
:1033600041F23001032000F0C9FF0021042000F0E9
:10337000C5FF40F20721082000F0C0FF002109200E
:1033800000F0BCFF00210A2000F0B8FF00210C2053
:1033900000F0B4FF00210D2000F0B0FF00210F204D
:1033A00000F0ACFF142002F05DFA41F2B061102091
:1033B00000F0A4FF0121112000F0A0FF012117203F
:1033C00000F09CFF4FF49C71122000F097FF4FF427
:1033D0000061132000F092FF0921292000F08EFFE8
:1033E00009212A2000F08AFF0021A42000F086FF96
:1033F0000021502000F082FFEF21512000F07EFFDD
:103400000021522000F07AFF5146532000F076FF51
:103410004FF41C51602000F071FF0121612000F089
:103420006DFF00216A2000F069FF0021802000F07C
:1034300065FF0021812000F061FF0021822000F063
:103440005DFF0021832000F059FF0021842000F05F
:1034500055FF0021852000F051FF1321902000F03E
:103460004DFF0021922000F049FF0321932000F03E
:1034700045FF5946952000F041FF40F273110720A7
:1034800000F03CFF322011E10021072000F036FF60
:10349000322002F0E7F94FF48E71122000F02EFF77
:1034A0000121A42000F02AFF0F21082000F026FFB0
:1034B00008210A2000E07BE300F020FF08210D2016
:1034C00000F01CFF3946302000F018FF07213120A2
:1034D00000F014FF40F20361322000F00FFF4C4671
:1034E0004946332000F00AFF40F20221342000F068
:1034F00005FF0221352000F001FF41F60F71362053
:1035000000F0FCFE3946372000F0F8FE002138209C
:1035100000F0F4FE0021392000F0F0FE39463A2098
:1035200000F0ECFE00213B2000F0E8FE07213C20EB
:1035300000F0E4FE00213D2000F0E0FE322002F029
:1035400091F90121072000F0D9FE0121172000F098
:10355000D5FE322002F086F94FF4BD51102000F064
:10356000CDFE40F21721112000F0C8FE4FF48F71FC
:10357000122000F0C3FE4FF47061132000F0BEFE75
:1035800000212A2000F0BAFE0A21292000F0B6FE10
:103590004FF49F71122000F0B1FE0021502000F086
:1035A000ADFEEF21512000F0A9FE0021522000F0D5
:1035B000A5FE5146532000F0A1FE4FF41C5160209F
:1035C00000F09CFE0121612000F098FE00216A209D
:1035D00000F094FE0021802000F090FE002101E028
:1035E00067E065E1812000F089FE0021822000F083
:1035F00085FE0021832000F081FE0021842000F060
:103600007DFE0021852000F079FE1321902000F03E
:1036100075FE5946922002E013E2CAE271E300F01F
:103620006DFE0521932000F069FE0021952000F039
:1036300065FE0021972000F061FE0021982000F037
:103640005DFE3146012000F059FE2146022000F0C7
:1036500055FE41F23801032000F050FE0021042005
:1036600000F04CFE00210C2000F048FE00210F204D
:1036700000F044FE0021202000F040FE0021212027
:1036800000F03CFE2121072000F038FE142002F05B
:10369000E9F86121072000F031FE142002F0E2F881
:1036A00040F27311072000F029FE142002F0DAF82E
:1036B000A1E30021084600F021FE0021084600F0A9
:1036C0001DFE0021084600F019FE0021084600F00A
:1036D00015FE0121A42000E0E5E000F00FFE14201B
:1036E00002F0C0F84FF41C542146602000F006FEA2
:1036F00040F202252946082000F000FE4FF4057133
:10370000302000F0FBFD43F21571312000F0F6FD92
:1037100040F20461322000F0F1FD40F616613320E2
:1037200000F0ECFD42F21121342000F0E7FD4FF4EF
:10373000A851352000F0E2FD48F20751362000F094
:10374000DDFD41F20741372000F0D8FD41F2034191
:10375000382000F0D3FD2021392000F0CFFD1A21C0
:10376000902000F0CBFD0021102000F0C7FD0721C4
:10377000112000F0C3FD0021122000F0BFFD002148
:10378000132000F0BBFD142002F06CF84FF4E6614A
:10379000102000F0B3FD40F23711112000F0AEFD13
:1037A000142002F05FF84FF4DC71122000F0A6FD47
:1037B000142002F057F84FF47061132000F09EFDC2
:1037C00080212A2000F09AFD4821292000F096FD52
:1037D000142002F047F83146012000F08FFD4946E1
:1037E000022000F08BFD41F23801032000F086FD3D
:1037F0002946082000F082FD00210A2000F07EFD0D
:1038000000210C2000F07AFD00210D2000F076FD53
:1038100030210E2000F072FD0021502000F06EFDDE
:10382000EF21512000F06AFD0021522000F066FDDA
:103830005146532000F062FD2146602000F05EFDFD
:103840000121612000F05AFD00216A2000F056FDA0
:103850001121902000F052FD4FF4C061922000F041
:103860004DFD40F20241932000F048FD02219420DA
:1038700000F044FD142001F0F5FF0121072000F0C5
:103880003DFD142001F0EEFF6121072000F036FD20
:1038900040F27311072000F031FD0021202000F0DC
:1038A0002DFD0021212000F029FD222100207DE1B5
:1038B0000021084600F022FD0021084600F01EFD10
:1038C000142001F0CFFF0021084600F017FD002171
:1038D000084600F013FD0021084600F00FFD00210E
:1038E000084600F00BFD0121A42000F007FD142084
:1038F00001F0B8FF4FF41C51602000F0FFFC40F6CF
:103900000601082000F0FAFC40F20373194630204B
:1039100000F0F4FC0121312000F0F0FC0421322001
:1039200000F0ECFC4FF48171332000F0E7FC5C46C2
:103930005946342000F0E2FC40F20311352000F03B
:10394000DDFC1F21362000F0D9FC1946372000F09D
:10395000D5FC0121382000F0D1FC0421392000F0F1
:10396000CDFC1521902000F0C9FC4FF4826110209D
:1039700000F0C4FC40F24721112000F0BFFC4FF4DE
:10398000DE71122000F0BAFC4FF46061132000F0E9
:10399000B5FC782001F066FF3146012000F0AEFC56
:1039A0004FF40071022000F0A9FC41F23001032025
:1039B00000F0A4FC08210A2000F0A0FC00210C204B
:1039C00000F09CFC20210E2000F098FC00210F202C
:1039D00000F094FC0021202000F090FC0021212028
:1039E00000F08CFC3D212A2000F088FC142001F01E
:1039F00039FF2D21292000F081FC0021502000F00A
:103A00007DFC4DF2EF01512000F078FC00215220A6
:103A100000F074FC5146532000F070FC002161203E
:103A200000F06CFC00216A2000F068FC2146922026
:103A300000F064FC0521932000F060FC3146FFF7A4
:103A4000AEBB0121002000F059FC0A2001F00AFF62
:103A500041F22861102000F051FC0E21122000F0EC
:103A60004DFC40F63921132000F048FC0A2001F0FB
:103A7000F9FE4021112000F041FC5021152000F0FA
:103A80003DFC0A2001F0EEFE1E21122000F036FC63
:103A90000A2001F0E7FE4FF4B151102000F02EFC97
:103AA00042F63921132000F029FC0A2001F0DAFE49
:103AB0003146012000F022FC5946022000F01EFC95
:103AC00041F23801032000F019FC40F202210820E5
:103AD00000F014FC08210A2000F010FC0021302026
:103AE00000F00CFC40F20241312000F007FC4FF4E2
:103AF0008371322000F002FC40F20351332000F0C9
:103B0000FDFB4FF48271342000F0F8FB40F20131EC
:103B1000352000F0F3FB3946362000F0EFFB40F291
:103B20000531372000F0EAFB4FF40271382000F035
:103B3000E5FB40F60B71392000F0E0FB022141204B
:103B400000F0DCFB4FF41C51602000E0D4E000F0FA
:103B5000D5FB0121612000F0D1FB4FF404719020CE
:103B600000F0CCFB4FF48571922000F0C7FB0421DC
:103B7000932000F0C3FB3146A02000F0BFFB0121E1
:103B8000072000F0BBFB2121072000F0B7FB232119
:103B9000072000F0B3FB3321072000F0AFFB40F219
:103BA0003311072000F0AAFB0021A02000F0A6FBA3
:103BB00021E13021152000F0A1FB10219A2000F016
:103BC0009DFB2021112000F099FB43F22841102099
:103BD00000F094FB0221122000F090FB41F238012A
:103BE000132000F08BFB282001F03CFE1221084638
:103BF00000F084FB282001F035FE43F22041102024
:103C000000F07CFB43F23801132000F077FB4620E4
:103C100001F028FE0021302000F070FB40F202414C
:103C2000312000F06BFB40F20731322000F066FBE0
:103C30004FF44171332000F061FB0421342000F087
:103C40005DFB40F20141352000F058FB394636203B
:103C500000F054FB40F20531372000F04FFB4FF4E9
:103C6000C2631946382000F049FB1946392000F09C
:103C700045FB3146012000F041FB5946022000F08F
:103C80003DFB41F23001032000F038FB40F6080113
:103C9000082000F033FB08210A2000F02FFB4FF42E
:103CA0001C51602000F02AFB0121612000F026FB5E
:103CB0004FF49F71902000F021FB3146922000F0DC
:103CC0001DFB3146932000F019FB4FF44051A0201A
:103CD00000F014FB1021A32000F010FB01210720AD
:103CE00000F00CFB2121072000F008FB2321072016
:103CF00000F004FB3321072000F000FB40F23311F9
:103D00009DE6E220208023202880022028800420B5
:103D10002880642001F0C0FDE02020800120288060
:103D20000A2001F09FFDE0202080032028800C2045
:103D300001F098FD012020800A2001F093FDE6208B
:103D4000208003202880FF2028802880B020208029
:103D500020202880002028800320288040F21F3067
:103D600028800120288040F2DF1028800020288051
:103D7000B42020800420288040F21F4028800020AA
:103D80002880D22028800020288028802880288031
:103D9000B6202080022028804FF403702880002065
:103DA0002880222028800920288000202880288040
:103DB000F02020800320288029202080D02020800F
:103DC00000202880BE20208005202880FE2028801A
:103DD00001202880FF20288000202880B820208013
:103DE0000F20288001202880BA20208001202880F0
:103DF000642000F025F80020FDF75CF8044901205C
:103E0000C1F880014046FDF71FF81FB0BDE8F08FF4
:103E100000802142034808B50088ADF80000BDF8D5
:103E2000000008BD0008006C044910B5088005209A
:103E300001F032FDBDE81040FFF7ECBFFE07006C5B
:103E40000C4A10B5BE211180941C0521218002F07E
:103E5000CEFD4FF06632084B02F0DCFD02F09AFD19
:103E6000208001202080FF202080002020802080D2
:103E700010BD0000FE07006C66660440F0B5674E9A
:103E800000233146B279898846F6040741F6631467
:103E9000012A01D02AB11DE0B9421BD0A14202D1B2
:103EA00018E0A14216D1082814D2DFE800F0040679
:103EB000080A0C0E101206200CE007200AE004206D
:103EC00008E0052006E0012004E0002002E00320D5
:103ED00000E00220A1F5134C45F2103245F21055D6
:103EE000BCF1410C07D0B94205D0914203D0A942A0
:103EF00001D0A14275D1082812D2DFE800F01104E8
:103F000006080A0C0E1080230AE0402308E0C023B4
:103F100006E0202304E0602302E0A02300E0E02389
:103F2000A94202D14FF4585000E03620914205D00A
:103F3000A94203D0A14201D043F00803B94201D104
:103F400043F00203194600F0D9F9B288A2420AD020
:103F500098063088718802D5884202D303E08842EF
:103F600001D9318070802E48811CAA42728902805A
:103F700021D100230B80531C038000230B80931C52
:103F8000038033885B1E1C0A0C80D21C0280DAB2CC
:103F90000A80B289028000230B80531C0380002317
:103FA0000B80931C038073885B1E1C0A0C80D21C40
:103FB0000280D8B212E000220A800A803288521EA3
:103FC000130A0B80D2B20A80B289028000200880D6
:103FD00008807088401E020A0A80C0B20880F0BDC6
:103FE000FFE7082812D2DFE800F0040608110A0CE7
:103FF0000E1030230AE0102308E0202306E03823C7
:1040000004E0282302E0182300E00823BDE8F04084
:10401000032043F4805100F071B90000C00100207A
:10402000FE07006C2DE9F04F4E4F0B463A46BD8817
:104030000C0ADFF834B191895289A5F513464FEA8D
:10404000102C0BF1020A413E1DD0A5F5A646103EEC
:1040500019D03E46BE4696F806903688A5F5D0475C
:10406000A6EB0008A8F10108043F17D0A5F5C85732
:10407000633F28D0A5F5AA477646103F51D0B9F145
:10408000010F63D064E0ABF800205246AAF800C0EC
:10409000C0B2AAF80000ABF800100FE0B9F1010FB0
:1040A00001D11FFA88F0ABF80020050A5246AAF8A1
:1040B0000050C0B2AAF80000ABF800101480D8B2CB
:1040C0001080BDE8F08FB9F1000F1BD0ABF80020D5
:1040D0005246AAF800C0C0B2AAF80000761E300A04
:1040E000AAF80000F0B21080ABF80010114614805E
:1040F000D8B21080BEF80200401E020A0A80C0B288
:104100000880DEE71FFA88F0ABF800200026524650
:10411000AAF80060AAF80060060AAAF80060C0B217
:10412000E1E7ABF80020AAF800C0521CABF8002071
:10413000C0B2AAF80000ABF80010AAF80040491C71
:10414000ABF80010D8B2AAF80000BAE71FFA88F05E
:104150000146104600F0D2F8B089BDE8F04F19468C
:1041600000F0CCB8C0010020FE07006C2DE9FC4F28
:10417000044691464844401E86B2C818401E83B289
:10418000009004EB0900401EC0F3072EDFF850C179
:1041900000980D46C0F3072B6046BCF804204FEA98
:1041A000112881894089A2F513474FEA142A413F1B
:1041B00010D0A2F5A647103F0CD0A2F5D047043F7F
:1041C00008D09CF8067041F6631C0197012F13D1AB
:1041D000624511D1434F3880B81CA0F800A0E2B26C
:1041E0000280A0F800E0F2B202803980A0F80080DE
:1041F000E9B2018059461CE0394F62453F881DD124
:10420000A7EB0902121B374C009B92B29BB2208095
:10421000160AA01C0680D6B206804A44521E160A10
:104220000680D2B202802180A0F80080E9B201802D
:10423000190A0180D9B20180BDE8FC8FA2F5A04C1B
:10424000BCF5A26C1FD0019801283FD0B046214692
:104250002E4650204FF0510A4FF05209532700F0DC
:104260004DF84146504600F049F83146484600F0C6
:1042700045F81946384600F041F829462046BDE881
:10428000FC4FFFF7CFBE174A1080971CA7F800A07D
:1042900000F1010CA2F800C0E4B23C80841C148040
:1042A000A7F800E0C01C1080F0B238801180A7F899
:1042B0000080481C1080E8B23880881C1080A7F865
:1042C00000B0C91C1180D8B23880B5E7B81B401EB9
:1042D00086B2381B9846401E294683B2B9E70000D3
:1042E000C0010020FE07006C0248034900890880D5
:1042F00070470000C0010020FE07006C024A1080D9
:10430000901C018070470000FE07006CFEE77047BC
:1043100030B50F23C27801780125F2B1144A126832
:1043200001F1E02102F4E062C2F5E062120AC2F19A
:104330000404D3404278A24084781C4014432201F4
:1043400081F80024007800F01F018D4040098000B2
:1043500000F1E020C0F8005130BD01F01F008540A1
:104360004809800000F1E020C0F8805130BD000015
:104370000CED00E002490843024908607047000064
:104380000000FA050CED00E010B5001D092815D25B
:10439000DFE800F01F1D12100E0C0A07050048216F
:1043A00000E03821062409E02821FBE71821F9E77D
:1043B0000821F7E7082100E018210E249B2000F0D7
:1043C00045FC2146BDE81040AB2000F03FBC282151
:1043D000F3E73821F1E710B5011D08290BD80401D6
:1043E0004034E1B2A72000F031FCE1B2BDE810405A
:1043F000A82000F02BBC10BD011D082906D82021E3
:1044000001EB8000C1B29C2000F020BC704700008E
:10441000F8B50024012140F23D1000F07FFA4FF47E
:104420008075ADF8005048268DF803600320424F98
:104430008DF8020069463846FCF788FC2946384664
:10444000FCF7FEFC1820ADF800003C4F10258DF85D
:10445000035069463846FCF779FC18213846FCF7CA
:10446000EFFCFF20ADF800008DF80360694634488A
:10447000FCF76CFC4020ADF80000324E8DF8035084
:1044800069463046FCF762FC40213046FCF7D8FC18
:104490004FF44046ADF800608DF803502A4D694650
:1044A0002846FCF753FC31462846FCF7C9FC01219D
:1044B0002648FCF799FC00F093FA8021122000F0C6
:1044C000C5FB08B10120F8BD322001F0CBF91C205A
:1044D00000F018FB4FF6FF7505EA00261D2000F0DE
:1044E00011FB40EA0601A1F5FE40A23803D018A056
:1044F000FBF7BCFEE6E70A2000F004FB05EA002516
:104500000B2000F0FFFA40EA0501A1F5EE4021384A
:1045100004D012A0FBF7AAFE0220F8BD124D05EB55
:104520004400417815F8140000F090FB641CA4B21C
:10453000412CF4D30020F8BD00080140000C0140DC
:104540000010014000140140002001400002300032
:104550004D49443A25640D0A000000004849443A98
:1045600025640D0A00000000106C000810B5062834
:1045700047D2DFE800F003061D27313CFF2113205E
:1045800009E0FD21132000F061FB5A21012000F019
:104590005DFB5C2129E000F059FB65210E2000F055
:1045A00055FB00212D2000F051FB00212E2024E09E
:1045B000FD21132000F04AFB5821012000F046FBAA
:1045C000602112E0FD21132000F040FB8421012036
:1045D00000F03CFB4C2108E0FD21132000F036FBED
:1045E0009621012000F032FB40210220D3E7FF2179
:1045F000132000F02BFBE5210E20BDE8104000F059
:1046000025BB10BD10B5072840D2DFE800F0040636
:1046100009131D273100062103E04621A62031E0C1
:104620002621A62000F012FB8021602000F00EFB66
:10463000802126E01E21A62000F008FB80216020BA
:1046400000F004FBC0211CE01E21A62000F0FEFAB1
:104650006021084600F0FAFA602112E01E21A6202F
:1046600000F0F4FAA021602000F0F0FA402108E008
:104670001E21A62000F0EAFA4021602000F0E6FAB0
:10468000A0216120BDE8104000F0E0BA10BD2DE986
:10469000F0470C4605464AB3C5F5207000EBD070D4
:1046A000C0F34F07C4F5F07000EBD070C0F34F06B5
:1046B0000621122000F0CAFA2321172000F0C6FAC2
:1046C000A021182000F0C2FA0721192000F0BEFA3C
:1046D000F0211A2000F0BAFA0021322000F0B6FAD8
:1046E000A021292000F0B2FAF02128E0C5F5A07041
:1046F00000EBD070C0F34F07C4F1F00000EBD070B6
:10470000C0F34F064621122000F0A0FA3F211720E7
:1047100000F09CFA5021182000F098FA032119208B
:1047200000F094FA78211A2000F090FA002132204B
:1047300000F08CFA5021292000F088FA78212C20F2
:1047400000F084FA172000F0DDF900EB9700C1B209
:10475000172000F07BFAC5F387018A46182000F085
:1047600075FA192000F0CEF900EB5600C1B21920FD
:1047700000F06CFAC4F3470189461A2000F066FA8B
:10478000322000F0BFF98046F007400E07F0030129
:1047900004F0010640EA011040EA860105F0030436
:1047A000214341EA0801322000F050FA5146292005
:1047B00000F04CFA49462C2000F048FA2A2000F07C
:1047C000A1F944EA080444EA8601BDE8F0472A203A
:1047D00000F03CBA2DE9F05FDFF8D8B09BF800009C
:1047E000002865D00420FFF749FB334C4FF4A07537
:1047F000F02320886188A0F5A070F03901EBD17119
:1048000000EBD070C1F34F01C0F34F002A46FFF711
:10481000ADFCA088A0F5C851633910D1208861880B
:10482000A0F5A070F03901EBD17100EBD070C1F3AD
:104830004F01C0F34F002B46F022FFF797FCFFF724
:1048400053FD1E484FF0000AC0F8B8A11C4E1021BD
:104850003160371F396031600122C0F8B8213960FA
:10486000A946184DDFF8608054464FF6FF730020CC
:104870003160AA68396003EA02223160D5F808C0C5
:1048800039600CF0FF0C4CEA020CA8F800C0401C88
:104890004845EDD3641CF02CE9D30C488BF800A0FC
:1048A0000178491C0170BDE8F05F0020FFF7E6BA0F
:1048B000BDE8F09F4C000020C00100200000244211
:1048C000140C0140001001400008006C4D00002055
:1048D00070470000044A0029516901D0014300E0FB
:1048E000814351617047000000100240044A0029D2
:1048F000D16901D0014300E08143D16170470000DC
:1049000000100240044A0029116901D0014300E06F
:10491000814311617047000000100240044A0029E1
:10492000916901D0014300E081439161704700002B
:1049300000100240044A0029D16801D0014300E080
:104940008143D160704700000010024030B5204A1A
:104950005168204B11F00C0103D0042901D0082923
:1049600001D0036012E05168536801F470114FF0F8
:10497000020413F4803F04EB914102D053689B037F
:1049800001D5154B00E0134B5943016051680F23CB
:1049900003EA1111114B5C5C0168E140416054680D
:1049A000072505EA14241C5D21FA04F48460546888
:1049B00005EAD4241B5DD940C1605268032303EA91
:1049C0009232064B1B1F9A5CB1FBF2F1016130BDC4
:1049D0000010024000127A0000093D007000002023
:1049E00038B501214FF49070FFF798FF4FF4005550
:1049F000ADF8005048208DF803000320114C8DF8CD
:104A0000020069462046FCF7A1F929462046FCF73A
:104A100017FA0820ADF8000010200B4D8DF80300A8
:104A200069462846FCF792F908212846FCF708FA5F
:104A3000606820F470006060606840F4401060605E
:104A400038BD0000002001400014014070B5322044
:104A500000F022FF0C4D0120C5F8B4010B4EC6F842
:104A60008C01322005F5DA7506F5C67600F014FFE4
:104A700000243460322000F00FFF2C60BDE870404D
:104A8000322000F009BF00000000244200802242D2
:104A90002DE9F047184F0024786820F47000786002
:104AA000786840F400007860DFF85090144E0825D4
:104AB0004FF00108A246322000F0EEFEC6F88C81CD
:104AC0006006040ED9F8340108B1641CE4B2322047
:104AD00000F0E2FEC6F88CA16D1E15F0FF05EAD1CC
:104AE000786820F470007860786840F4401078604E
:104AF0002046BDE8F087000000200140000024426D
:104B00000080224210B5044600F022F8422000F056
:104B100055F8642000F0C0FE204600F04FF86420F5
:104B200000F0BAFE00F02EF8642000F0B5FE00F0B0
:104B30000FF8432000F042F8642000F0ADFEFFF7CC
:104B4000A7FF0446FFF782FF00F01CF8204610BDC7
:104B500070B50A4E0120C6F8B401094DC5F88C01A4
:104B6000322005F5C67506F5DA7600F095FE0024CC
:104B70003460322000F090FE2C6070BD00002442B2
:104B80000080224270B50B4C0020C4F8B4013220E2
:104B900004F5DA7400F080FE07480125C0F88C5156
:104BA000322000F079FE2560BDE87040322000F030
:104BB00073BE000000002442008022422DE9F0472D
:104BC00000241F4E1F4F0546A0464FF0010928063E
:104BD00001D5484600E04046C6F8B4016806050E17
:104BE000322000F059FEC7F88C91322000F054FEBC
:104BF000C7F88C81641CE4B2082CE8D3124C6068BE
:104C000020F470006060606840F400006060322052
:104C100000F042FEC7F88C91322000F03DFED6F83D
:104C2000340100B10120C7F88C81616821F4700162
:104C30006160616841F440116160BDE8F087000087
:104C400000002442008022420020014070B50D4641
:104C500006460024FFF77CFF4220FFF7AFFF00B1BC
:104C60000124642000F018FE3046FFF7A7FF00B1D2
:104C70000124642000F010FE2846FFF79FFF00B1DA
:104C80000124FFF77FFF204670BD000030B587B0DC
:104C900001210820FFF742FE01218803FFF726FECD
:104CA0004FF47044ADF8144018208DF8170003201D
:104CB000194D8DF8160005A92846FCF747F821463E
:104CC0002846FCF7BDF80020ADF800004FF48271D3
:104CD000ADF80210ADF804000221ADF80610012174
:104CE000ADF808104902ADF80A103821ADF80C10E3
:104CF000ADF80E000720094CADF8100069462046BB
:104D000000F059F80121204600F040F8FF2000F0A3
:104D100007F807B030BD0000000C0140003800402B
:104D200070B506460024114D03E0641CE4B2C82CA3
:104D30000FD80221284600F033F80028F5D031467C
:104D4000284600F036F8002405E0641CE4B2C82CC4
:104D500001D9002070BD0121284600F021F800286B
:104D6000F3D0284600F023F8C0B270BD00380040F0
:104D700001460548028822F03802028002880A4370
:104D80000280012100F002B80038004000290188AB
:104D900002D041F0400101E021F040010180704764
:104DA0000246002012890A4200D001207047808903
:104DB00070478181704730B502884C8802F44153B6
:104DC0000A88CD8822438C882C4322430C892243B5
:104DD0004C8922438C892243CC8922431A43028086
:104DE000828B22F400628283098A018230BD10B571
:104DF000FFF74CFFBDE810403820FFF7B9BF704700
:104E00000CB50022264800920192016841F48031DD
:104E100001604FF4A063016801F400310191009931
:104E2000491C0091019911B900999942F3D1016887
:104E3000890333D5012101911A490A6842F0100211
:104E40000A600A6822F003020A600A6842F002025D
:104E50000A604168416041684160416841F4806195
:104E60004160416821F47C114160416841F4E811DE
:104E70004160016841F08071016001688901FCD5E1
:104E8000416821F003014160416841F00201416045
:104E90004168C1F381010229FAD10CBD01920CBD18
:104EA00000100240002002404FF0E0210428086971
:104EB00003D020F004000861704740F00400FAE7D6
:104EC000704700000F4810B5016841F00101016012
:104ED00041680D4A1140416001680C4A114001606F
:104EE000016821F480210160416821F4FE014160E4
:104EF0004FF41F018160FFF783FF05494FF0006009
:104F0000086010BD001002400000FFF8FFFFF6FE31
:104F100008ED00E010B50C4C0121204600F093F99B
:104F200001280AD10948016988470021204600F07C
:104F3000ABFA6421204600F0A5FA2046BDE81040F7
:104F4000012100F0B2B8000000080040CC000020B1
:104F500070B5094D0121284600F075F930B1074CB4
:104F600007A02178FBF782F9002020702846BDE8D1
:104F70007040012100F099B8001000404D00002061
:104F80006672616D653A25646670730D0A000000F3
:104F90007FB50D46044601211020FFF7A7FCADF8B0
:104FA00004400020ADF80050104CADF80600ADF8FC
:104FB00002006946204600F069FA0122412120469C
:104FC00000F04DF90121204600F072F836208DF8EE
:104FD0000C0001208DF80D0003218DF80E108DF8C6
:104FE0000F0003A8FFF794F97FBD000000100040F8
:104FF00010B5084C0121204600F025F920B10648E3
:10500000017806A0FBF732F92046BDE810400121E7
:1050100000F04BB800140040600000202564000040
:105020007FB50D46044601212020FFF75FFCADF857
:105030000440ADF800500024144DADF80640ADF822
:1050400002408DF808406946284600F01FFA012109
:10505000284600F02AF801224121284600F0FFF8F6
:105060000121284600F024F84FF4E060FFF782F9B0
:1050700037208DF80C0001208DF80D008DF80E40C2
:105080008DF80F0003A8FFF743F97FBD001400401F
:105090000029018802D041F0800101E021F0800167
:1050A00001807047C94301827047C943018270473C
:1050B0000029018802D041F0010101E021F0010145
:1050C000018070474B4910B5884202D10121C414B8
:1050D00086E0B0F1804F09D0474988420DD10121C7
:1050E0000220FFF70FFC0021022064E001210846A6
:1050F000FFF708FC002101205DE04049884206D10D
:1051000001210420FFF7FEFB0021042053E03C496D
:10511000884206D101210820FFF7F4FB0021082076
:1051200049E03849884206D101211020FFF7EAFB07
:10513000002110203FE03449884206D1012120207F
:10514000FFF7E0FB0021202035E03049884202D102
:105150000121441444E02E49884202D10121CC04AB
:105160003EE02C49884202D101210C0538E02A4951
:10517000884202D101214C0532E02849884206D1FB
:1051800001214020FFF7BEFB0021402013E024490D
:10519000884206D101218020FFF7B4FB0021802046
:1051A00009E0204988420AD1841501212046FFF7F1
:1051B000A9FB00212046BDE81040FFF7A3BB1A4918
:1051C000884202D101210C040AE01849884202D128
:1051D00001214C0404E0164988420AD101218C04C3
:1051E0002046FFF7A7FB2046BDE810400021FFF74F
:1051F000A1BB10BD002C014000040040000800408D
:10520000000C004000100040001400400034014039
:10521000004C014000500140005401400018004083
:10522000001C0040002000400040014000440140BC
:1052300000480140808C704702460020128A0A42D2
:1052400000D00120704702460020138A92890B4249
:1052500002EA010202D0002A00D001207047002A91
:10526000828901D00A4300E08A43828170470000AE
:1052700030B5028C22F001020284028C8388048BF8
:1052800022F0020224F073050C882C430D8915438B
:105290004A882A43114DA8420BD0114DA84208D08C
:1052A000104DA84205D0104DA84202D00F4DA84283
:1052B0000DD122F008054A8923F440732A4322F0D5
:1052C00004058A882A438D891D43CB892B4383801B
:1052D0000483C9888186028430BD0000002C01400F
:1052E00000340140004001400044014000480140BA
:1052F00070B5028C22F010020284028C8388048B29
:105300000D8824F4E6464FF6FF7404EA052535437C
:105310000E8922F0200204EA061616434A8804EA9F
:1053200002123243104EB04202D0104EB04215D19C
:1053300022F080064A8923F4406304EA02123243D1
:1053400022F040068A8804EA021232438E8904EA77
:1053500086061E43CB8904EA830333438380058397
:10536000C9880187028470BD002C014000340140CF
:10537000028B4FF6FF7322F4006203EA012111430E
:105380000183704770B5028C22F480720284028C13
:105390008388848B0D8824F0730425430E894FF68F
:1053A000FF7422F4007204EA062616434A8804EACF
:1053B00002223243104EB04202D0104EB04215D1FC
:1053C00022F400664A8923F4405304EA022232435D
:1053D00022F480668A8804EA022232438E8904EA33
:1053E00006161E43CB8904EA031333438380858367
:1053F000C9888187028470BD002C014000340140BF
:10540000828B22F008020A438283704770B5028CB7
:1054100022F480520284058C8288838B0C8823F4CA
:10542000E6464FF6FF7303EA0424344325F400569E
:105430000D8903EA053535434E8803EA06362E43C7
:10544000094DA84202D0094DA84205D122F4804559
:105450008A8903EA82122A4382808483C988A0F859
:105460004010068470BD0000002C01400034014053
:10547000828B4FF6FF7322F4006203EA012111438D
:1054800081837047818570478184704730B5028879
:105490001B4C1C4DA0420DD0A8420BD0B0F1804F48
:1054A00008D0194B984205D0184B984202D0184B9F
:1054B000984203D122F070034A881A43154B984250
:1054C00006D0154B984203D022F44073CA881A4381
:1054D00002808A8882850A880285A0420AD0A84272
:1054E00008D00E4A904205D00D4A904202D00D4A93
:1054F000904201D1097A01860121818230BD0000EC
:10550000002C01400034014000040040000800402D
:10551000000C00400010004000140040004001401A
:10552000004401400048014070B50D46044688B073
:1055300001210420FFF7DAF901210820FFF7EEF935
:10554000334E3046FFF7BEFD4FF47070ADF81C00CF
:1055500018208DF81F0003208DF81E0007A92D4884
:10556000FBF7F4FBADF814400024ADF81050ADF893
:105570001640ADF8124004A93046FFF787FF7020AF
:10558000ADF800000120ADF80200ADF80440C820DD
:10559000ADF80600ADF8084069463046FFF768FEF2
:1055A00008213046FFF7E4FE4FF4C870ADF806005E
:1055B000ADF8084069463046FFF79AFE08213046AC
:1055C000FFF7D6FE4FF41670ADF80600ADF80840B0
:1055D00069463046FFF7D6FE08213046FFF710FF38
:1055E0004FF44870ADF80600ADF808406946304603
:1055F000FFF70CFF08213046FFF73AFF0121304644
:10560000FFF746FD01213046FFF752FD08B070BD9F
:1056100000080040000C01407FB50D460446012102
:105620000420FFF763F9ADF804400020ADF8005006
:10563000104CADF80600ADF8020069462046FFF7B1
:1056400025FF012241212046FFF709FE1E218DF88A
:105650000C1003218DF80D108DF80E1001208DF81F
:105660000F0003A8FEF754FE01212046FFF720FD9E
:105670007FBD00000008004070B5154C40F2255178
:10568000204600F035F800280ED0204600F0BEF885
:10569000104AC1B21088030406D444044FF000033A
:1056A00006D50A2901D0138070BD40F400400DE0FA
:1056B0000D2909D0C0F30D04074D401C80B22955B7
:1056C0001080C728EFD870BD40F48040108070BDB6
:1056D0000038014066000020CE01002000298189A9
:1056E00002D041F4005101E021F400518181704762
:1056F00070B501F01F0501260024C1F3421306FA1C
:1057000005F2012B0FD0022B0FD0838A4FEA112113
:105710000088134206FA01F600EA060001D000B143
:105720000124204670BD8389F0E7038AEEE710B5B7
:10573000C1F3421301F01F040121A140012B07D046
:10574000022B07D01430002A026805D00A4304E077
:105750000C30F8E71030F6E78A43026010BD000015
:1057600030B50446008A85B00D464CF6FF710840FE
:10577000E98801432182A0894EF6F3110840A988E7
:105780002A8911436A8902431143A181A08A4FF6F5
:10579000FF410840A9890143A1826846FFF7D6F876
:1057A0001948844201D1039800E00298A1890904B4
:1057B00000EBC00101EB0010296801D5490000E0B1
:1057C0008900B0FBF1F06422B0FBF2F109010B0992
:1057D0006FF018056B4300EB8300A3891D044FF0A5
:1057E000320306D503EBC000B0FBF2F000F0070077
:1057F00005E003EB0010B0FBF2F000F00F000843EF
:10580000208105B030BD0000003801408088C0F321
:1058100008007047FEE730380A2801D2012070479F
:10582000002070477047000010B56FF00400FFF7CC
:105830003BFB094809490068B0FBF1F00849C0B2D8
:1058400000EB40020870C2EBC0104FF6FF7202EA94
:10585000C000488010BD00003400002000127A0013
:10586000620000200B49498848434FF0E02148611D
:1058700000238B61086940F0010008610869C207D4
:1058800001D0C003FAD5086920F0010008618B61DE
:1058900070470000620000200B49097848434FF030
:1058A000E021486100238B61086940F00100086134
:1058B0000869C20701D0C003FAD5086920F00100C9
:1058C00008618B61704700006200002004490A886B
:1058D0005206FCD5024AC1B2121D11807047000069
:1058E00000380140FFF7A0FF4FF4A060FEF742FD33
:1058F0004FF4E13000F09EF80C484168482088479A
:10590000FBF772FB41F61F4142F20F70FFF788FB75
:1059100000F022F800F00EF8FFF769FA044C0120BD
:10592000FFF7FEF92070FEF755FFF8E7CC000020E6
:105930006000002010B5FBF73DF9FBF7D3F8FBF74B
:105940008DF8FBF70FF9BDE8104040F2CF2163203E
:10595000FFF7EABD006870472DE9FF414FF00008EE
:105960004746454646464446FEF752FDC0B900222A
:10597000F0214FF4A070FEF78AFE4046FEF7F6FDD8
:105980002846FEF728FD3046FEF7FEFC2046FEF7CF
:1059900033FD3846FEF736FE1B490020C1F8BC0136
:1059A00041F61F4142F21070FFF7F2FAFAF7C4FF16
:1059B0000020FBF749FA0420FEF7D8FD0420FEF78B
:1059C0000AFD0420FEF718FD0020FEF71BFE0F481D
:1059D0000FA102686846FAF755FC2A460DA16846F1
:1059E000FAF750FC22460FA16846FAF74BFC07482D
:1059F00007A1183002686846FAF744FC0C494FF4D6
:105A000078400880BDE8FF810000244200000020AB
:105A10002573000053617475726174696F6E3A2565
:105A200064000000436F6E74726173743A25640001
:105A30004800002070B5054686B0012144F20400FC
:105A4000FEF76CFF4FF40070ADF8100003248DF8E2
:105A5000124018201D4E8DF8130004A93046FBF7A4
:105A600075F93015ADF8100004208DF8130004A965
:105A70003046FBF76BF925208DF814008DF81540A2
:105A80008DF8164001208DF8170005A8FEF740FCA0
:105A90000020ADF80400ADF80600ADF80800ADF840
:105AA0000C000C200A4CADF80A000095694620460F
:105AB000FFF756FE012240F225512046FFF737FE40
:105AC00001212046FFF70AFE06B070BD0008014024
:105AD0000038014070B594B0064613AB11AA694670
